{
  "contractName": "LandRegistrationSystem",
  "abi": [
    {
      "inputs": [],
      "stateMutability": "nonpayable",
      "type": "constructor"
    },
    {
      "anonymous": false,
      "inputs": [
        {
          "indexed": true,
          "internalType": "uint256",
          "name": "landId",
          "type": "uint256"
        },
        {
          "indexed": false,
          "internalType": "address",
          "name": "newOwner",
          "type": "address"
        }
      ],
      "name": "LandCreated",
      "type": "event"
    },
    {
      "anonymous": false,
      "inputs": [
        {
          "indexed": true,
          "internalType": "uint256",
          "name": "landId",
          "type": "uint256"
        },
        {
          "indexed": false,
          "internalType": "address[]",
          "name": "previousOwners",
          "type": "address[]"
        },
        {
          "indexed": false,
          "internalType": "address",
          "name": "newOwner",
          "type": "address"
        }
      ],
      "name": "LandOwnershipTransferred",
      "type": "event"
    },
    {
      "inputs": [
        {
          "internalType": "address",
          "name": "",
          "type": "address"
        }
      ],
      "name": "isAdmin",
      "outputs": [
        {
          "internalType": "bool",
          "name": "",
          "type": "bool"
        }
      ],
      "stateMutability": "view",
      "type": "function",
      "constant": true
    },
    {
      "inputs": [
        {
          "internalType": "uint256",
          "name": "",
          "type": "uint256"
        }
      ],
      "name": "lands",
      "outputs": [
        {
          "internalType": "uint256",
          "name": "land_id",
          "type": "uint256"
        },
        {
          "internalType": "bool",
          "name": "is_govt_approved",
          "type": "bool"
        },
        {
          "internalType": "string",
          "name": "ipfsHash",
          "type": "string"
        },
        {
          "internalType": "address",
          "name": "current_owner",
          "type": "address"
        },
        {
          "internalType": "uint256",
          "name": "created_at",
          "type": "uint256"
        },
        {
          "internalType": "uint256",
          "name": "approved_at",
          "type": "uint256"
        }
      ],
      "stateMutability": "view",
      "type": "function",
      "constant": true
    },
    {
      "inputs": [],
      "name": "owner",
      "outputs": [
        {
          "internalType": "address",
          "name": "",
          "type": "address"
        }
      ],
      "stateMutability": "view",
      "type": "function",
      "constant": true
    },
    {
      "inputs": [],
      "name": "totalLands",
      "outputs": [
        {
          "internalType": "uint256",
          "name": "",
          "type": "uint256"
        }
      ],
      "stateMutability": "view",
      "type": "function",
      "constant": true
    },
    {
      "inputs": [
        {
          "internalType": "uint256",
          "name": "",
          "type": "uint256"
        },
        {
          "internalType": "address",
          "name": "",
          "type": "address"
        }
      ],
      "name": "transferApprovals",
      "outputs": [
        {
          "internalType": "bool",
          "name": "",
          "type": "bool"
        }
      ],
      "stateMutability": "view",
      "type": "function",
      "constant": true
    },
    {
      "inputs": [
        {
          "internalType": "uint256",
          "name": "",
          "type": "uint256"
        }
      ],
      "name": "transferRequests",
      "outputs": [
        {
          "internalType": "address",
          "name": "",
          "type": "address"
        }
      ],
      "stateMutability": "view",
      "type": "function",
      "constant": true
    },
    {
      "inputs": [
        {
          "internalType": "address",
          "name": "",
          "type": "address"
        },
        {
          "internalType": "uint256",
          "name": "",
          "type": "uint256"
        }
      ],
      "name": "userLandIds",
      "outputs": [
        {
          "internalType": "uint256",
          "name": "",
          "type": "uint256"
        }
      ],
      "stateMutability": "view",
      "type": "function",
      "constant": true
    },
    {
      "inputs": [
        {
          "internalType": "string",
          "name": "ipfsHash",
          "type": "string"
        }
      ],
      "name": "registerLand",
      "outputs": [],
      "stateMutability": "nonpayable",
      "type": "function"
    },
    {
      "inputs": [
        {
          "internalType": "uint256",
          "name": "landId",
          "type": "uint256"
        }
      ],
      "name": "getLand",
      "outputs": [
        {
          "components": [
            {
              "internalType": "uint256",
              "name": "land_id",
              "type": "uint256"
            },
            {
              "internalType": "bool",
              "name": "is_govt_approved",
              "type": "bool"
            },
            {
              "internalType": "string",
              "name": "ipfsHash",
              "type": "string"
            },
            {
              "internalType": "address",
              "name": "current_owner",
              "type": "address"
            },
            {
              "internalType": "address[]",
              "name": "previous_owners",
              "type": "address[]"
            },
            {
              "internalType": "uint256",
              "name": "created_at",
              "type": "uint256"
            },
            {
              "internalType": "uint256",
              "name": "approved_at",
              "type": "uint256"
            }
          ],
          "internalType": "struct LandRegistrationSystem.Land",
          "name": "",
          "type": "tuple"
        }
      ],
      "stateMutability": "view",
      "type": "function",
      "constant": true
    },
    {
      "inputs": [
        {
          "internalType": "uint256",
          "name": "landId",
          "type": "uint256"
        },
        {
          "internalType": "bool",
          "name": "newIsGovtApproved",
          "type": "bool"
        },
        {
          "internalType": "string",
          "name": "newIpfsHash1",
          "type": "string"
        }
      ],
      "name": "updateLand",
      "outputs": [],
      "stateMutability": "nonpayable",
      "type": "function"
    },
    {
      "inputs": [
        {
          "internalType": "uint256",
          "name": "landId",
          "type": "uint256"
        }
      ],
      "name": "deleteLand",
      "outputs": [],
      "stateMutability": "nonpayable",
      "type": "function"
    },
    {
      "inputs": [
        {
          "internalType": "uint256",
          "name": "landId",
          "type": "uint256"
        },
        {
          "internalType": "address",
          "name": "newOwner",
          "type": "address"
        }
      ],
      "name": "transferOwnership",
      "outputs": [],
      "stateMutability": "nonpayable",
      "type": "function"
    },
    {
      "inputs": [
        {
          "internalType": "uint256",
          "name": "_landId",
          "type": "uint256"
        }
      ],
      "name": "approveLand",
      "outputs": [],
      "stateMutability": "nonpayable",
      "type": "function"
    },
    {
      "inputs": [
        {
          "internalType": "uint256",
          "name": "landId",
          "type": "uint256"
        },
        {
          "internalType": "address",
          "name": "newOwner",
          "type": "address"
        }
      ],
      "name": "createTransferRequest",
      "outputs": [],
      "stateMutability": "nonpayable",
      "type": "function"
    },
    {
      "inputs": [
        {
          "internalType": "uint256",
          "name": "landId",
          "type": "uint256"
        },
        {
          "internalType": "address",
          "name": "currentOwner",
          "type": "address"
        }
      ],
      "name": "approveTransferRequest",
      "outputs": [],
      "stateMutability": "nonpayable",
      "type": "function"
    },
    {
      "inputs": [
        {
          "internalType": "uint256",
          "name": "landId",
          "type": "uint256"
        }
      ],
      "name": "getLandOwners",
      "outputs": [
        {
          "internalType": "address",
          "name": "currentOwner",
          "type": "address"
        },
        {
          "internalType": "address[]",
          "name": "previousOwners",
          "type": "address[]"
        }
      ],
      "stateMutability": "view",
      "type": "function",
      "constant": true
    },
    {
      "inputs": [],
      "name": "getOwnedLands",
      "outputs": [
        {
          "components": [
            {
              "internalType": "uint256",
              "name": "land_id",
              "type": "uint256"
            },
            {
              "internalType": "bool",
              "name": "is_govt_approved",
              "type": "bool"
            },
            {
              "internalType": "string",
              "name": "ipfsHash",
              "type": "string"
            },
            {
              "internalType": "address",
              "name": "current_owner",
              "type": "address"
            },
            {
              "internalType": "address[]",
              "name": "previous_owners",
              "type": "address[]"
            },
            {
              "internalType": "uint256",
              "name": "created_at",
              "type": "uint256"
            },
            {
              "internalType": "uint256",
              "name": "approved_at",
              "type": "uint256"
            }
          ],
          "internalType": "struct LandRegistrationSystem.Land[]",
          "name": "",
          "type": "tuple[]"
        }
      ],
      "stateMutability": "view",
      "type": "function",
      "constant": true
    }
  ],
  "bytecode": "0x608060405234801561001057600080fd5b50336000806101000a81548173ffffffffffffffffffffffffffffffffffffffff021916908373ffffffffffffffffffffffffffffffffffffffff160217905550612fe1806100606000396000f3fe608060405234801561001057600080fd5b506004361061010b5760003560e01c806366269bfc116100a2578063cd40dc2111610071578063cd40dc21146102b7578063e261f1e5146102e7578063f02dd53f1461031c578063fbed216b1461034c578063fd9b2c8d146103685761010b565b806366269bfc146102305780638da5cb5b14610261578063926eeb301461027f578063b780f1081461029b5761010b565b806338c887b2116100de57806338c887b2146101aa5780634e4dd230146101c65780635a89c745146101e25780635eabce0f146102005761010b565b806303486c40146101105780631d8de0631461014057806324d7806c1461015e57806329507f731461018e575b600080fd5b61012a60048036038101906101259190611b5b565b610384565b6040516101379190611bc9565b60405180910390f35b6101486103b7565b6040516101559190611bf3565b60405180910390f35b61017860048036038101906101739190611c3a565b6103bd565b6040516101859190611c82565b60405180910390f35b6101a860048036038101906101a39190611c9d565b6103dd565b005b6101c460048036038101906101bf9190611b5b565b6105d6565b005b6101e060048036038101906101db9190611c9d565b610718565b005b6101ea610923565b6040516101f79190611fae565b60405180910390f35b61021a60048036038101906102159190611c9d565b610aed565b6040516102279190611c82565b60405180910390f35b61024a60048036038101906102459190611b5b565b610b1c565b60405161025892919061203f565b60405180910390f35b610269610bfb565b6040516102769190611bc9565b60405180910390f35b61029960048036038101906102949190611c9d565b610c1f565b005b6102b560048036038101906102b091906121d0565b61108c565b005b6102d160048036038101906102cc919061223f565b6111e0565b6040516102de9190611bf3565b60405180910390f35b61030160048036038101906102fc9190611b5b565b611211565b604051610313969594939291906122c9565b60405180910390f35b61033660048036038101906103319190611b5b565b611302565b60405161034391906123d4565b60405180910390f35b610366600480360381019061036191906123f6565b611572565b005b610382600480360381019061037d9190611b5b565b611829565b005b60036020528060005260406000206000915054906101000a900473ffffffffffffffffffffffffffffffffffffffff1681565b60065481565b60026020528060005260406000206000915054906101000a900460ff1681565b6001600083815260200190815260200160002060030160009054906101000a900473ffffffffffffffffffffffffffffffffffffffff1673ffffffffffffffffffffffffffffffffffffffff163373ffffffffffffffffffffffffffffffffffffffff1614610481576040517f08c379a0000000000000000000000000000000000000000000000000000000008152600401610478906124b1565b60405180910390fd5b600160008381526020019081526020016000206004016001600084815260200190815260200160002060030160009054906101000a900473ffffffffffffffffffffffffffffffffffffffff169080600181540180825580915050600190039060005260206000200160009091909190916101000a81548173ffffffffffffffffffffffffffffffffffffffff021916908373ffffffffffffffffffffffffffffffffffffffff160217905550806001600084815260200190815260200160002060030160006101000a81548173ffffffffffffffffffffffffffffffffffffffff021916908373ffffffffffffffffffffffffffffffffffffffff160217905550817f95a86ff9580f7df077cb15f95dac46778559065f03f97c11b5c3000491da9a3d60016000858152602001908152602001600020600401836040516105ca9291906125bd565b60405180910390a25050565b600260003373ffffffffffffffffffffffffffffffffffffffff1673ffffffffffffffffffffffffffffffffffffffff16815260200190815260200160002060009054906101000a900460ff16610662576040517f08c379a00000000000000000000000000000000000000000000000000000000081526004016106599061265f565b60405180910390fd5b600015156001600083815260200190815260200160002060010160009054906101000a900460ff161515146106cc576040517f08c379a00000000000000000000000000000000000000000000000000000000081526004016106c3906126f1565b60405180910390fd5b600180600083815260200190815260200160002060010160006101000a81548160ff02191690831515021790555042600160008381526020019081526020016000206006018190555050565b60006001600084815260200190815260200160002090503373ffffffffffffffffffffffffffffffffffffffff168160030160009054906101000a900473ffffffffffffffffffffffffffffffffffffffff1673ffffffffffffffffffffffffffffffffffffffff16146107c1576040517f08c379a00000000000000000000000000000000000000000000000000000000081526004016107b8906124b1565b60405180910390fd5b600073ffffffffffffffffffffffffffffffffffffffff166003600085815260200190815260200160002060009054906101000a900473ffffffffffffffffffffffffffffffffffffffff1673ffffffffffffffffffffffffffffffffffffffff1614610863576040517f08c379a000000000000000000000000000000000000000000000000000000000815260040161085a90612783565b60405180910390fd5b816003600085815260200190815260200160002060006101000a81548173ffffffffffffffffffffffffffffffffffffffff021916908373ffffffffffffffffffffffffffffffffffffffff16021790555060016005600085815260200190815260200160002060003373ffffffffffffffffffffffffffffffffffffffff1673ffffffffffffffffffffffffffffffffffffffff16815260200190815260200160002060006101000a81548160ff021916908315150217905550505050565b60606000600460003373ffffffffffffffffffffffffffffffffffffffff1673ffffffffffffffffffffffffffffffffffffffff16815260200190815260200160002080549050905060008167ffffffffffffffff811115610988576109876120a5565b5b6040519080825280602002602001820160405280156109c157816020015b6109ae6119b4565b8152602001906001900390816109a65790505b5090506000805b83811015610ae3576000600460003373ffffffffffffffffffffffffffffffffffffffff1673ffffffffffffffffffffffffffffffffffffffff1681526020019081526020016000208281548110610a2357610a226127a3565b5b906000526020600020015490503373ffffffffffffffffffffffffffffffffffffffff166001600083815260200190815260200160002060030160009054906101000a900473ffffffffffffffffffffffffffffffffffffffff1673ffffffffffffffffffffffffffffffffffffffff1603610acf57610aa281611302565b848481518110610ab557610ab46127a3565b5b60200260200101819052508280610acb90612801565b9350505b508080610adb90612801565b9150506109c8565b5081935050505090565b60056020528160005260406000206020528060005260406000206000915091509054906101000a900460ff1681565b600060606001600084815260200190815260200160002060030160009054906101000a900473ffffffffffffffffffffffffffffffffffffffff16915060016000848152602001908152602001600020600401805480602002602001604051908101604052809291908181526020018280548015610bef57602002820191906000526020600020905b8160009054906101000a900473ffffffffffffffffffffffffffffffffffffffff1673ffffffffffffffffffffffffffffffffffffffff1681526020019060010190808311610ba5575b50505050509050915091565b60008054906101000a900473ffffffffffffffffffffffffffffffffffffffff1681565b600260003373ffffffffffffffffffffffffffffffffffffffff1673ffffffffffffffffffffffffffffffffffffffff16815260200190815260200160002060009054906101000a900460ff16610cab576040517f08c379a0000000000000000000000000000000000000000000000000000000008152600401610ca29061265f565b60405180910390fd5b6000600160008481526020019081526020016000209050600073ffffffffffffffffffffffffffffffffffffffff166003600085815260200190815260200160002060009054906101000a900473ffffffffffffffffffffffffffffffffffffffff1673ffffffffffffffffffffffffffffffffffffffff1603610d64576040517f08c379a0000000000000000000000000000000000000000000000000000000008152600401610d5b906128bb565b60405180910390fd5b600115156005600085815260200190815260200160002060008473ffffffffffffffffffffffffffffffffffffffff1673ffffffffffffffffffffffffffffffffffffffff16815260200190815260200160002060009054906101000a900460ff16151514610e08576040517f08c379a0000000000000000000000000000000000000000000000000000000008152600401610dff9061294d565b60405180910390fd5b600015156005600085815260200190815260200160002060003373ffffffffffffffffffffffffffffffffffffffff1673ffffffffffffffffffffffffffffffffffffffff16815260200190815260200160002060009054906101000a900460ff16151514610eac576040517f08c379a0000000000000000000000000000000000000000000000000000000008152600401610ea3906129df565b60405180910390fd5b806004018160030160009054906101000a900473ffffffffffffffffffffffffffffffffffffffff169080600181540180825580915050600190039060005260206000200160009091909190916101000a81548173ffffffffffffffffffffffffffffffffffffffff021916908373ffffffffffffffffffffffffffffffffffffffff1602179055506003600084815260200190815260200160002060009054906101000a900473ffffffffffffffffffffffffffffffffffffffff168160030160006101000a81548173ffffffffffffffffffffffffffffffffffffffff021916908373ffffffffffffffffffffffffffffffffffffffff160217905550827f95a86ff9580f7df077cb15f95dac46778559065f03f97c11b5c3000491da9a3d600160008681526020019081526020016000206004018360030160009054906101000a900473ffffffffffffffffffffffffffffffffffffffff166040516110169291906125bd565b60405180910390a260016005600085815260200190815260200160002060003373ffffffffffffffffffffffffffffffffffffffff1673ffffffffffffffffffffffffffffffffffffffff16815260200190815260200160002060006101000a81548160ff021916908315150217905550505050565b60006001600085815260200190815260200160002060000154036110e5576040517f08c379a00000000000000000000000000000000000000000000000000000000081526004016110dc90612a4b565b60405180910390fd5b6001600084815260200190815260200160002060030160009054906101000a900473ffffffffffffffffffffffffffffffffffffffff1673ffffffffffffffffffffffffffffffffffffffff163373ffffffffffffffffffffffffffffffffffffffff1614611189576040517f08c379a000000000000000000000000000000000000000000000000000000000815260040161118090612ab7565b60405180910390fd5b816001600085815260200190815260200160002060010160006101000a81548160ff021916908315150217905550806001600085815260200190815260200160002060020190816111da9190612ce3565b50505050565b600460205281600052604060002081815481106111fc57600080fd5b90600052602060002001600091509150505481565b60016020528060005260406000206000915090508060000154908060010160009054906101000a900460ff169080600201805461124d90612b06565b80601f016020809104026020016040519081016040528092919081815260200182805461127990612b06565b80156112c65780601f1061129b576101008083540402835291602001916112c6565b820191906000526020600020905b8154815290600101906020018083116112a957829003601f168201915b5050505050908060030160009054906101000a900473ffffffffffffffffffffffffffffffffffffffff16908060050154908060060154905086565b61130a6119b4565b6000600160008481526020019081526020016000206000015403611363576040517f08c379a000000000000000000000000000000000000000000000000000000000815260040161135a90612a4b565b60405180910390fd5b6040518060e001604052808381526020016001600085815260200190815260200160002060010160009054906101000a900460ff16151581526020016001600085815260200190815260200160002060020180546113c090612b06565b80601f01602080910402602001604051908101604052809291908181526020018280546113ec90612b06565b80156114395780601f1061140e57610100808354040283529160200191611439565b820191906000526020600020905b81548152906001019060200180831161141c57829003601f168201915b505050505081526020016001600085815260200190815260200160002060030160009054906101000a900473ffffffffffffffffffffffffffffffffffffffff1673ffffffffffffffffffffffffffffffffffffffff1681526020016001600085815260200190815260200160002060040180548060200260200160405190810160405280929190818152602001828054801561152b57602002820191906000526020600020905b8160009054906101000a900473ffffffffffffffffffffffffffffffffffffffff1673ffffffffffffffffffffffffffffffffffffffff16815260200190600101908083116114e1575b505050505081526020016001600085815260200190815260200160002060050154815260200160016000858152602001908152602001600020600601548152509050919050565b60006402540be400334260405160200161158d929190612e1e565b6040516020818303038152906040528051906020012060001c6115b09190612e79565b9050600060016000838152602001908152602001600020600001541461160b576040517f08c379a000000000000000000000000000000000000000000000000000000000815260040161160290612ef6565b60405180910390fd5b6040518060e001604052808281526020016000151581526020018381526020013373ffffffffffffffffffffffffffffffffffffffff168152602001600067ffffffffffffffff811115611662576116616120a5565b5b6040519080825280602002602001820160405280156116905781602001602082028036833780820191505090505b5081526020014281526020016000815250600160008381526020019081526020016000206000820151816000015560208201518160010160006101000a81548160ff02191690831515021790555060408201518160020190816116f39190612ce3565b5060608201518160030160006101000a81548173ffffffffffffffffffffffffffffffffffffffff021916908373ffffffffffffffffffffffffffffffffffffffff1602179055506080820151816004019080519060200190611757929190611a09565b5060a0820151816005015560c08201518160060155905050600460003373ffffffffffffffffffffffffffffffffffffffff1673ffffffffffffffffffffffffffffffffffffffff168152602001908152602001600020819080600181540180825580915050600190039060005260206000200160009091909190915055600660008154809291906117e890612801565b9190505550807f9057270c8b8ada5482b02b2e8c27f21fcc080f96b61e960d87ca6a101bffb6423360405161181d9190611bc9565b60405180910390a25050565b6006600081548092919061183c90612f16565b919050555060008054906101000a900473ffffffffffffffffffffffffffffffffffffffff1673ffffffffffffffffffffffffffffffffffffffff163373ffffffffffffffffffffffffffffffffffffffff16146118cf576040517f08c379a00000000000000000000000000000000000000000000000000000000081526004016118c690612f8b565b60405180910390fd5b6000600160008381526020019081526020016000206000015403611928576040517f08c379a000000000000000000000000000000000000000000000000000000000815260040161191f90612a4b565b60405180910390fd5b600160008281526020019081526020016000206000808201600090556001820160006101000a81549060ff02191690556002820160006119689190611a93565b6003820160006101000a81549073ffffffffffffffffffffffffffffffffffffffff021916905560048201600061199f9190611ad3565b60058201600090556006820160009055505050565b6040518060e001604052806000815260200160001515815260200160608152602001600073ffffffffffffffffffffffffffffffffffffffff1681526020016060815260200160008152602001600081525090565b828054828255906000526020600020908101928215611a82579160200282015b82811115611a815782518260006101000a81548173ffffffffffffffffffffffffffffffffffffffff021916908373ffffffffffffffffffffffffffffffffffffffff16021790555091602001919060010190611a29565b5b509050611a8f9190611af4565b5090565b508054611a9f90612b06565b6000825580601f10611ab15750611ad0565b601f016020900490600052602060002090810190611acf9190611af4565b5b50565b5080546000825590600052602060002090810190611af19190611af4565b50565b5b80821115611b0d576000816000905550600101611af5565b5090565b6000604051905090565b600080fd5b600080fd5b6000819050919050565b611b3881611b25565b8114611b4357600080fd5b50565b600081359050611b5581611b2f565b92915050565b600060208284031215611b7157611b70611b1b565b5b6000611b7f84828501611b46565b91505092915050565b600073ffffffffffffffffffffffffffffffffffffffff82169050919050565b6000611bb382611b88565b9050919050565b611bc381611ba8565b82525050565b6000602082019050611bde6000830184611bba565b92915050565b611bed81611b25565b82525050565b6000602082019050611c086000830184611be4565b92915050565b611c1781611ba8565b8114611c2257600080fd5b50565b600081359050611c3481611c0e565b92915050565b600060208284031215611c5057611c4f611b1b565b5b6000611c5e84828501611c25565b91505092915050565b60008115159050919050565b611c7c81611c67565b82525050565b6000602082019050611c976000830184611c73565b92915050565b60008060408385031215611cb457611cb3611b1b565b5b6000611cc285828601611b46565b9250506020611cd385828601611c25565b9150509250929050565b600081519050919050565b600082825260208201905092915050565b6000819050602082019050919050565b611d1281611b25565b82525050565b611d2181611c67565b82525050565b600081519050919050565b600082825260208201905092915050565b60005b83811015611d61578082015181840152602081019050611d46565b60008484015250505050565b6000601f19601f8301169050919050565b6000611d8982611d27565b611d938185611d32565b9350611da3818560208601611d43565b611dac81611d6d565b840191505092915050565b611dc081611ba8565b82525050565b600081519050919050565b600082825260208201905092915050565b6000819050602082019050919050565b6000611dfe8383611db7565b60208301905092915050565b6000602082019050919050565b6000611e2282611dc6565b611e2c8185611dd1565b9350611e3783611de2565b8060005b83811015611e68578151611e4f8882611df2565b9750611e5a83611e0a565b925050600181019050611e3b565b5085935050505092915050565b600060e083016000830151611e8d6000860182611d09565b506020830151611ea06020860182611d18565b5060408301518482036040860152611eb88282611d7e565b9150506060830151611ecd6060860182611db7565b5060808301518482036080860152611ee58282611e17565b91505060a0830151611efa60a0860182611d09565b5060c0830151611f0d60c0860182611d09565b508091505092915050565b6000611f248383611e75565b905092915050565b6000602082019050919050565b6000611f4482611cdd565b611f4e8185611ce8565b935083602082028501611f6085611cf9565b8060005b85811015611f9c5784840389528151611f7d8582611f18565b9450611f8883611f2c565b925060208a01995050600181019050611f64565b50829750879550505050505092915050565b60006020820190508181036000830152611fc88184611f39565b905092915050565b600082825260208201905092915050565b6000611fec82611dc6565b611ff68185611fd0565b935061200183611de2565b8060005b838110156120325781516120198882611df2565b975061202483611e0a565b925050600181019050612005565b5085935050505092915050565b60006040820190506120546000830185611bba565b81810360208301526120668184611fe1565b90509392505050565b61207881611c67565b811461208357600080fd5b50565b6000813590506120958161206f565b92915050565b600080fd5b600080fd5b7f4e487b7100000000000000000000000000000000000000000000000000000000600052604160045260246000fd5b6120dd82611d6d565b810181811067ffffffffffffffff821117156120fc576120fb6120a5565b5b80604052505050565b600061210f611b11565b905061211b82826120d4565b919050565b600067ffffffffffffffff82111561213b5761213a6120a5565b5b61214482611d6d565b9050602081019050919050565b82818337600083830152505050565b600061217361216e84612120565b612105565b90508281526020810184848401111561218f5761218e6120a0565b5b61219a848285612151565b509392505050565b600082601f8301126121b7576121b661209b565b5b81356121c7848260208601612160565b91505092915050565b6000806000606084860312156121e9576121e8611b1b565b5b60006121f786828701611b46565b935050602061220886828701612086565b925050604084013567ffffffffffffffff81111561222957612228611b20565b5b612235868287016121a2565b9150509250925092565b6000806040838503121561225657612255611b1b565b5b600061226485828601611c25565b925050602061227585828601611b46565b9150509250929050565b600082825260208201905092915050565b600061229b82611d27565b6122a5818561227f565b93506122b5818560208601611d43565b6122be81611d6d565b840191505092915050565b600060c0820190506122de6000830189611be4565b6122eb6020830188611c73565b81810360408301526122fd8187612290565b905061230c6060830186611bba565b6123196080830185611be4565b61232660a0830184611be4565b979650505050505050565b600060e0830160008301516123496000860182611d09565b50602083015161235c6020860182611d18565b50604083015184820360408601526123748282611d7e565b91505060608301516123896060860182611db7565b50608083015184820360808601526123a18282611e17565b91505060a08301516123b660a0860182611d09565b5060c08301516123c960c0860182611d09565b508091505092915050565b600060208201905081810360008301526123ee8184612331565b905092915050565b60006020828403121561240c5761240b611b1b565b5b600082013567ffffffffffffffff81111561242a57612429611b20565b5b612436848285016121a2565b91505092915050565b7f4f6e6c79207468652063757272656e74206f776e65722063616e207472616e7360008201527f666572206f776e65727368697000000000000000000000000000000000000000602082015250565b600061249b602d8361227f565b91506124a68261243f565b604082019050919050565b600060208201905081810360008301526124ca8161248e565b9050919050565b600081549050919050565b60008190508160005260206000209050919050565b60008160001c9050919050565b600073ffffffffffffffffffffffffffffffffffffffff82169050919050565b600061253161252c836124f1565b6124fe565b9050919050565b6000612544825461251e565b9050919050565b6000600182019050919050565b6000612563826124d1565b61256d8185611fd0565b9350612578836124dc565b8060005b838110156125b05761258d82612538565b6125978882611df2565b97506125a28361254b565b92505060018101905061257c565b5085935050505092915050565b600060408201905081810360008301526125d78185612558565b90506125e66020830184611bba565b9392505050565b7f4f6e6c792061646d696e732063616e20706572666f726d20746869732061637460008201527f696f6e0000000000000000000000000000000000000000000000000000000000602082015250565b600061264960238361227f565b9150612654826125ed565b604082019050919050565b600060208201905081810360008301526126788161263c565b9050919050565b7f4c616e6420616c726561647920617070726f76656420627920676f7665726e6d60008201527f656e740000000000000000000000000000000000000000000000000000000000602082015250565b60006126db60238361227f565b91506126e68261267f565b604082019050919050565b6000602082019050818103600083015261270a816126ce565b9050919050565b7f546865726520697320616c726561647920612070656e64696e67207472616e7360008201527f666572207265717565737420666f722074686973206c616e6400000000000000602082015250565b600061276d60398361227f565b915061277882612711565b604082019050919050565b6000602082019050818103600083015261279c81612760565b9050919050565b7f4e487b7100000000000000000000000000000000000000000000000000000000600052603260045260246000fd5b7f4e487b7100000000000000000000000000000000000000000000000000000000600052601160045260246000fd5b600061280c82611b25565b91507fffffffffffffffffffffffffffffffffffffffffffffffffffffffffffffffff820361283e5761283d6127d2565b5b600182019050919050565b7f5468657265206973206e6f2070656e64696e67207472616e736665722072657160008201527f7565737420666f722074686973206c616e640000000000000000000000000000602082015250565b60006128a560328361227f565b91506128b082612849565b604082019050919050565b600060208201905081810360008301526128d481612898565b9050919050565b7f43757272656e74206f776e657220686173206e6f7420617070726f766564207460008201527f686973207472616e736665722072657175657374000000000000000000000000602082015250565b600061293760348361227f565b9150612942826128db565b604082019050919050565b600060208201905081810360008301526129668161292a565b9050919050565b7f54686973207472616e7366657220726571756573742068617320616c7265616460008201527f79206265656e20617070726f76656420627920616e2061646d696e2075736572602082015250565b60006129c960408361227f565b91506129d48261296d565b604082019050919050565b600060208201905081810360008301526129f8816129bc565b9050919050565b7f4c616e642077697468207468697320494420646f6573206e6f74206578697374600082015250565b6000612a3560208361227f565b9150612a40826129ff565b602082019050919050565b60006020820190508181036000830152612a6481612a28565b9050919050565b7f4f6e6c79206c616e64206f776e65722063616e20757064617465206c616e6400600082015250565b6000612aa1601f8361227f565b9150612aac82612a6b565b602082019050919050565b60006020820190508181036000830152612ad081612a94565b9050919050565b7f4e487b7100000000000000000000000000000000000000000000000000000000600052602260045260246000fd5b60006002820490506001821680612b1e57607f821691505b602082108103612b3157612b30612ad7565b5b50919050565b60008190508160005260206000209050919050565b60006020601f8301049050919050565b600082821b905092915050565b600060088302612b997fffffffffffffffffffffffffffffffffffffffffffffffffffffffffffffffff82612b5c565b612ba38683612b5c565b95508019841693508086168417925050509392505050565b6000819050919050565b6000612be0612bdb612bd684611b25565b612bbb565b611b25565b9050919050565b6000819050919050565b612bfa83612bc5565b612c0e612c0682612be7565b848454612b69565b825550505050565b600090565b612c23612c16565b612c2e818484612bf1565b505050565b5b81811015612c5257612c47600082612c1b565b600181019050612c34565b5050565b601f821115612c9757612c6881612b37565b612c7184612b4c565b81016020851015612c80578190505b612c94612c8c85612b4c565b830182612c33565b50505b505050565b600082821c905092915050565b6000612cba60001984600802612c9c565b1980831691505092915050565b6000612cd38383612ca9565b9150826002028217905092915050565b612cec82611d27565b67ffffffffffffffff811115612d0557612d046120a5565b5b612d0f8254612b06565b612d1a828285612c56565b600060209050601f831160018114612d4d5760008415612d3b578287015190505b612d458582612cc7565b865550612dad565b601f198416612d5b86612b37565b60005b82811015612d8357848901518255600182019150602085019450602081019050612d5e565b86831015612da05784890151612d9c601f891682612ca9565b8355505b6001600288020188555050505b505050505050565b60008160601b9050919050565b6000612dcd82612db5565b9050919050565b6000612ddf82612dc2565b9050919050565b612df7612df282611ba8565b612dd4565b82525050565b6000819050919050565b612e18612e1382611b25565b612dfd565b82525050565b6000612e2a8285612de6565b601482019150612e3a8284612e07565b6020820191508190509392505050565b7f4e487b7100000000000000000000000000000000000000000000000000000000600052601260045260246000fd5b6000612e8482611b25565b9150612e8f83611b25565b925082612e9f57612e9e612e4a565b5b828206905092915050565b7f4c616e642077697468207468697320494420616c726561647920657869737473600082015250565b6000612ee060208361227f565b9150612eeb82612eaa565b602082019050919050565b60006020820190508181036000830152612f0f81612ed3565b9050919050565b6000612f2182611b25565b915060008203612f3457612f336127d2565b5b600182039050919050565b7f4f6e6c79206f776e65722063616e2064656c657465206c616e64000000000000600082015250565b6000612f75601a8361227f565b9150612f8082612f3f565b602082019050919050565b60006020820190508181036000830152612fa481612f68565b905091905056fea26469706673582212204d1d6d4982a6ac3001c1a642b9cfd9a030d95d384936c82cfffde4729c2c4d8664736f6c63430008130033",
  "immutableReferences": {},
  "source": "// SPDX-License-Identifier: MIT\n\npragma solidity ^0.8.0;\n\ncontract LandRegistrationSystem {\n    struct Land {\n        uint256 land_id;\n        bool is_govt_approved;\n        string ipfsHash;\n        address current_owner;\n        address[] previous_owners;\n        uint256 created_at;\n        uint256 approved_at;\n    }\n\n    address public owner;\n    mapping(uint256 => Land) public lands;\n    mapping(address => bool) public isAdmin;\n    mapping(uint256 => address) public transferRequests;\n    mapping(address => uint256[]) public userLandIds; // Keep track of land IDs owned by each use\n    mapping(uint256 => mapping(address => bool)) public transferApprovals;\n\n    event LandOwnershipTransferred(\n        uint256 indexed landId,\n        address[] previousOwners,\n        address newOwner\n    );\n    event LandCreated(uint256 indexed landId, address newOwner);\n\n    uint256 public totalLands;\n\n    modifier onlyAdmin() {\n        require(isAdmin[msg.sender], \"Only admins can perform this action\");\n        _;\n    }\n\n    constructor() {\n        owner = msg.sender;\n    }\n\n    function registerLand(string memory ipfsHash) public {\n        uint256 landId = uint256(\n            keccak256(abi.encodePacked(msg.sender, block.timestamp))\n        ) % 10000000000;\n        require(lands[landId].land_id == 0, \"Land with this ID already exists\");\n\n        lands[landId] = Land({\n            land_id: landId,\n            is_govt_approved: false,\n            ipfsHash: ipfsHash,\n            current_owner: msg.sender,\n            previous_owners: new address[](0),\n            created_at: block.timestamp,\n            approved_at: 0\n        });\n\n        // Add the land ID to the user's list of owned land IDs\n        userLandIds[msg.sender].push(landId);\n\n        totalLands++;\n\n        emit LandCreated(landId, msg.sender);\n    }\n\n    function getLand(uint256 landId) public view returns (Land memory) {\n        require(lands[landId].land_id != 0, \"Land with this ID does not exist\");\n\n        return\n            Land({\n                land_id: landId,\n                is_govt_approved: lands[landId].is_govt_approved,\n                ipfsHash: lands[landId].ipfsHash,\n                current_owner: lands[landId].current_owner,\n                previous_owners: lands[landId].previous_owners,\n                created_at: lands[landId].created_at,\n                approved_at: lands[landId].approved_at\n            });\n\n        // return data;\n    }\n\n    function updateLand(\n        uint256 landId,\n        bool newIsGovtApproved,\n        string memory newIpfsHash1\n    ) public {\n        require(lands[landId].land_id != 0, \"Land with this ID does not exist\");\n        require(\n            msg.sender == lands[landId].current_owner,\n            \"Only land owner can update land\"\n        );\n        lands[landId].is_govt_approved = newIsGovtApproved;\n        lands[landId].ipfsHash = newIpfsHash1;\n    }\n\n    function deleteLand(uint256 landId) public {\n        totalLands--;\n        require(msg.sender == owner, \"Only owner can delete land\");\n        require(lands[landId].land_id != 0, \"Land with this ID does not exist\");\n\n        delete lands[landId];\n    }\n\n    function transferOwnership(uint256 landId, address newOwner) public {\n        require(\n            msg.sender == lands[landId].current_owner,\n            \"Only the current owner can transfer ownership\"\n        );\n\n        lands[landId].previous_owners.push(lands[landId].current_owner);\n        lands[landId].current_owner = newOwner;\n\n        emit LandOwnershipTransferred(\n            landId,\n            lands[landId].previous_owners,\n            newOwner\n        );\n    }\n\n    function approveLand(uint256 _landId) public onlyAdmin {\n        require(\n            lands[_landId].is_govt_approved == false,\n            \"Land already approved by government\"\n        );\n\n        lands[_landId].is_govt_approved = true;\n        lands[_landId].approved_at = block.timestamp;\n    }\n\n    function createTransferRequest(uint256 landId, address newOwner) public {\n        Land storage land = lands[landId];\n        require(\n            land.current_owner == msg.sender,\n            \"Only the current owner can transfer ownership\"\n        );\n        require(\n            transferRequests[landId] == address(0),\n            \"There is already a pending transfer request for this land\"\n        );\n        transferRequests[landId] = newOwner;\n        transferApprovals[landId][msg.sender] = true;\n    }\n\n    function approveTransferRequest(\n        uint256 landId,\n        address currentOwner\n    ) public onlyAdmin {\n        Land storage land = lands[landId];\n        require(\n            transferRequests[landId] != address(0),\n            \"There is no pending transfer request for this land\"\n        );\n        require(\n            transferApprovals[landId][currentOwner] == true,\n            \"Current owner has not approved this transfer request\"\n        );\n        require(\n            transferApprovals[landId][msg.sender] == false,\n            \"This transfer request has already been approved by an admin user\"\n        );\n        land.previous_owners.push(land.current_owner);\n        land.current_owner = transferRequests[landId];\n        emit LandOwnershipTransferred(\n            landId,\n            lands[landId].previous_owners,\n            land.current_owner\n        );\n        transferApprovals[landId][msg.sender] = true;\n    }\n\n    function getLandOwners(\n        uint256 landId\n    )\n        public\n        view\n        returns (address currentOwner, address[] memory previousOwners)\n    {\n        currentOwner = lands[landId].current_owner;\n        previousOwners = lands[landId].previous_owners;\n    }\n\n    function getOwnedLands() public view returns (Land[] memory) {\n        uint256 landCount = userLandIds[msg.sender].length;\n        Land[] memory ownedLands = new Land[](landCount);\n        uint256 index = 0;\n        for (uint256 i = 0; i < landCount; i++) {\n            uint256 landId = userLandIds[msg.sender][i];\n            if (lands[landId].current_owner == msg.sender) {\n                ownedLands[index] = getLand(landId);\n                index++;\n            }\n        }\n\n        return ownedLands;\n    }\n}\n",
  "sourcePath": "/Users/olayiwola/Documents/dev/verifiland/contracts/LandRegistrationSystem.sol",
  "compiler": {
    "name": "solc",
    "version": "0.8.19+commit.7dd6d404.Emscripten.clang"
  },
  "schemaVersion": "3.4.13",
  "updatedAt": "2023-03-25T09:51:40.999Z",
  "networkType": "ethereum",
  "devdoc": {
    "kind": "dev",
    "methods": {},
    "version": 1
  },
  "userdoc": {
    "kind": "user",
    "methods": {},
    "version": 1
  }
}