{
  "contractName": "LandRegistrationSystem",
  "abi": [
    {
      "inputs": [],
      "stateMutability": "nonpayable",
      "type": "constructor"
    },
    {
      "anonymous": false,
      "inputs": [
        {
          "indexed": true,
          "internalType": "uint256",
          "name": "landId",
          "type": "uint256"
        },
        {
          "indexed": false,
          "internalType": "address",
          "name": "newOwner",
          "type": "address"
        }
      ],
      "name": "LandCreated",
      "type": "event"
    },
    {
      "anonymous": false,
      "inputs": [
        {
          "indexed": true,
          "internalType": "uint256",
          "name": "landId",
          "type": "uint256"
        },
        {
          "indexed": false,
          "internalType": "address[]",
          "name": "previousOwners",
          "type": "address[]"
        },
        {
          "indexed": false,
          "internalType": "address",
          "name": "newOwner",
          "type": "address"
        }
      ],
      "name": "LandOwnershipTransferred",
      "type": "event"
    },
    {
      "inputs": [
        {
          "internalType": "address",
          "name": "",
          "type": "address"
        }
      ],
      "name": "isAdmin",
      "outputs": [
        {
          "internalType": "bool",
          "name": "",
          "type": "bool"
        }
      ],
      "stateMutability": "view",
      "type": "function",
      "constant": true
    },
    {
      "inputs": [
        {
          "internalType": "uint256",
          "name": "",
          "type": "uint256"
        }
      ],
      "name": "lands",
      "outputs": [
        {
          "internalType": "uint256",
          "name": "land_id",
          "type": "uint256"
        },
        {
          "internalType": "bool",
          "name": "is_govt_approved",
          "type": "bool"
        },
        {
          "internalType": "string",
          "name": "ipfsHash",
          "type": "string"
        },
        {
          "internalType": "address",
          "name": "current_owner",
          "type": "address"
        },
        {
          "internalType": "uint256",
          "name": "created_at",
          "type": "uint256"
        },
        {
          "internalType": "uint256",
          "name": "approved_at",
          "type": "uint256"
        }
      ],
      "stateMutability": "view",
      "type": "function",
      "constant": true
    },
    {
      "inputs": [],
      "name": "owner",
      "outputs": [
        {
          "internalType": "address",
          "name": "",
          "type": "address"
        }
      ],
      "stateMutability": "view",
      "type": "function",
      "constant": true
    },
    {
      "inputs": [],
      "name": "totalLands",
      "outputs": [
        {
          "internalType": "uint256",
          "name": "",
          "type": "uint256"
        }
      ],
      "stateMutability": "view",
      "type": "function",
      "constant": true
    },
    {
      "inputs": [
        {
          "internalType": "uint256",
          "name": "",
          "type": "uint256"
        },
        {
          "internalType": "address",
          "name": "",
          "type": "address"
        }
      ],
      "name": "transferApprovals",
      "outputs": [
        {
          "internalType": "bool",
          "name": "",
          "type": "bool"
        }
      ],
      "stateMutability": "view",
      "type": "function",
      "constant": true
    },
    {
      "inputs": [
        {
          "internalType": "uint256",
          "name": "",
          "type": "uint256"
        }
      ],
      "name": "transferRequests",
      "outputs": [
        {
          "internalType": "address",
          "name": "",
          "type": "address"
        }
      ],
      "stateMutability": "view",
      "type": "function",
      "constant": true
    },
    {
      "inputs": [
        {
          "internalType": "address",
          "name": "",
          "type": "address"
        },
        {
          "internalType": "uint256",
          "name": "",
          "type": "uint256"
        }
      ],
      "name": "userLandIds",
      "outputs": [
        {
          "internalType": "uint256",
          "name": "",
          "type": "uint256"
        }
      ],
      "stateMutability": "view",
      "type": "function",
      "constant": true
    },
    {
      "inputs": [
        {
          "internalType": "address",
          "name": "_admin",
          "type": "address"
        }
      ],
      "name": "addAdmin",
      "outputs": [],
      "stateMutability": "nonpayable",
      "type": "function"
    },
    {
      "inputs": [
        {
          "internalType": "string",
          "name": "ipfsHash",
          "type": "string"
        }
      ],
      "name": "registerLand",
      "outputs": [],
      "stateMutability": "nonpayable",
      "type": "function"
    },
    {
      "inputs": [
        {
          "internalType": "uint256",
          "name": "landId",
          "type": "uint256"
        }
      ],
      "name": "getLand",
      "outputs": [
        {
          "components": [
            {
              "internalType": "uint256",
              "name": "land_id",
              "type": "uint256"
            },
            {
              "internalType": "bool",
              "name": "is_govt_approved",
              "type": "bool"
            },
            {
              "internalType": "string",
              "name": "ipfsHash",
              "type": "string"
            },
            {
              "internalType": "address",
              "name": "current_owner",
              "type": "address"
            },
            {
              "internalType": "address[]",
              "name": "previous_owners",
              "type": "address[]"
            },
            {
              "internalType": "uint256",
              "name": "created_at",
              "type": "uint256"
            },
            {
              "internalType": "uint256",
              "name": "approved_at",
              "type": "uint256"
            }
          ],
          "internalType": "struct LandRegistrationSystem.Land",
          "name": "",
          "type": "tuple"
        }
      ],
      "stateMutability": "view",
      "type": "function",
      "constant": true
    },
    {
      "inputs": [
        {
          "internalType": "uint256",
          "name": "landId",
          "type": "uint256"
        },
        {
          "internalType": "string",
          "name": "newIpfsHash1",
          "type": "string"
        }
      ],
      "name": "updateLand",
      "outputs": [],
      "stateMutability": "nonpayable",
      "type": "function"
    },
    {
      "inputs": [
        {
          "internalType": "uint256",
          "name": "landId",
          "type": "uint256"
        }
      ],
      "name": "deleteLand",
      "outputs": [],
      "stateMutability": "nonpayable",
      "type": "function"
    },
    {
      "inputs": [
        {
          "internalType": "uint256",
          "name": "_landId",
          "type": "uint256"
        }
      ],
      "name": "approveLand",
      "outputs": [],
      "stateMutability": "nonpayable",
      "type": "function"
    },
    {
      "inputs": [
        {
          "internalType": "uint256",
          "name": "landId",
          "type": "uint256"
        },
        {
          "internalType": "address",
          "name": "newOwner",
          "type": "address"
        }
      ],
      "name": "createTransferRequest",
      "outputs": [],
      "stateMutability": "nonpayable",
      "type": "function"
    },
    {
      "inputs": [
        {
          "internalType": "uint256",
          "name": "landId",
          "type": "uint256"
        },
        {
          "internalType": "address",
          "name": "currentOwner",
          "type": "address"
        }
      ],
      "name": "approveTransferRequest",
      "outputs": [],
      "stateMutability": "nonpayable",
      "type": "function"
    },
    {
      "inputs": [
        {
          "internalType": "uint256",
          "name": "landId",
          "type": "uint256"
        }
      ],
      "name": "getLandOwners",
      "outputs": [
        {
          "internalType": "address",
          "name": "currentOwner",
          "type": "address"
        },
        {
          "internalType": "address[]",
          "name": "previousOwners",
          "type": "address[]"
        }
      ],
      "stateMutability": "view",
      "type": "function",
      "constant": true
    },
    {
      "inputs": [],
      "name": "getOwnedLands",
      "outputs": [
        {
          "components": [
            {
              "internalType": "uint256",
              "name": "land_id",
              "type": "uint256"
            },
            {
              "internalType": "bool",
              "name": "is_govt_approved",
              "type": "bool"
            },
            {
              "internalType": "string",
              "name": "ipfsHash",
              "type": "string"
            },
            {
              "internalType": "address",
              "name": "current_owner",
              "type": "address"
            },
            {
              "internalType": "address[]",
              "name": "previous_owners",
              "type": "address[]"
            },
            {
              "internalType": "uint256",
              "name": "created_at",
              "type": "uint256"
            },
            {
              "internalType": "uint256",
              "name": "approved_at",
              "type": "uint256"
            }
          ],
          "internalType": "struct LandRegistrationSystem.Land[]",
          "name": "",
          "type": "tuple[]"
        }
      ],
      "stateMutability": "view",
      "type": "function",
      "constant": true
    },
    {
      "inputs": [],
      "name": "getTransferredLands",
      "outputs": [
        {
          "components": [
            {
              "internalType": "uint256",
              "name": "created_at",
              "type": "uint256"
            },
            {
              "internalType": "address",
              "name": "new_owner",
              "type": "address"
            },
            {
              "internalType": "uint256",
              "name": "land_id",
              "type": "uint256"
            },
            {
              "internalType": "bool",
              "name": "owner_approved",
              "type": "bool"
            },
            {
              "internalType": "bool",
              "name": "govt_approved",
              "type": "bool"
            }
          ],
          "internalType": "struct LandRegistrationSystem.TransferRequestTrack[]",
          "name": "",
          "type": "tuple[]"
        }
      ],
      "stateMutability": "view",
      "type": "function",
      "constant": true
    }
  ],
  "bytecode": "0x608060405234801561001057600080fd5b50336000806101000a81548173ffffffffffffffffffffffffffffffffffffffff021916908373ffffffffffffffffffffffffffffffffffffffff1602179055506133e9806100606000396000f3fe608060405234801561001057600080fd5b50600436106101165760003560e01c806370480275116100a2578063cd40dc2111610071578063cd40dc21146102e0578063e261f1e514610310578063f02dd53f14610345578063fbed216b14610375578063fd9b2c8d1461039157610116565b8063704802751461026e5780638da5cb5b1461028a578063926eeb30146102a8578063a18f7d98146102c457610116565b80634e4dd230116100e95780634e4dd230146101b55780635a89c745146101d15780635d3d5a17146101ef5780635eabce0f1461020d57806366269bfc1461023d57610116565b806303486c401461011b5780631d8de0631461014b57806324d7806c1461016957806338c887b214610199575b600080fd5b61013560048036038101906101309190611d6b565b6103ad565b6040516101429190611dd9565b60405180910390f35b6101536103e0565b6040516101609190611e03565b60405180910390f35b610183600480360381019061017e9190611e4a565b6103e6565b6040516101909190611e92565b60405180910390f35b6101b360048036038101906101ae9190611d6b565b610406565b005b6101cf60048036038101906101ca9190611ead565b610548565b005b6101d961091e565b6040516101e691906121be565b60405180910390f35b6101f7610ae8565b60405161020491906122f7565b60405180910390f35b61022760048036038101906102229190611ead565b610c2a565b6040516102349190611e92565b60405180910390f35b61025760048036038101906102529190611d6b565b610c59565b604051610265929190612388565b60405180910390f35b61028860048036038101906102839190611e4a565b610d38565b005b610292610e21565b60405161029f9190611dd9565b60405180910390f35b6102c260048036038101906102bd9190611ead565b610e45565b005b6102de60048036038101906102d991906124ed565b6112cb565b005b6102fa60048036038101906102f59190612549565b6113f0565b6040516103079190611e03565b60405180910390f35b61032a60048036038101906103259190611d6b565b611421565b60405161033c969594939291906125d3565b60405180910390f35b61035f600480360381019061035a9190611d6b565b611512565b60405161036c91906126de565b60405180910390f35b61038f600480360381019061038a9190612700565b611782565b005b6103ab60048036038101906103a69190611d6b565b611a39565b005b60036020528060005260406000206000915054906101000a900473ffffffffffffffffffffffffffffffffffffffff1681565b60075481565b60026020528060005260406000206000915054906101000a900460ff1681565b600260003373ffffffffffffffffffffffffffffffffffffffff1673ffffffffffffffffffffffffffffffffffffffff16815260200190815260200160002060009054906101000a900460ff16610492576040517f08c379a0000000000000000000000000000000000000000000000000000000008152600401610489906127bb565b60405180910390fd5b600015156001600083815260200190815260200160002060010160009054906101000a900460ff161515146104fc576040517f08c379a00000000000000000000000000000000000000000000000000000000081526004016104f39061284d565b60405180910390fd5b600180600083815260200190815260200160002060010160006101000a81548160ff02191690831515021790555042600160008381526020019081526020016000206006018190555050565b60006001600084815260200190815260200160002090503373ffffffffffffffffffffffffffffffffffffffff168160030160009054906101000a900473ffffffffffffffffffffffffffffffffffffffff1673ffffffffffffffffffffffffffffffffffffffff16146105f1576040517f08c379a00000000000000000000000000000000000000000000000000000000081526004016105e8906128df565b60405180910390fd5b6000600460003373ffffffffffffffffffffffffffffffffffffffff1673ffffffffffffffffffffffffffffffffffffffff168152602001908152602001600020805480602002602001604051908101604052809291908181526020016000905b8282101561072457838290600052602060002090600402016040518060a0016040529081600082015481526020016001820160009054906101000a900473ffffffffffffffffffffffffffffffffffffffff1673ffffffffffffffffffffffffffffffffffffffff1673ffffffffffffffffffffffffffffffffffffffff168152602001600282015481526020016003820160009054906101000a900460ff161515151581526020016003820160019054906101000a900460ff16151515158152505081526020019060010190610652565b50505050905060005b81518110156107cf578482828151811061074a576107496128ff565b5b602002602001015160400151036107bc578482828151811061076f5761076e6128ff565b5b602002602001015160400151036107bb576040517f08c379a00000000000000000000000000000000000000000000000000000000081526004016107b2906129a0565b60405180910390fd5b5b80806107c7906129ef565b91505061072d565b50600460003373ffffffffffffffffffffffffffffffffffffffff1673ffffffffffffffffffffffffffffffffffffffff1681526020019081526020016000206040518060a001604052804281526020018573ffffffffffffffffffffffffffffffffffffffff1681526020018681526020016001151581526020016000151581525090806001815401808255809150506001900390600052602060002090600402016000909190919091506000820151816000015560208201518160010160006101000a81548173ffffffffffffffffffffffffffffffffffffffff021916908373ffffffffffffffffffffffffffffffffffffffff1602179055506040820151816002015560608201518160030160006101000a81548160ff02191690831515021790555060808201518160030160016101000a81548160ff021916908315150217905550505050505050565b60606000600560003373ffffffffffffffffffffffffffffffffffffffff1673ffffffffffffffffffffffffffffffffffffffff16815260200190815260200160002080549050905060008167ffffffffffffffff811115610983576109826123c2565b5b6040519080825280602002602001820160405280156109bc57816020015b6109a9611bc4565b8152602001906001900390816109a15790505b5090506000805b83811015610ade576000600560003373ffffffffffffffffffffffffffffffffffffffff1673ffffffffffffffffffffffffffffffffffffffff1681526020019081526020016000208281548110610a1e57610a1d6128ff565b5b906000526020600020015490503373ffffffffffffffffffffffffffffffffffffffff166001600083815260200190815260200160002060030160009054906101000a900473ffffffffffffffffffffffffffffffffffffffff1673ffffffffffffffffffffffffffffffffffffffff1603610aca57610a9d81611512565b848481518110610ab057610aaf6128ff565b5b60200260200101819052508280610ac6906129ef565b9350505b508080610ad6906129ef565b9150506109c3565b5081935050505090565b60606000600460003373ffffffffffffffffffffffffffffffffffffffff1673ffffffffffffffffffffffffffffffffffffffff168152602001908152602001600020805480602002602001604051908101604052809291908181526020016000905b82821015610c1d57838290600052602060002090600402016040518060a0016040529081600082015481526020016001820160009054906101000a900473ffffffffffffffffffffffffffffffffffffffff1673ffffffffffffffffffffffffffffffffffffffff1673ffffffffffffffffffffffffffffffffffffffff168152602001600282015481526020016003820160009054906101000a900460ff161515151581526020016003820160019054906101000a900460ff16151515158152505081526020019060010190610b4b565b5050505090508091505090565b60066020528160005260406000206020528060005260406000206000915091509054906101000a900460ff1681565b600060606001600084815260200190815260200160002060030160009054906101000a900473ffffffffffffffffffffffffffffffffffffffff16915060016000848152602001908152602001600020600401805480602002602001604051908101604052809291908181526020018280548015610d2c57602002820191906000526020600020905b8160009054906101000a900473ffffffffffffffffffffffffffffffffffffffff1673ffffffffffffffffffffffffffffffffffffffff1681526020019060010190808311610ce2575b50505050509050915091565b60008054906101000a900473ffffffffffffffffffffffffffffffffffffffff1673ffffffffffffffffffffffffffffffffffffffff163373ffffffffffffffffffffffffffffffffffffffff1614610dc6576040517f08c379a0000000000000000000000000000000000000000000000000000000008152600401610dbd90612aa9565b60405180910390fd5b6001600260008373ffffffffffffffffffffffffffffffffffffffff1673ffffffffffffffffffffffffffffffffffffffff16815260200190815260200160002060006101000a81548160ff02191690831515021790555050565b60008054906101000a900473ffffffffffffffffffffffffffffffffffffffff1681565b600260003373ffffffffffffffffffffffffffffffffffffffff1673ffffffffffffffffffffffffffffffffffffffff16815260200190815260200160002060009054906101000a900460ff16610ed1576040517f08c379a0000000000000000000000000000000000000000000000000000000008152600401610ec8906127bb565b60405180910390fd5b600060016000848152602001908152602001600020905082816000015414610f2e576040517f08c379a0000000000000000000000000000000000000000000000000000000008152600401610f2590612b15565b60405180910390fd5b6000600460008473ffffffffffffffffffffffffffffffffffffffff1673ffffffffffffffffffffffffffffffffffffffff168152602001908152602001600020805480602002602001604051908101604052809291908181526020016000905b8282101561106157838290600052602060002090600402016040518060a0016040529081600082015481526020016001820160009054906101000a900473ffffffffffffffffffffffffffffffffffffffff1673ffffffffffffffffffffffffffffffffffffffff1673ffffffffffffffffffffffffffffffffffffffff168152602001600282015481526020016003820160009054906101000a900460ff161515151581526020016003820160019054906101000a900460ff16151515158152505081526020019060010190610f8f565b50505050905060005b81518110156112c45784828281518110611087576110866128ff565b5b602002602001015160400151036112b157848282815181106110ac576110ab6128ff565b5b602002602001015160400151146110f8576040517f08c379a00000000000000000000000000000000000000000000000000000000081526004016110ef90612ba7565b60405180910390fd5b6001151582828151811061110f5761110e6128ff565b5b60200260200101516060015115151461115d576040517f08c379a000000000000000000000000000000000000000000000000000000000815260040161115490612c39565b60405180910390fd5b60001515828281518110611174576111736128ff565b5b6020026020010151608001511515146111c2576040517f08c379a00000000000000000000000000000000000000000000000000000000081526004016111b990612ccb565b60405180910390fd5b6001600460003373ffffffffffffffffffffffffffffffffffffffff1673ffffffffffffffffffffffffffffffffffffffff1681526020019081526020016000208281548110611215576112146128ff565b5b906000526020600020906004020160030160016101000a81548160ff021916908315150217905550847f95a86ff9580f7df077cb15f95dac46778559065f03f97c11b5c3000491da9a3d600160008881526020019081526020016000206004018560030160009054906101000a900473ffffffffffffffffffffffffffffffffffffffff166040516112a8929190612dd7565b60405180910390a25b80806112bc906129ef565b91505061106a565b5050505050565b6000600160008481526020019081526020016000206000015403611324576040517f08c379a000000000000000000000000000000000000000000000000000000000815260040161131b90612e53565b60405180910390fd5b6001600083815260200190815260200160002060030160009054906101000a900473ffffffffffffffffffffffffffffffffffffffff1673ffffffffffffffffffffffffffffffffffffffff163373ffffffffffffffffffffffffffffffffffffffff16146113c8576040517f08c379a00000000000000000000000000000000000000000000000000000000081526004016113bf90612ebf565b60405180910390fd5b806001600084815260200190815260200160002060020190816113eb91906130eb565b505050565b6005602052816000526040600020818154811061140c57600080fd5b90600052602060002001600091509150505481565b60016020528060005260406000206000915090508060000154908060010160009054906101000a900460ff169080600201805461145d90612f0e565b80601f016020809104026020016040519081016040528092919081815260200182805461148990612f0e565b80156114d65780601f106114ab576101008083540402835291602001916114d6565b820191906000526020600020905b8154815290600101906020018083116114b957829003601f168201915b5050505050908060030160009054906101000a900473ffffffffffffffffffffffffffffffffffffffff16908060050154908060060154905086565b61151a611bc4565b6000600160008481526020019081526020016000206000015403611573576040517f08c379a000000000000000000000000000000000000000000000000000000000815260040161156a90612e53565b60405180910390fd5b6040518060e001604052808381526020016001600085815260200190815260200160002060010160009054906101000a900460ff16151581526020016001600085815260200190815260200160002060020180546115d090612f0e565b80601f01602080910402602001604051908101604052809291908181526020018280546115fc90612f0e565b80156116495780601f1061161e57610100808354040283529160200191611649565b820191906000526020600020905b81548152906001019060200180831161162c57829003601f168201915b505050505081526020016001600085815260200190815260200160002060030160009054906101000a900473ffffffffffffffffffffffffffffffffffffffff1673ffffffffffffffffffffffffffffffffffffffff1681526020016001600085815260200190815260200160002060040180548060200260200160405190810160405280929190818152602001828054801561173b57602002820191906000526020600020905b8160009054906101000a900473ffffffffffffffffffffffffffffffffffffffff1673ffffffffffffffffffffffffffffffffffffffff16815260200190600101908083116116f1575b505050505081526020016001600085815260200190815260200160002060050154815260200160016000858152602001908152602001600020600601548152509050919050565b60006402540be400334260405160200161179d929190613226565b6040516020818303038152906040528051906020012060001c6117c09190613281565b9050600060016000838152602001908152602001600020600001541461181b576040517f08c379a0000000000000000000000000000000000000000000000000000000008152600401611812906132fe565b60405180910390fd5b6040518060e001604052808281526020016000151581526020018381526020013373ffffffffffffffffffffffffffffffffffffffff168152602001600067ffffffffffffffff811115611872576118716123c2565b5b6040519080825280602002602001820160405280156118a05781602001602082028036833780820191505090505b5081526020014281526020016000815250600160008381526020019081526020016000206000820151816000015560208201518160010160006101000a81548160ff021916908315150217905550604082015181600201908161190391906130eb565b5060608201518160030160006101000a81548173ffffffffffffffffffffffffffffffffffffffff021916908373ffffffffffffffffffffffffffffffffffffffff1602179055506080820151816004019080519060200190611967929190611c19565b5060a0820151816005015560c08201518160060155905050600560003373ffffffffffffffffffffffffffffffffffffffff1673ffffffffffffffffffffffffffffffffffffffff168152602001908152602001600020819080600181540180825580915050600190039060005260206000200160009091909190915055600760008154809291906119f8906129ef565b9190505550807f9057270c8b8ada5482b02b2e8c27f21fcc080f96b61e960d87ca6a101bffb64233604051611a2d9190611dd9565b60405180910390a25050565b60076000815480929190611a4c9061331e565b919050555060008054906101000a900473ffffffffffffffffffffffffffffffffffffffff1673ffffffffffffffffffffffffffffffffffffffff163373ffffffffffffffffffffffffffffffffffffffff1614611adf576040517f08c379a0000000000000000000000000000000000000000000000000000000008152600401611ad690613393565b60405180910390fd5b6000600160008381526020019081526020016000206000015403611b38576040517f08c379a0000000000000000000000000000000000000000000000000000000008152600401611b2f90612e53565b60405180910390fd5b600160008281526020019081526020016000206000808201600090556001820160006101000a81549060ff0219169055600282016000611b789190611ca3565b6003820160006101000a81549073ffffffffffffffffffffffffffffffffffffffff0219169055600482016000611baf9190611ce3565b60058201600090556006820160009055505050565b6040518060e001604052806000815260200160001515815260200160608152602001600073ffffffffffffffffffffffffffffffffffffffff1681526020016060815260200160008152602001600081525090565b828054828255906000526020600020908101928215611c92579160200282015b82811115611c915782518260006101000a81548173ffffffffffffffffffffffffffffffffffffffff021916908373ffffffffffffffffffffffffffffffffffffffff16021790555091602001919060010190611c39565b5b509050611c9f9190611d04565b5090565b508054611caf90612f0e565b6000825580601f10611cc15750611ce0565b601f016020900490600052602060002090810190611cdf9190611d04565b5b50565b5080546000825590600052602060002090810190611d019190611d04565b50565b5b80821115611d1d576000816000905550600101611d05565b5090565b6000604051905090565b600080fd5b600080fd5b6000819050919050565b611d4881611d35565b8114611d5357600080fd5b50565b600081359050611d6581611d3f565b92915050565b600060208284031215611d8157611d80611d2b565b5b6000611d8f84828501611d56565b91505092915050565b600073ffffffffffffffffffffffffffffffffffffffff82169050919050565b6000611dc382611d98565b9050919050565b611dd381611db8565b82525050565b6000602082019050611dee6000830184611dca565b92915050565b611dfd81611d35565b82525050565b6000602082019050611e186000830184611df4565b92915050565b611e2781611db8565b8114611e3257600080fd5b50565b600081359050611e4481611e1e565b92915050565b600060208284031215611e6057611e5f611d2b565b5b6000611e6e84828501611e35565b91505092915050565b60008115159050919050565b611e8c81611e77565b82525050565b6000602082019050611ea76000830184611e83565b92915050565b60008060408385031215611ec457611ec3611d2b565b5b6000611ed285828601611d56565b9250506020611ee385828601611e35565b9150509250929050565b600081519050919050565b600082825260208201905092915050565b6000819050602082019050919050565b611f2281611d35565b82525050565b611f3181611e77565b82525050565b600081519050919050565b600082825260208201905092915050565b60005b83811015611f71578082015181840152602081019050611f56565b60008484015250505050565b6000601f19601f8301169050919050565b6000611f9982611f37565b611fa38185611f42565b9350611fb3818560208601611f53565b611fbc81611f7d565b840191505092915050565b611fd081611db8565b82525050565b600081519050919050565b600082825260208201905092915050565b6000819050602082019050919050565b600061200e8383611fc7565b60208301905092915050565b6000602082019050919050565b600061203282611fd6565b61203c8185611fe1565b935061204783611ff2565b8060005b8381101561207857815161205f8882612002565b975061206a8361201a565b92505060018101905061204b565b5085935050505092915050565b600060e08301600083015161209d6000860182611f19565b5060208301516120b06020860182611f28565b50604083015184820360408601526120c88282611f8e565b91505060608301516120dd6060860182611fc7565b50608083015184820360808601526120f58282612027565b91505060a083015161210a60a0860182611f19565b5060c083015161211d60c0860182611f19565b508091505092915050565b60006121348383612085565b905092915050565b6000602082019050919050565b600061215482611eed565b61215e8185611ef8565b93508360208202850161217085611f09565b8060005b858110156121ac578484038952815161218d8582612128565b94506121988361213c565b925060208a01995050600181019050612174565b50829750879550505050505092915050565b600060208201905081810360008301526121d88184612149565b905092915050565b600081519050919050565b600082825260208201905092915050565b6000819050602082019050919050565b60a0820160008201516122226000850182611f19565b5060208201516122356020850182611fc7565b5060408201516122486040850182611f19565b50606082015161225b6060850182611f28565b50608082015161226e6080850182611f28565b50505050565b6000612280838361220c565b60a08301905092915050565b6000602082019050919050565b60006122a4826121e0565b6122ae81856121eb565b93506122b9836121fc565b8060005b838110156122ea5781516122d18882612274565b97506122dc8361228c565b9250506001810190506122bd565b5085935050505092915050565b600060208201905081810360008301526123118184612299565b905092915050565b600082825260208201905092915050565b600061233582611fd6565b61233f8185612319565b935061234a83611ff2565b8060005b8381101561237b5781516123628882612002565b975061236d8361201a565b92505060018101905061234e565b5085935050505092915050565b600060408201905061239d6000830185611dca565b81810360208301526123af818461232a565b90509392505050565b600080fd5b600080fd5b7f4e487b7100000000000000000000000000000000000000000000000000000000600052604160045260246000fd5b6123fa82611f7d565b810181811067ffffffffffffffff82111715612419576124186123c2565b5b80604052505050565b600061242c611d21565b905061243882826123f1565b919050565b600067ffffffffffffffff821115612458576124576123c2565b5b61246182611f7d565b9050602081019050919050565b82818337600083830152505050565b600061249061248b8461243d565b612422565b9050828152602081018484840111156124ac576124ab6123bd565b5b6124b784828561246e565b509392505050565b600082601f8301126124d4576124d36123b8565b5b81356124e484826020860161247d565b91505092915050565b6000806040838503121561250457612503611d2b565b5b600061251285828601611d56565b925050602083013567ffffffffffffffff81111561253357612532611d30565b5b61253f858286016124bf565b9150509250929050565b600080604083850312156125605761255f611d2b565b5b600061256e85828601611e35565b925050602061257f85828601611d56565b9150509250929050565b600082825260208201905092915050565b60006125a582611f37565b6125af8185612589565b93506125bf818560208601611f53565b6125c881611f7d565b840191505092915050565b600060c0820190506125e86000830189611df4565b6125f56020830188611e83565b8181036040830152612607818761259a565b90506126166060830186611dca565b6126236080830185611df4565b61263060a0830184611df4565b979650505050505050565b600060e0830160008301516126536000860182611f19565b5060208301516126666020860182611f28565b506040830151848203604086015261267e8282611f8e565b91505060608301516126936060860182611fc7565b50608083015184820360808601526126ab8282612027565b91505060a08301516126c060a0860182611f19565b5060c08301516126d360c0860182611f19565b508091505092915050565b600060208201905081810360008301526126f8818461263b565b905092915050565b60006020828403121561271657612715611d2b565b5b600082013567ffffffffffffffff81111561273457612733611d30565b5b612740848285016124bf565b91505092915050565b7f4f6e6c792061646d696e732063616e20706572666f726d20746869732061637460008201527f696f6e0000000000000000000000000000000000000000000000000000000000602082015250565b60006127a5602383612589565b91506127b082612749565b604082019050919050565b600060208201905081810360008301526127d481612798565b9050919050565b7f4c616e6420616c726561647920617070726f76656420627920676f7665726e6d60008201527f656e740000000000000000000000000000000000000000000000000000000000602082015250565b6000612837602383612589565b9150612842826127db565b604082019050919050565b600060208201905081810360008301526128668161282a565b9050919050565b7f4f6e6c79207468652063757272656e74206f776e65722063616e207472616e7360008201527f666572206f776e65727368697000000000000000000000000000000000000000602082015250565b60006128c9602d83612589565b91506128d48261286d565b604082019050919050565b600060208201905081810360008301526128f8816128bc565b9050919050565b7f4e487b7100000000000000000000000000000000000000000000000000000000600052603260045260246000fd5b7f546865726520697320616c726561647920612070656e64696e67207472616e7360008201527f666572207265717565737420666f722074686973206c616e6400000000000000602082015250565b600061298a603983612589565b91506129958261292e565b604082019050919050565b600060208201905081810360008301526129b98161297d565b9050919050565b7f4e487b7100000000000000000000000000000000000000000000000000000000600052601160045260246000fd5b60006129fa82611d35565b91507fffffffffffffffffffffffffffffffffffffffffffffffffffffffffffffffff8203612a2c57612a2b6129c0565b5b600182019050919050565b7f4f6e6c792074686520636f6e7472616374206f776e65722063616e207065726660008201527f6f726d207468697320616374696f6e0000000000000000000000000000000000602082015250565b6000612a93602f83612589565b9150612a9e82612a37565b604082019050919050565b60006020820190508181036000830152612ac281612a86565b9050919050565b7f54686973206c616e6420646f65736e2774206578697374000000000000000000600082015250565b6000612aff601783612589565b9150612b0a82612ac9565b602082019050919050565b60006020820190508181036000830152612b2e81612af2565b9050919050565b7f5468657265206973206e6f2070656e64696e67207472616e736665722072657160008201527f7565737420666f722074686973206c616e640000000000000000000000000000602082015250565b6000612b91603283612589565b9150612b9c82612b35565b604082019050919050565b60006020820190508181036000830152612bc081612b84565b9050919050565b7f43757272656e74206f776e657220686173206e6f7420617070726f766564207460008201527f686973207472616e736665722072657175657374000000000000000000000000602082015250565b6000612c23603483612589565b9150612c2e82612bc7565b604082019050919050565b60006020820190508181036000830152612c5281612c16565b9050919050565b7f54686973207472616e7366657220726571756573742068617320616c7265616460008201527f79206265656e20617070726f76656420627920616e2061646d696e2075736572602082015250565b6000612cb5604083612589565b9150612cc082612c59565b604082019050919050565b60006020820190508181036000830152612ce481612ca8565b9050919050565b600081549050919050565b60008190508160005260206000209050919050565b60008160001c9050919050565b600073ffffffffffffffffffffffffffffffffffffffff82169050919050565b6000612d4b612d4683612d0b565b612d18565b9050919050565b6000612d5e8254612d38565b9050919050565b6000600182019050919050565b6000612d7d82612ceb565b612d878185612319565b9350612d9283612cf6565b8060005b83811015612dca57612da782612d52565b612db18882612002565b9750612dbc83612d65565b925050600181019050612d96565b5085935050505092915050565b60006040820190508181036000830152612df18185612d72565b9050612e006020830184611dca565b9392505050565b7f4c616e642077697468207468697320494420646f6573206e6f74206578697374600082015250565b6000612e3d602083612589565b9150612e4882612e07565b602082019050919050565b60006020820190508181036000830152612e6c81612e30565b9050919050565b7f4f6e6c79206c616e64206f776e65722063616e20757064617465206c616e6400600082015250565b6000612ea9601f83612589565b9150612eb482612e73565b602082019050919050565b60006020820190508181036000830152612ed881612e9c565b9050919050565b7f4e487b7100000000000000000000000000000000000000000000000000000000600052602260045260246000fd5b60006002820490506001821680612f2657607f821691505b602082108103612f3957612f38612edf565b5b50919050565b60008190508160005260206000209050919050565b60006020601f8301049050919050565b600082821b905092915050565b600060088302612fa17fffffffffffffffffffffffffffffffffffffffffffffffffffffffffffffffff82612f64565b612fab8683612f64565b95508019841693508086168417925050509392505050565b6000819050919050565b6000612fe8612fe3612fde84611d35565b612fc3565b611d35565b9050919050565b6000819050919050565b61300283612fcd565b61301661300e82612fef565b848454612f71565b825550505050565b600090565b61302b61301e565b613036818484612ff9565b505050565b5b8181101561305a5761304f600082613023565b60018101905061303c565b5050565b601f82111561309f5761307081612f3f565b61307984612f54565b81016020851015613088578190505b61309c61309485612f54565b83018261303b565b50505b505050565b600082821c905092915050565b60006130c2600019846008026130a4565b1980831691505092915050565b60006130db83836130b1565b9150826002028217905092915050565b6130f482611f37565b67ffffffffffffffff81111561310d5761310c6123c2565b5b6131178254612f0e565b61312282828561305e565b600060209050601f8311600181146131555760008415613143578287015190505b61314d85826130cf565b8655506131b5565b601f19841661316386612f3f565b60005b8281101561318b57848901518255600182019150602085019450602081019050613166565b868310156131a857848901516131a4601f8916826130b1565b8355505b6001600288020188555050505b505050505050565b60008160601b9050919050565b60006131d5826131bd565b9050919050565b60006131e7826131ca565b9050919050565b6131ff6131fa82611db8565b6131dc565b82525050565b6000819050919050565b61322061321b82611d35565b613205565b82525050565b600061323282856131ee565b601482019150613242828461320f565b6020820191508190509392505050565b7f4e487b7100000000000000000000000000000000000000000000000000000000600052601260045260246000fd5b600061328c82611d35565b915061329783611d35565b9250826132a7576132a6613252565b5b828206905092915050565b7f4c616e642077697468207468697320494420616c726561647920657869737473600082015250565b60006132e8602083612589565b91506132f3826132b2565b602082019050919050565b60006020820190508181036000830152613317816132db565b9050919050565b600061332982611d35565b91506000820361333c5761333b6129c0565b5b600182039050919050565b7f4f6e6c79206f776e65722063616e2064656c657465206c616e64000000000000600082015250565b600061337d601a83612589565b915061338882613347565b602082019050919050565b600060208201905081810360008301526133ac81613370565b905091905056fea2646970667358221220cdd718093ecb38c2f7bdb6a30cb37a7047b51f581ad9f4a3c8cdf0ebcf03a50364736f6c63430008130033",
  "immutableReferences": {},
  "source": "// SPDX-License-Identifier: MIT\n\npragma solidity ^0.8.0;\n\ncontract LandRegistrationSystem {\n    struct Land {\n        uint256 land_id;\n        bool is_govt_approved;\n        string ipfsHash;\n        address current_owner;\n        address[] previous_owners;\n        uint256 created_at;\n        uint256 approved_at;\n    }\n\n    struct TransferRequestTrack {\n        uint256 created_at;\n        address new_owner;\n        uint256 land_id;\n        bool owner_approved;\n        bool govt_approved;\n    }\n\n    address public owner;\n    mapping(uint256 => Land) public lands;\n    mapping(address => bool) public isAdmin;\n    mapping(uint256 => address) public transferRequests;\n    mapping(address => TransferRequestTrack[]) userTransferRequests;\n    mapping(address => uint256[]) public userLandIds; // Keep track of land IDs owned by each use\n    mapping(uint256 => mapping(address => bool)) public transferApprovals;\n\n    event LandOwnershipTransferred(\n        uint256 indexed landId,\n        address[] previousOwners,\n        address newOwner\n    );\n    event LandCreated(uint256 indexed landId, address newOwner);\n\n    uint256 public totalLands;\n\n    modifier onlyAdmin() {\n        require(isAdmin[msg.sender], \"Only admins can perform this action\");\n        _;\n    }\n\n    modifier onlyOwner() {\n        require(\n            msg.sender == owner,\n            \"Only the contract owner can perform this action\"\n        );\n        _;\n    }\n\n    constructor() {\n        owner = msg.sender;\n    }\n\n    function addAdmin(address _admin) public onlyOwner {\n        isAdmin[_admin] = true;\n    }\n\n    function registerLand(string memory ipfsHash) public {\n        uint256 landId = uint256(\n            keccak256(abi.encodePacked(msg.sender, block.timestamp))\n        ) % 10000000000;\n        require(lands[landId].land_id == 0, \"Land with this ID already exists\");\n\n        lands[landId] = Land({\n            land_id: landId,\n            is_govt_approved: false,\n            ipfsHash: ipfsHash,\n            current_owner: msg.sender,\n            previous_owners: new address[](0),\n            created_at: block.timestamp,\n            approved_at: 0\n        });\n\n        // Add the land ID to the user's list of owned land IDs\n        userLandIds[msg.sender].push(landId);\n\n        totalLands++;\n\n        emit LandCreated(landId, msg.sender);\n    }\n\n    function getLand(uint256 landId) public view returns (Land memory) {\n        require(lands[landId].land_id != 0, \"Land with this ID does not exist\");\n\n        return\n            Land({\n                land_id: landId,\n                is_govt_approved: lands[landId].is_govt_approved,\n                ipfsHash: lands[landId].ipfsHash,\n                current_owner: lands[landId].current_owner,\n                previous_owners: lands[landId].previous_owners,\n                created_at: lands[landId].created_at,\n                approved_at: lands[landId].approved_at\n            });\n\n        // return data;\n    }\n\n    function updateLand(uint256 landId, string memory newIpfsHash1) public {\n        require(lands[landId].land_id != 0, \"Land with this ID does not exist\");\n        require(\n            msg.sender == lands[landId].current_owner,\n            \"Only land owner can update land\"\n        );\n        lands[landId].ipfsHash = newIpfsHash1;\n    }\n\n    function deleteLand(uint256 landId) public {\n        totalLands--;\n        require(msg.sender == owner, \"Only owner can delete land\");\n        require(lands[landId].land_id != 0, \"Land with this ID does not exist\");\n\n        delete lands[landId];\n    }\n\n    function approveLand(uint256 _landId) public onlyAdmin {\n        require(\n            lands[_landId].is_govt_approved == false,\n            \"Land already approved by government\"\n        );\n\n        lands[_landId].is_govt_approved = true;\n        lands[_landId].approved_at = block.timestamp;\n    }\n\n    function createTransferRequest(uint256 landId, address newOwner) public {\n        Land storage land = lands[landId];\n        require(\n            land.current_owner == msg.sender,\n            \"Only the current owner can transfer ownership\"\n        );\n\n        TransferRequestTrack[] memory userTransfers = userTransferRequests[\n            msg.sender\n        ];\n        for (uint256 i = 0; i < userTransfers.length; i++) {\n            if (userTransfers[i].land_id == landId) {\n                require(\n                    userTransfers[i].land_id != landId,\n                    \"There is already a pending transfer request for this land\"\n                );\n            }\n        }\n\n        userTransferRequests[msg.sender].push(\n            TransferRequestTrack({\n                land_id: landId,\n                new_owner: newOwner,\n                owner_approved: true,\n                govt_approved: false,\n                created_at: block.timestamp\n            })\n        );\n    }\n\n    function approveTransferRequest(\n        uint256 landId,\n        address currentOwner\n    ) public onlyAdmin {\n        Land storage land = lands[landId];\n        require(land.land_id == landId, \"This land doesn't exist\");\n\n        TransferRequestTrack[] memory userTransfers = userTransferRequests[\n            currentOwner\n        ];\n        for (uint256 i = 0; i < userTransfers.length; i++) {\n            if (userTransfers[i].land_id == landId) {\n                require(\n                    userTransfers[i].land_id == landId,\n                    \"There is no pending transfer request for this land\"\n                );\n                require(\n                    userTransfers[i].owner_approved == true,\n                    \"Current owner has not approved this transfer request\"\n                );\n                require(\n                    userTransfers[i].govt_approved == false,\n                    \"This transfer request has already been approved by an admin user\"\n                );\n\n                userTransferRequests[msg.sender][i].govt_approved = true;\n                emit LandOwnershipTransferred(\n                    landId,\n                    lands[landId].previous_owners,\n                    land.current_owner\n                );\n            }\n        }\n    }\n\n    function getLandOwners(\n        uint256 landId\n    )\n        public\n        view\n        returns (address currentOwner, address[] memory previousOwners)\n    {\n        currentOwner = lands[landId].current_owner;\n        previousOwners = lands[landId].previous_owners;\n    }\n\n    function getOwnedLands() public view returns (Land[] memory) {\n        uint256 landCount = userLandIds[msg.sender].length;\n        Land[] memory ownedLands = new Land[](landCount);\n        uint256 index = 0;\n        for (uint256 i = 0; i < landCount; i++) {\n            uint256 landId = userLandIds[msg.sender][i];\n            if (lands[landId].current_owner == msg.sender) {\n                ownedLands[index] = getLand(landId);\n                index++;\n            }\n        }\n\n        return ownedLands;\n    }\n\n    function getTransferredLands()\n        public\n        view\n        returns (TransferRequestTrack[] memory)\n    {\n        TransferRequestTrack[] memory response = userTransferRequests[\n            msg.sender\n        ];\n\n        return response;\n    }\n}\n",
  "sourcePath": "/Users/olayiwola/Documents/dev/verifiland/contracts/LandRegistrationSystem.sol",
  "compiler": {
    "name": "solc",
    "version": "0.8.19+commit.7dd6d404.Emscripten.clang"
  },
  "schemaVersion": "3.4.13",
  "updatedAt": "2023-03-25T16:31:43.638Z",
  "networkType": "ethereum",
  "devdoc": {
    "kind": "dev",
    "methods": {},
    "version": 1
  },
  "userdoc": {
    "kind": "user",
    "methods": {},
    "version": 1
  }
}