{
  "contractName": "LandRegistrationSystem",
  "abi": [
    {
      "inputs": [],
      "stateMutability": "nonpayable",
      "type": "constructor"
    },
    {
      "anonymous": false,
      "inputs": [
        {
          "indexed": true,
          "internalType": "uint256",
          "name": "landId",
          "type": "uint256"
        },
        {
          "indexed": false,
          "internalType": "address",
          "name": "newOwner",
          "type": "address"
        }
      ],
      "name": "LandCreated",
      "type": "event"
    },
    {
      "anonymous": false,
      "inputs": [
        {
          "indexed": true,
          "internalType": "uint256",
          "name": "landId",
          "type": "uint256"
        },
        {
          "indexed": false,
          "internalType": "address[]",
          "name": "previousOwners",
          "type": "address[]"
        },
        {
          "indexed": false,
          "internalType": "address",
          "name": "newOwner",
          "type": "address"
        }
      ],
      "name": "LandOwnershipTransferred",
      "type": "event"
    },
    {
      "inputs": [
        {
          "internalType": "address",
          "name": "",
          "type": "address"
        }
      ],
      "name": "isAdmin",
      "outputs": [
        {
          "internalType": "bool",
          "name": "",
          "type": "bool"
        }
      ],
      "stateMutability": "view",
      "type": "function",
      "constant": true
    },
    {
      "inputs": [
        {
          "internalType": "uint256",
          "name": "",
          "type": "uint256"
        }
      ],
      "name": "lands",
      "outputs": [
        {
          "internalType": "uint256",
          "name": "land_id",
          "type": "uint256"
        },
        {
          "internalType": "bool",
          "name": "is_govt_approved",
          "type": "bool"
        },
        {
          "internalType": "string",
          "name": "ipfsHash",
          "type": "string"
        },
        {
          "internalType": "address",
          "name": "current_owner",
          "type": "address"
        }
      ],
      "stateMutability": "view",
      "type": "function",
      "constant": true
    },
    {
      "inputs": [],
      "name": "owner",
      "outputs": [
        {
          "internalType": "address",
          "name": "",
          "type": "address"
        }
      ],
      "stateMutability": "view",
      "type": "function",
      "constant": true
    },
    {
      "inputs": [
        {
          "internalType": "uint256",
          "name": "",
          "type": "uint256"
        },
        {
          "internalType": "address",
          "name": "",
          "type": "address"
        }
      ],
      "name": "transferApprovals",
      "outputs": [
        {
          "internalType": "bool",
          "name": "",
          "type": "bool"
        }
      ],
      "stateMutability": "view",
      "type": "function",
      "constant": true
    },
    {
      "inputs": [
        {
          "internalType": "uint256",
          "name": "",
          "type": "uint256"
        }
      ],
      "name": "transferRequests",
      "outputs": [
        {
          "internalType": "address",
          "name": "",
          "type": "address"
        }
      ],
      "stateMutability": "view",
      "type": "function",
      "constant": true
    },
    {
      "inputs": [
        {
          "internalType": "string",
          "name": "ipfsHash",
          "type": "string"
        }
      ],
      "name": "registerLand",
      "outputs": [],
      "stateMutability": "nonpayable",
      "type": "function"
    },
    {
      "inputs": [
        {
          "internalType": "uint256",
          "name": "landId",
          "type": "uint256"
        }
      ],
      "name": "getLand",
      "outputs": [
        {
          "components": [
            {
              "internalType": "uint256",
              "name": "land_id",
              "type": "uint256"
            },
            {
              "internalType": "bool",
              "name": "is_govt_approved",
              "type": "bool"
            },
            {
              "internalType": "string",
              "name": "ipfsHash",
              "type": "string"
            },
            {
              "internalType": "address",
              "name": "current_owner",
              "type": "address"
            },
            {
              "internalType": "address[]",
              "name": "previous_owners",
              "type": "address[]"
            }
          ],
          "internalType": "struct LandRegistrationSystem.Land",
          "name": "",
          "type": "tuple"
        }
      ],
      "stateMutability": "view",
      "type": "function",
      "constant": true
    },
    {
      "inputs": [
        {
          "internalType": "uint256",
          "name": "landId",
          "type": "uint256"
        },
        {
          "internalType": "bool",
          "name": "newIsGovtApproved",
          "type": "bool"
        },
        {
          "internalType": "string",
          "name": "newIpfsHash1",
          "type": "string"
        }
      ],
      "name": "updateLand",
      "outputs": [],
      "stateMutability": "nonpayable",
      "type": "function"
    },
    {
      "inputs": [
        {
          "internalType": "uint256",
          "name": "landId",
          "type": "uint256"
        }
      ],
      "name": "deleteLand",
      "outputs": [],
      "stateMutability": "nonpayable",
      "type": "function"
    },
    {
      "inputs": [
        {
          "internalType": "uint256",
          "name": "landId",
          "type": "uint256"
        },
        {
          "internalType": "address",
          "name": "newOwner",
          "type": "address"
        }
      ],
      "name": "transferOwnership",
      "outputs": [],
      "stateMutability": "nonpayable",
      "type": "function"
    },
    {
      "inputs": [
        {
          "internalType": "uint256",
          "name": "_landId",
          "type": "uint256"
        }
      ],
      "name": "approveLand",
      "outputs": [],
      "stateMutability": "nonpayable",
      "type": "function"
    },
    {
      "inputs": [
        {
          "internalType": "uint256",
          "name": "landId",
          "type": "uint256"
        },
        {
          "internalType": "address",
          "name": "newOwner",
          "type": "address"
        }
      ],
      "name": "createTransferRequest",
      "outputs": [],
      "stateMutability": "nonpayable",
      "type": "function"
    },
    {
      "inputs": [
        {
          "internalType": "uint256",
          "name": "landId",
          "type": "uint256"
        },
        {
          "internalType": "address",
          "name": "currentOwner",
          "type": "address"
        }
      ],
      "name": "approveTransferRequest",
      "outputs": [],
      "stateMutability": "nonpayable",
      "type": "function"
    },
    {
      "inputs": [
        {
          "internalType": "uint256",
          "name": "landId",
          "type": "uint256"
        }
      ],
      "name": "getLandOwners",
      "outputs": [
        {
          "internalType": "address",
          "name": "currentOwner",
          "type": "address"
        },
        {
          "internalType": "address[]",
          "name": "previousOwners",
          "type": "address[]"
        }
      ],
      "stateMutability": "view",
      "type": "function",
      "constant": true
    }
  ],
  "bytecode": "0x608060405234801561001057600080fd5b50336000806101000a81548173ffffffffffffffffffffffffffffffffffffffff021916908373ffffffffffffffffffffffffffffffffffffffff16021790555061292a806100606000396000f3fe608060405234801561001057600080fd5b50600436106100ea5760003560e01c80638da5cb5b1161008c578063e261f1e511610066578063e261f1e51461025a578063f02dd53f1461028d578063fbed216b146102bd578063fd9b2c8d146102d9576100ea565b80638da5cb5b14610204578063926eeb3014610222578063b780f1081461023e576100ea565b806338c887b2116100c857806338c887b21461016b5780634e4dd230146101875780635eabce0f146101a357806366269bfc146101d3576100ea565b806303486c40146100ef57806324d7806c1461011f57806329507f731461014f575b600080fd5b61010960048036038101906101049190611797565b6102f5565b6040516101169190611805565b60405180910390f35b6101396004803603810190610134919061184c565b610328565b6040516101469190611894565b60405180910390f35b610169600480360381019061016491906118af565b610348565b005b61018560048036038101906101809190611797565b610541565b005b6101a1600480360381019061019c91906118af565b610668565b005b6101bd60048036038101906101b891906118af565b610873565b6040516101ca9190611894565b60405180910390f35b6101ed60048036038101906101e89190611797565b6108a2565b6040516101fb9291906119ad565b60405180910390f35b61020c610981565b6040516102199190611805565b60405180910390f35b61023c600480360381019061023791906118af565b6109a5565b005b61025860048036038101906102539190611b4f565b610e12565b005b610274600480360381019061026f9190611797565b610f66565b6040516102849493929190611c4c565b60405180910390f35b6102a760048036038101906102a29190611797565b61104b565b6040516102b49190611dec565b60405180910390f35b6102d760048036038101906102d29190611e0e565b611283565b005b6102f360048036038101906102ee9190611797565b61149b565b005b60036020528060005260406000206000915054906101000a900473ffffffffffffffffffffffffffffffffffffffff1681565b60026020528060005260406000206000915054906101000a900460ff1681565b6001600083815260200190815260200160002060030160009054906101000a900473ffffffffffffffffffffffffffffffffffffffff1673ffffffffffffffffffffffffffffffffffffffff163373ffffffffffffffffffffffffffffffffffffffff16146103ec576040517f08c379a00000000000000000000000000000000000000000000000000000000081526004016103e390611ec9565b60405180910390fd5b600160008381526020019081526020016000206004016001600084815260200190815260200160002060030160009054906101000a900473ffffffffffffffffffffffffffffffffffffffff169080600181540180825580915050600190039060005260206000200160009091909190916101000a81548173ffffffffffffffffffffffffffffffffffffffff021916908373ffffffffffffffffffffffffffffffffffffffff160217905550806001600084815260200190815260200160002060030160006101000a81548173ffffffffffffffffffffffffffffffffffffffff021916908373ffffffffffffffffffffffffffffffffffffffff160217905550817f95a86ff9580f7df077cb15f95dac46778559065f03f97c11b5c3000491da9a3d6001600085815260200190815260200160002060040183604051610535929190611fd5565b60405180910390a25050565b600260003373ffffffffffffffffffffffffffffffffffffffff1673ffffffffffffffffffffffffffffffffffffffff16815260200190815260200160002060009054906101000a900460ff166105cd576040517f08c379a00000000000000000000000000000000000000000000000000000000081526004016105c490612077565b60405180910390fd5b600015156001600083815260200190815260200160002060010160009054906101000a900460ff16151514610637576040517f08c379a000000000000000000000000000000000000000000000000000000000815260040161062e90612109565b60405180910390fd5b600180600083815260200190815260200160002060010160006101000a81548160ff02191690831515021790555050565b60006001600084815260200190815260200160002090503373ffffffffffffffffffffffffffffffffffffffff168160030160009054906101000a900473ffffffffffffffffffffffffffffffffffffffff1673ffffffffffffffffffffffffffffffffffffffff1614610711576040517f08c379a000000000000000000000000000000000000000000000000000000000815260040161070890611ec9565b60405180910390fd5b600073ffffffffffffffffffffffffffffffffffffffff166003600085815260200190815260200160002060009054906101000a900473ffffffffffffffffffffffffffffffffffffffff1673ffffffffffffffffffffffffffffffffffffffff16146107b3576040517f08c379a00000000000000000000000000000000000000000000000000000000081526004016107aa9061219b565b60405180910390fd5b816003600085815260200190815260200160002060006101000a81548173ffffffffffffffffffffffffffffffffffffffff021916908373ffffffffffffffffffffffffffffffffffffffff16021790555060016004600085815260200190815260200160002060003373ffffffffffffffffffffffffffffffffffffffff1673ffffffffffffffffffffffffffffffffffffffff16815260200190815260200160002060006101000a81548160ff021916908315150217905550505050565b60046020528160005260406000206020528060005260406000206000915091509054906101000a900460ff1681565b600060606001600084815260200190815260200160002060030160009054906101000a900473ffffffffffffffffffffffffffffffffffffffff1691506001600084815260200190815260200160002060040180548060200260200160405190810160405280929190818152602001828054801561097557602002820191906000526020600020905b8160009054906101000a900473ffffffffffffffffffffffffffffffffffffffff1673ffffffffffffffffffffffffffffffffffffffff168152602001906001019080831161092b575b50505050509050915091565b60008054906101000a900473ffffffffffffffffffffffffffffffffffffffff1681565b600260003373ffffffffffffffffffffffffffffffffffffffff1673ffffffffffffffffffffffffffffffffffffffff16815260200190815260200160002060009054906101000a900460ff16610a31576040517f08c379a0000000000000000000000000000000000000000000000000000000008152600401610a2890612077565b60405180910390fd5b6000600160008481526020019081526020016000209050600073ffffffffffffffffffffffffffffffffffffffff166003600085815260200190815260200160002060009054906101000a900473ffffffffffffffffffffffffffffffffffffffff1673ffffffffffffffffffffffffffffffffffffffff1603610aea576040517f08c379a0000000000000000000000000000000000000000000000000000000008152600401610ae19061222d565b60405180910390fd5b600115156004600085815260200190815260200160002060008473ffffffffffffffffffffffffffffffffffffffff1673ffffffffffffffffffffffffffffffffffffffff16815260200190815260200160002060009054906101000a900460ff16151514610b8e576040517f08c379a0000000000000000000000000000000000000000000000000000000008152600401610b85906122bf565b60405180910390fd5b600015156004600085815260200190815260200160002060003373ffffffffffffffffffffffffffffffffffffffff1673ffffffffffffffffffffffffffffffffffffffff16815260200190815260200160002060009054906101000a900460ff16151514610c32576040517f08c379a0000000000000000000000000000000000000000000000000000000008152600401610c2990612351565b60405180910390fd5b806004018160030160009054906101000a900473ffffffffffffffffffffffffffffffffffffffff169080600181540180825580915050600190039060005260206000200160009091909190916101000a81548173ffffffffffffffffffffffffffffffffffffffff021916908373ffffffffffffffffffffffffffffffffffffffff1602179055506003600084815260200190815260200160002060009054906101000a900473ffffffffffffffffffffffffffffffffffffffff168160030160006101000a81548173ffffffffffffffffffffffffffffffffffffffff021916908373ffffffffffffffffffffffffffffffffffffffff160217905550827f95a86ff9580f7df077cb15f95dac46778559065f03f97c11b5c3000491da9a3d600160008681526020019081526020016000206004018360030160009054906101000a900473ffffffffffffffffffffffffffffffffffffffff16604051610d9c929190611fd5565b60405180910390a260016004600085815260200190815260200160002060003373ffffffffffffffffffffffffffffffffffffffff1673ffffffffffffffffffffffffffffffffffffffff16815260200190815260200160002060006101000a81548160ff021916908315150217905550505050565b6000600160008581526020019081526020016000206000015403610e6b576040517f08c379a0000000000000000000000000000000000000000000000000000000008152600401610e62906123bd565b60405180910390fd5b6001600084815260200190815260200160002060030160009054906101000a900473ffffffffffffffffffffffffffffffffffffffff1673ffffffffffffffffffffffffffffffffffffffff163373ffffffffffffffffffffffffffffffffffffffff1614610f0f576040517f08c379a0000000000000000000000000000000000000000000000000000000008152600401610f0690612429565b60405180910390fd5b816001600085815260200190815260200160002060010160006101000a81548160ff02191690831515021790555080600160008581526020019081526020016000206002019081610f609190612655565b50505050565b60016020528060005260406000206000915090508060000154908060010160009054906101000a900460ff1690806002018054610fa290612478565b80601f0160208091040260200160405190810160405280929190818152602001828054610fce90612478565b801561101b5780601f10610ff05761010080835404028352916020019161101b565b820191906000526020600020905b815481529060010190602001808311610ffe57829003601f168201915b5050505050908060030160009054906101000a900473ffffffffffffffffffffffffffffffffffffffff16905084565b6110536115fe565b60006001600084815260200190815260200160002060000154036110ac576040517f08c379a00000000000000000000000000000000000000000000000000000000081526004016110a3906123bd565b60405180910390fd5b6040518060a001604052808381526020016001600085815260200190815260200160002060010160009054906101000a900460ff161515815260200160016000858152602001908152602001600020600201805461110990612478565b80601f016020809104026020016040519081016040528092919081815260200182805461113590612478565b80156111825780601f1061115757610100808354040283529160200191611182565b820191906000526020600020905b81548152906001019060200180831161116557829003601f168201915b505050505081526020016001600085815260200190815260200160002060030160009054906101000a900473ffffffffffffffffffffffffffffffffffffffff1673ffffffffffffffffffffffffffffffffffffffff1681526020016001600085815260200190815260200160002060040180548060200260200160405190810160405280929190818152602001828054801561127457602002820191906000526020600020905b8160009054906101000a900473ffffffffffffffffffffffffffffffffffffffff1673ffffffffffffffffffffffffffffffffffffffff168152602001906001019080831161122a575b50505050508152509050919050565b60006402540be400334260405160200161129e929190612790565b6040516020818303038152906040528051906020012060001c6112c191906127eb565b9050600060016000838152602001908152602001600020600001541461131c576040517f08c379a000000000000000000000000000000000000000000000000000000000815260040161131390612868565b60405180910390fd5b6040518060a001604052808281526020016000151581526020018381526020013373ffffffffffffffffffffffffffffffffffffffff168152602001600067ffffffffffffffff81111561137357611372611a24565b5b6040519080825280602002602001820160405280156113a15781602001602082028036833780820191505090505b50815250600160008381526020019081526020016000206000820151816000015560208201518160010160006101000a81548160ff02191690831515021790555060408201518160020190816113f79190612655565b5060608201518160030160006101000a81548173ffffffffffffffffffffffffffffffffffffffff021916908373ffffffffffffffffffffffffffffffffffffffff160217905550608082015181600401908051906020019061145b929190611645565b50905050807f9057270c8b8ada5482b02b2e8c27f21fcc080f96b61e960d87ca6a101bffb6423360405161148f9190611805565b60405180910390a25050565b60008054906101000a900473ffffffffffffffffffffffffffffffffffffffff1673ffffffffffffffffffffffffffffffffffffffff163373ffffffffffffffffffffffffffffffffffffffff1614611529576040517f08c379a0000000000000000000000000000000000000000000000000000000008152600401611520906128d4565b60405180910390fd5b6000600160008381526020019081526020016000206000015403611582576040517f08c379a0000000000000000000000000000000000000000000000000000000008152600401611579906123bd565b60405180910390fd5b600160008281526020019081526020016000206000808201600090556001820160006101000a81549060ff02191690556002820160006115c291906116cf565b6003820160006101000a81549073ffffffffffffffffffffffffffffffffffffffff02191690556004820160006115f9919061170f565b505050565b6040518060a001604052806000815260200160001515815260200160608152602001600073ffffffffffffffffffffffffffffffffffffffff168152602001606081525090565b8280548282559060005260206000209081019282156116be579160200282015b828111156116bd5782518260006101000a81548173ffffffffffffffffffffffffffffffffffffffff021916908373ffffffffffffffffffffffffffffffffffffffff16021790555091602001919060010190611665565b5b5090506116cb9190611730565b5090565b5080546116db90612478565b6000825580601f106116ed575061170c565b601f01602090049060005260206000209081019061170b9190611730565b5b50565b508054600082559060005260206000209081019061172d9190611730565b50565b5b80821115611749576000816000905550600101611731565b5090565b6000604051905090565b600080fd5b600080fd5b6000819050919050565b61177481611761565b811461177f57600080fd5b50565b6000813590506117918161176b565b92915050565b6000602082840312156117ad576117ac611757565b5b60006117bb84828501611782565b91505092915050565b600073ffffffffffffffffffffffffffffffffffffffff82169050919050565b60006117ef826117c4565b9050919050565b6117ff816117e4565b82525050565b600060208201905061181a60008301846117f6565b92915050565b611829816117e4565b811461183457600080fd5b50565b60008135905061184681611820565b92915050565b60006020828403121561186257611861611757565b5b600061187084828501611837565b91505092915050565b60008115159050919050565b61188e81611879565b82525050565b60006020820190506118a96000830184611885565b92915050565b600080604083850312156118c6576118c5611757565b5b60006118d485828601611782565b92505060206118e585828601611837565b9150509250929050565b600081519050919050565b600082825260208201905092915050565b6000819050602082019050919050565b611924816117e4565b82525050565b6000611936838361191b565b60208301905092915050565b6000602082019050919050565b600061195a826118ef565b61196481856118fa565b935061196f8361190b565b8060005b838110156119a0578151611987888261192a565b975061199283611942565b925050600181019050611973565b5085935050505092915050565b60006040820190506119c260008301856117f6565b81810360208301526119d4818461194f565b90509392505050565b6119e681611879565b81146119f157600080fd5b50565b600081359050611a03816119dd565b92915050565b600080fd5b600080fd5b6000601f19601f8301169050919050565b7f4e487b7100000000000000000000000000000000000000000000000000000000600052604160045260246000fd5b611a5c82611a13565b810181811067ffffffffffffffff82111715611a7b57611a7a611a24565b5b80604052505050565b6000611a8e61174d565b9050611a9a8282611a53565b919050565b600067ffffffffffffffff821115611aba57611ab9611a24565b5b611ac382611a13565b9050602081019050919050565b82818337600083830152505050565b6000611af2611aed84611a9f565b611a84565b905082815260208101848484011115611b0e57611b0d611a0e565b5b611b19848285611ad0565b509392505050565b600082601f830112611b3657611b35611a09565b5b8135611b46848260208601611adf565b91505092915050565b600080600060608486031215611b6857611b67611757565b5b6000611b7686828701611782565b9350506020611b87868287016119f4565b925050604084013567ffffffffffffffff811115611ba857611ba761175c565b5b611bb486828701611b21565b9150509250925092565b611bc781611761565b82525050565b600081519050919050565b600082825260208201905092915050565b60005b83811015611c07578082015181840152602081019050611bec565b60008484015250505050565b6000611c1e82611bcd565b611c288185611bd8565b9350611c38818560208601611be9565b611c4181611a13565b840191505092915050565b6000608082019050611c616000830187611bbe565b611c6e6020830186611885565b8181036040830152611c808185611c13565b9050611c8f60608301846117f6565b95945050505050565b611ca181611761565b82525050565b611cb081611879565b82525050565b600082825260208201905092915050565b6000611cd282611bcd565b611cdc8185611cb6565b9350611cec818560208601611be9565b611cf581611a13565b840191505092915050565b600082825260208201905092915050565b6000611d1c826118ef565b611d268185611d00565b9350611d318361190b565b8060005b83811015611d62578151611d49888261192a565b9750611d5483611942565b925050600181019050611d35565b5085935050505092915050565b600060a083016000830151611d876000860182611c98565b506020830151611d9a6020860182611ca7565b5060408301518482036040860152611db28282611cc7565b9150506060830151611dc7606086018261191b565b5060808301518482036080860152611ddf8282611d11565b9150508091505092915050565b60006020820190508181036000830152611e068184611d6f565b905092915050565b600060208284031215611e2457611e23611757565b5b600082013567ffffffffffffffff811115611e4257611e4161175c565b5b611e4e84828501611b21565b91505092915050565b7f4f6e6c79207468652063757272656e74206f776e65722063616e207472616e7360008201527f666572206f776e65727368697000000000000000000000000000000000000000602082015250565b6000611eb3602d83611bd8565b9150611ebe82611e57565b604082019050919050565b60006020820190508181036000830152611ee281611ea6565b9050919050565b600081549050919050565b60008190508160005260206000209050919050565b60008160001c9050919050565b600073ffffffffffffffffffffffffffffffffffffffff82169050919050565b6000611f49611f4483611f09565b611f16565b9050919050565b6000611f5c8254611f36565b9050919050565b6000600182019050919050565b6000611f7b82611ee9565b611f8581856118fa565b9350611f9083611ef4565b8060005b83811015611fc857611fa582611f50565b611faf888261192a565b9750611fba83611f63565b925050600181019050611f94565b5085935050505092915050565b60006040820190508181036000830152611fef8185611f70565b9050611ffe60208301846117f6565b9392505050565b7f4f6e6c792061646d696e732063616e20706572666f726d20746869732061637460008201527f696f6e0000000000000000000000000000000000000000000000000000000000602082015250565b6000612061602383611bd8565b915061206c82612005565b604082019050919050565b6000602082019050818103600083015261209081612054565b9050919050565b7f4c616e6420616c726561647920617070726f76656420627920676f7665726e6d60008201527f656e740000000000000000000000000000000000000000000000000000000000602082015250565b60006120f3602383611bd8565b91506120fe82612097565b604082019050919050565b60006020820190508181036000830152612122816120e6565b9050919050565b7f546865726520697320616c726561647920612070656e64696e67207472616e7360008201527f666572207265717565737420666f722074686973206c616e6400000000000000602082015250565b6000612185603983611bd8565b915061219082612129565b604082019050919050565b600060208201905081810360008301526121b481612178565b9050919050565b7f5468657265206973206e6f2070656e64696e67207472616e736665722072657160008201527f7565737420666f722074686973206c616e640000000000000000000000000000602082015250565b6000612217603283611bd8565b9150612222826121bb565b604082019050919050565b600060208201905081810360008301526122468161220a565b9050919050565b7f43757272656e74206f776e657220686173206e6f7420617070726f766564207460008201527f686973207472616e736665722072657175657374000000000000000000000000602082015250565b60006122a9603483611bd8565b91506122b48261224d565b604082019050919050565b600060208201905081810360008301526122d88161229c565b9050919050565b7f54686973207472616e7366657220726571756573742068617320616c7265616460008201527f79206265656e20617070726f76656420627920616e2061646d696e2075736572602082015250565b600061233b604083611bd8565b9150612346826122df565b604082019050919050565b6000602082019050818103600083015261236a8161232e565b9050919050565b7f4c616e642077697468207468697320494420646f6573206e6f74206578697374600082015250565b60006123a7602083611bd8565b91506123b282612371565b602082019050919050565b600060208201905081810360008301526123d68161239a565b9050919050565b7f4f6e6c79206c616e64206f776e65722063616e20757064617465206c616e6400600082015250565b6000612413601f83611bd8565b915061241e826123dd565b602082019050919050565b6000602082019050818103600083015261244281612406565b9050919050565b7f4e487b7100000000000000000000000000000000000000000000000000000000600052602260045260246000fd5b6000600282049050600182168061249057607f821691505b6020821081036124a3576124a2612449565b5b50919050565b60008190508160005260206000209050919050565b60006020601f8301049050919050565b600082821b905092915050565b60006008830261250b7fffffffffffffffffffffffffffffffffffffffffffffffffffffffffffffffff826124ce565b61251586836124ce565b95508019841693508086168417925050509392505050565b6000819050919050565b600061255261254d61254884611761565b61252d565b611761565b9050919050565b6000819050919050565b61256c83612537565b61258061257882612559565b8484546124db565b825550505050565b600090565b612595612588565b6125a0818484612563565b505050565b5b818110156125c4576125b960008261258d565b6001810190506125a6565b5050565b601f821115612609576125da816124a9565b6125e3846124be565b810160208510156125f2578190505b6126066125fe856124be565b8301826125a5565b50505b505050565b600082821c905092915050565b600061262c6000198460080261260e565b1980831691505092915050565b6000612645838361261b565b9150826002028217905092915050565b61265e82611bcd565b67ffffffffffffffff81111561267757612676611a24565b5b6126818254612478565b61268c8282856125c8565b600060209050601f8311600181146126bf57600084156126ad578287015190505b6126b78582612639565b86555061271f565b601f1984166126cd866124a9565b60005b828110156126f5578489015182556001820191506020850194506020810190506126d0565b86831015612712578489015161270e601f89168261261b565b8355505b6001600288020188555050505b505050505050565b60008160601b9050919050565b600061273f82612727565b9050919050565b600061275182612734565b9050919050565b612769612764826117e4565b612746565b82525050565b6000819050919050565b61278a61278582611761565b61276f565b82525050565b600061279c8285612758565b6014820191506127ac8284612779565b6020820191508190509392505050565b7f4e487b7100000000000000000000000000000000000000000000000000000000600052601260045260246000fd5b60006127f682611761565b915061280183611761565b925082612811576128106127bc565b5b828206905092915050565b7f4c616e642077697468207468697320494420616c726561647920657869737473600082015250565b6000612852602083611bd8565b915061285d8261281c565b602082019050919050565b6000602082019050818103600083015261288181612845565b9050919050565b7f4f6e6c79206f776e65722063616e2064656c657465206c616e64000000000000600082015250565b60006128be601a83611bd8565b91506128c982612888565b602082019050919050565b600060208201905081810360008301526128ed816128b1565b905091905056fea2646970667358221220bd67b4db84d5fb024a1967219951ae1b6c4371345d1f3b5414f2b31e9da3435f64736f6c63430008130033",
  "immutableReferences": {},
  "source": "// SPDX-License-Identifier: MIT\n\npragma solidity ^0.8.0;\n\ncontract LandRegistrationSystem {\n    struct Land {\n        uint256 land_id;\n        bool is_govt_approved;\n        string ipfsHash;\n        address current_owner;\n        address[] previous_owners;\n    }\n\n    address public owner;\n    mapping(uint256 => Land) public lands;\n    mapping(address => bool) public isAdmin;\n    mapping(uint256 => address) public transferRequests;\n    mapping(uint256 => mapping(address => bool)) public transferApprovals;\n\n    event LandOwnershipTransferred(\n        uint256 indexed landId,\n        address[] previousOwners,\n        address newOwner\n    );\n    event LandCreated(uint256 indexed landId, address newOwner);\n\n    modifier onlyAdmin() {\n        require(isAdmin[msg.sender], \"Only admins can perform this action\");\n        _;\n    }\n\n    constructor() {\n        owner = msg.sender;\n    }\n\n    function registerLand(string memory ipfsHash) public {\n        uint256 landId = uint256(\n            keccak256(abi.encodePacked(msg.sender, block.timestamp))\n        ) % 10000000000;\n        require(lands[landId].land_id == 0, \"Land with this ID already exists\");\n\n        lands[landId] = Land({\n            land_id: landId,\n            is_govt_approved: false,\n            ipfsHash: ipfsHash,\n            current_owner: msg.sender,\n            previous_owners: new address[](0)\n        });\n\n        emit LandCreated(landId, msg.sender);\n    }\n\n    function getLand(uint256 landId) public view returns (Land memory) {\n        require(lands[landId].land_id != 0, \"Land with this ID does not exist\");\n\n        return\n            Land({\n                land_id: landId,\n                is_govt_approved: lands[landId].is_govt_approved,\n                ipfsHash: lands[landId].ipfsHash,\n                current_owner: lands[landId].current_owner,\n                previous_owners: lands[landId].previous_owners\n            });\n\n        // return data;\n    }\n\n    function updateLand(\n        uint256 landId,\n        bool newIsGovtApproved,\n        string memory newIpfsHash1\n    ) public {\n        require(lands[landId].land_id != 0, \"Land with this ID does not exist\");\n        require(\n            msg.sender == lands[landId].current_owner,\n            \"Only land owner can update land\"\n        );\n        lands[landId].is_govt_approved = newIsGovtApproved;\n        lands[landId].ipfsHash = newIpfsHash1;\n    }\n\n    function deleteLand(uint256 landId) public {\n        require(msg.sender == owner, \"Only owner can delete land\");\n        require(lands[landId].land_id != 0, \"Land with this ID does not exist\");\n\n        delete lands[landId];\n    }\n\n    function transferOwnership(uint256 landId, address newOwner) public {\n        require(\n            msg.sender == lands[landId].current_owner,\n            \"Only the current owner can transfer ownership\"\n        );\n\n        lands[landId].previous_owners.push(lands[landId].current_owner);\n        lands[landId].current_owner = newOwner;\n\n        emit LandOwnershipTransferred(\n            landId,\n            lands[landId].previous_owners,\n            newOwner\n        );\n    }\n\n    function approveLand(uint256 _landId) public onlyAdmin {\n        require(\n            lands[_landId].is_govt_approved == false,\n            \"Land already approved by government\"\n        );\n\n        lands[_landId].is_govt_approved = true;\n    }\n\n    function createTransferRequest(uint256 landId, address newOwner) public {\n        Land storage land = lands[landId];\n        require(\n            land.current_owner == msg.sender,\n            \"Only the current owner can transfer ownership\"\n        );\n        require(\n            transferRequests[landId] == address(0),\n            \"There is already a pending transfer request for this land\"\n        );\n        transferRequests[landId] = newOwner;\n        transferApprovals[landId][msg.sender] = true;\n    }\n\n    function approveTransferRequest(\n        uint256 landId,\n        address currentOwner\n    ) public onlyAdmin {\n        Land storage land = lands[landId];\n        require(\n            transferRequests[landId] != address(0),\n            \"There is no pending transfer request for this land\"\n        );\n        require(\n            transferApprovals[landId][currentOwner] == true,\n            \"Current owner has not approved this transfer request\"\n        );\n        require(\n            transferApprovals[landId][msg.sender] == false,\n            \"This transfer request has already been approved by an admin user\"\n        );\n        land.previous_owners.push(land.current_owner);\n        land.current_owner = transferRequests[landId];\n        emit LandOwnershipTransferred(\n            landId,\n            lands[landId].previous_owners,\n            land.current_owner\n        );\n        transferApprovals[landId][msg.sender] = true;\n    }\n\n    function getLandOwners(\n        uint256 landId\n    )\n        public\n        view\n        returns (address currentOwner, address[] memory previousOwners)\n    {\n        currentOwner = lands[landId].current_owner;\n        previousOwners = lands[landId].previous_owners;\n    }\n}\n",
  "sourcePath": "/Users/olayiwola/Documents/dev/verifiland/contracts/LandRegistrationSystem.sol",
  "compiler": {
    "name": "solc",
    "version": "0.8.19+commit.7dd6d404.Emscripten.clang"
  },
  "schemaVersion": "3.4.13",
  "updatedAt": "2023-03-24T00:38:50.226Z",
  "networkType": "ethereum",
  "devdoc": {
    "kind": "dev",
    "methods": {},
    "version": 1
  },
  "userdoc": {
    "kind": "user",
    "methods": {},
    "version": 1
  }
}