{
  "contractName": "LandRegistrationSystem",
  "abi": [
    {
      "inputs": [],
      "stateMutability": "nonpayable",
      "type": "constructor"
    },
    {
      "anonymous": false,
      "inputs": [
        {
          "indexed": true,
          "internalType": "uint256",
          "name": "landId",
          "type": "uint256"
        },
        {
          "indexed": false,
          "internalType": "address",
          "name": "newOwner",
          "type": "address"
        }
      ],
      "name": "LandCreated",
      "type": "event"
    },
    {
      "anonymous": false,
      "inputs": [
        {
          "indexed": true,
          "internalType": "uint256",
          "name": "landId",
          "type": "uint256"
        },
        {
          "indexed": false,
          "internalType": "address[]",
          "name": "previousOwners",
          "type": "address[]"
        },
        {
          "indexed": false,
          "internalType": "address",
          "name": "newOwner",
          "type": "address"
        }
      ],
      "name": "LandOwnershipTransferred",
      "type": "event"
    },
    {
      "inputs": [
        {
          "internalType": "uint256",
          "name": "",
          "type": "uint256"
        }
      ],
      "name": "lands",
      "outputs": [
        {
          "internalType": "uint256",
          "name": "land_id",
          "type": "uint256"
        },
        {
          "internalType": "bool",
          "name": "is_govt_approved",
          "type": "bool"
        },
        {
          "internalType": "string",
          "name": "ipfsHash",
          "type": "string"
        },
        {
          "internalType": "address",
          "name": "current_owner",
          "type": "address"
        },
        {
          "internalType": "uint256",
          "name": "created_at",
          "type": "uint256"
        },
        {
          "internalType": "uint256",
          "name": "approved_at",
          "type": "uint256"
        }
      ],
      "stateMutability": "view",
      "type": "function",
      "constant": true
    },
    {
      "inputs": [],
      "name": "totalLands",
      "outputs": [
        {
          "internalType": "uint256",
          "name": "",
          "type": "uint256"
        }
      ],
      "stateMutability": "view",
      "type": "function",
      "constant": true
    },
    {
      "inputs": [
        {
          "internalType": "address",
          "name": "",
          "type": "address"
        },
        {
          "internalType": "uint256",
          "name": "",
          "type": "uint256"
        }
      ],
      "name": "userLandIds",
      "outputs": [
        {
          "internalType": "uint256",
          "name": "",
          "type": "uint256"
        }
      ],
      "stateMutability": "view",
      "type": "function",
      "constant": true
    },
    {
      "inputs": [
        {
          "internalType": "address",
          "name": "_admin",
          "type": "address"
        }
      ],
      "name": "addAdmin",
      "outputs": [],
      "stateMutability": "nonpayable",
      "type": "function"
    },
    {
      "inputs": [
        {
          "internalType": "string",
          "name": "ipfsHash",
          "type": "string"
        }
      ],
      "name": "registerLand",
      "outputs": [],
      "stateMutability": "nonpayable",
      "type": "function"
    },
    {
      "inputs": [
        {
          "internalType": "uint256",
          "name": "landId",
          "type": "uint256"
        }
      ],
      "name": "getLand",
      "outputs": [
        {
          "components": [
            {
              "internalType": "uint256",
              "name": "land_id",
              "type": "uint256"
            },
            {
              "internalType": "bool",
              "name": "is_govt_approved",
              "type": "bool"
            },
            {
              "internalType": "string",
              "name": "ipfsHash",
              "type": "string"
            },
            {
              "internalType": "address",
              "name": "current_owner",
              "type": "address"
            },
            {
              "internalType": "address[]",
              "name": "previous_owners",
              "type": "address[]"
            },
            {
              "internalType": "uint256",
              "name": "created_at",
              "type": "uint256"
            },
            {
              "internalType": "uint256",
              "name": "approved_at",
              "type": "uint256"
            }
          ],
          "internalType": "struct LandRegistrationSystem.Land",
          "name": "",
          "type": "tuple"
        }
      ],
      "stateMutability": "view",
      "type": "function",
      "constant": true
    },
    {
      "inputs": [
        {
          "internalType": "uint256",
          "name": "landId",
          "type": "uint256"
        },
        {
          "internalType": "string",
          "name": "newIpfsHash1",
          "type": "string"
        }
      ],
      "name": "updateLand",
      "outputs": [],
      "stateMutability": "nonpayable",
      "type": "function"
    },
    {
      "inputs": [
        {
          "internalType": "uint256",
          "name": "landId",
          "type": "uint256"
        }
      ],
      "name": "deleteLand",
      "outputs": [],
      "stateMutability": "nonpayable",
      "type": "function"
    },
    {
      "inputs": [
        {
          "internalType": "uint256",
          "name": "_landId",
          "type": "uint256"
        }
      ],
      "name": "approveLand",
      "outputs": [],
      "stateMutability": "nonpayable",
      "type": "function"
    },
    {
      "inputs": [
        {
          "internalType": "uint256",
          "name": "landId",
          "type": "uint256"
        },
        {
          "internalType": "address",
          "name": "newOwner",
          "type": "address"
        }
      ],
      "name": "createTransferRequest",
      "outputs": [],
      "stateMutability": "nonpayable",
      "type": "function"
    },
    {
      "inputs": [
        {
          "internalType": "uint256",
          "name": "landId",
          "type": "uint256"
        },
        {
          "internalType": "address",
          "name": "currentOwner",
          "type": "address"
        }
      ],
      "name": "approveTransferRequest",
      "outputs": [
        {
          "internalType": "bool",
          "name": "",
          "type": "bool"
        }
      ],
      "stateMutability": "nonpayable",
      "type": "function"
    },
    {
      "inputs": [
        {
          "internalType": "uint256",
          "name": "landId",
          "type": "uint256"
        }
      ],
      "name": "getLandOwners",
      "outputs": [
        {
          "internalType": "address",
          "name": "currentOwner",
          "type": "address"
        },
        {
          "internalType": "address[]",
          "name": "previousOwners",
          "type": "address[]"
        }
      ],
      "stateMutability": "view",
      "type": "function",
      "constant": true
    },
    {
      "inputs": [],
      "name": "getOwnedLands",
      "outputs": [
        {
          "components": [
            {
              "internalType": "uint256",
              "name": "land_id",
              "type": "uint256"
            },
            {
              "internalType": "bool",
              "name": "is_govt_approved",
              "type": "bool"
            },
            {
              "internalType": "string",
              "name": "ipfsHash",
              "type": "string"
            },
            {
              "internalType": "address",
              "name": "current_owner",
              "type": "address"
            },
            {
              "internalType": "address[]",
              "name": "previous_owners",
              "type": "address[]"
            },
            {
              "internalType": "uint256",
              "name": "created_at",
              "type": "uint256"
            },
            {
              "internalType": "uint256",
              "name": "approved_at",
              "type": "uint256"
            }
          ],
          "internalType": "struct LandRegistrationSystem.Land[]",
          "name": "",
          "type": "tuple[]"
        }
      ],
      "stateMutability": "view",
      "type": "function",
      "constant": true
    },
    {
      "inputs": [],
      "name": "getAllLands",
      "outputs": [
        {
          "components": [
            {
              "internalType": "uint256",
              "name": "land_id",
              "type": "uint256"
            },
            {
              "internalType": "bool",
              "name": "is_govt_approved",
              "type": "bool"
            },
            {
              "internalType": "string",
              "name": "ipfsHash",
              "type": "string"
            },
            {
              "internalType": "address",
              "name": "current_owner",
              "type": "address"
            },
            {
              "internalType": "address[]",
              "name": "previous_owners",
              "type": "address[]"
            },
            {
              "internalType": "uint256",
              "name": "created_at",
              "type": "uint256"
            },
            {
              "internalType": "uint256",
              "name": "approved_at",
              "type": "uint256"
            }
          ],
          "internalType": "struct LandRegistrationSystem.Land[]",
          "name": "",
          "type": "tuple[]"
        }
      ],
      "stateMutability": "view",
      "type": "function",
      "constant": true
    },
    {
      "inputs": [],
      "name": "getTransferredLands",
      "outputs": [
        {
          "components": [
            {
              "internalType": "uint256",
              "name": "created_at",
              "type": "uint256"
            },
            {
              "internalType": "uint256",
              "name": "approved_at",
              "type": "uint256"
            },
            {
              "internalType": "address",
              "name": "new_owner",
              "type": "address"
            },
            {
              "internalType": "uint256",
              "name": "land_id",
              "type": "uint256"
            },
            {
              "internalType": "bool",
              "name": "owner_approved",
              "type": "bool"
            },
            {
              "internalType": "bool",
              "name": "govt_approved",
              "type": "bool"
            }
          ],
          "internalType": "struct LandRegistrationSystem.TransferRequestTrack[]",
          "name": "",
          "type": "tuple[]"
        }
      ],
      "stateMutability": "view",
      "type": "function",
      "constant": true
    },
    {
      "inputs": [
        {
          "internalType": "address",
          "name": "req",
          "type": "address"
        }
      ],
      "name": "getAddressTransferredLands",
      "outputs": [
        {
          "components": [
            {
              "internalType": "uint256",
              "name": "created_at",
              "type": "uint256"
            },
            {
              "internalType": "uint256",
              "name": "approved_at",
              "type": "uint256"
            },
            {
              "internalType": "address",
              "name": "new_owner",
              "type": "address"
            },
            {
              "internalType": "uint256",
              "name": "land_id",
              "type": "uint256"
            },
            {
              "internalType": "bool",
              "name": "owner_approved",
              "type": "bool"
            },
            {
              "internalType": "bool",
              "name": "govt_approved",
              "type": "bool"
            }
          ],
          "internalType": "struct LandRegistrationSystem.TransferRequestTrack[]",
          "name": "",
          "type": "tuple[]"
        }
      ],
      "stateMutability": "view",
      "type": "function",
      "constant": true
    }
  ],
  "bytecode": "0x608060405234801561001057600080fd5b50336000806101000a81548173ffffffffffffffffffffffffffffffffffffffff021916908373ffffffffffffffffffffffffffffffffffffffff1602179055506136d0806100606000396000f3fe608060405234801561001057600080fd5b50600436106101005760003560e01c8063926eeb3011610097578063e261f1e511610066578063e261f1e5146102ae578063f02dd53f146102e3578063fbed216b14610313578063fd9b2c8d1461032f57610100565b8063926eeb3014610214578063a18f7d9814610244578063b7b6e54314610260578063cd40dc211461027e57610100565b80635a89c745116100d35780635a89c7451461018b5780635d3d5a17146101a957806366269bfc146101c757806370480275146101f857610100565b80631d8de063146101055780632eab1dbf1461012357806338c887b2146101535780634e4dd2301461016f575b600080fd5b61010d61034b565b60405161011a91906120f8565b60405180910390f35b61013d60048036038101906101389190612185565b610351565b60405161014a9190612315565b60405180910390f35b61016d60048036038101906101689190612363565b61052b565b005b61018960048036038101906101849190612390565b61066e565b005b610193610a5f565b6040516101a09190612674565b60405180910390f35b6101b1610c29565b6040516101be9190612315565b60405180910390f35b6101e160048036038101906101dc9190612363565b610d75565b6040516101ef929190612714565b60405180910390f35b610212600480360381019061020d9190612185565b610e54565b005b61022e60048036038101906102299190612390565b610f3d565b60405161023b9190612753565b60405180910390f35b61025e600480360381019061025991906128a3565b611499565b005b6102686115be565b6040516102759190612674565b60405180910390f35b610298600480360381019061029391906128ff565b611719565b6040516102a591906120f8565b60405180910390f35b6102c860048036038101906102c39190612363565b61174a565b6040516102da96959493929190612989565b60405180910390f35b6102fd60048036038101906102f89190612363565b61183b565b60405161030a9190612a94565b60405180910390f35b61032d60048036038101906103289190612ab6565b611aab565b005b61034960048036038101906103449190612363565b611d73565b005b60065481565b6060600360003373ffffffffffffffffffffffffffffffffffffffff1673ffffffffffffffffffffffffffffffffffffffff16815260200190815260200160002060009054906101000a900460ff166103df576040517f08c379a00000000000000000000000000000000000000000000000000000000081526004016103d690612b71565b60405180910390fd5b6000600460008473ffffffffffffffffffffffffffffffffffffffff1673ffffffffffffffffffffffffffffffffffffffff168152602001908152602001600020805480602002602001604051908101604052809291908181526020016000905b8282101561051c57838290600052602060002090600502016040518060c001604052908160008201548152602001600182015481526020016002820160009054906101000a900473ffffffffffffffffffffffffffffffffffffffff1673ffffffffffffffffffffffffffffffffffffffff1673ffffffffffffffffffffffffffffffffffffffff168152602001600382015481526020016004820160009054906101000a900460ff161515151581526020016004820160019054906101000a900460ff16151515158152505081526020019060010190610440565b50505050905080915050919050565b600360003373ffffffffffffffffffffffffffffffffffffffff1673ffffffffffffffffffffffffffffffffffffffff16815260200190815260200160002060009054906101000a900460ff166105b7576040517f08c379a00000000000000000000000000000000000000000000000000000000081526004016105ae90612b71565b60405180910390fd5b600015156002600083815260200190815260200160002060010160009054906101000a900460ff16151514610621576040517f08c379a000000000000000000000000000000000000000000000000000000000815260040161061890612c03565b60405180910390fd5b60016002600083815260200190815260200160002060010160006101000a81548160ff02191690831515021790555042600260008381526020019081526020016000206006018190555050565b60006002600084815260200190815260200160002090503373ffffffffffffffffffffffffffffffffffffffff168160030160009054906101000a900473ffffffffffffffffffffffffffffffffffffffff1673ffffffffffffffffffffffffffffffffffffffff1614610717576040517f08c379a000000000000000000000000000000000000000000000000000000000815260040161070e90612c95565b60405180910390fd5b6000600460003373ffffffffffffffffffffffffffffffffffffffff1673ffffffffffffffffffffffffffffffffffffffff168152602001908152602001600020805480602002602001604051908101604052809291908181526020016000905b8282101561085457838290600052602060002090600502016040518060c001604052908160008201548152602001600182015481526020016002820160009054906101000a900473ffffffffffffffffffffffffffffffffffffffff1673ffffffffffffffffffffffffffffffffffffffff1673ffffffffffffffffffffffffffffffffffffffff168152602001600382015481526020016004820160009054906101000a900460ff161515151581526020016004820160019054906101000a900460ff16151515158152505081526020019060010190610778565b50505050905060005b81518110156108ff578482828151811061087a57610879612cb5565b5b602002602001015160600151036108ec578482828151811061089f5761089e612cb5565b5b602002602001015160600151036108eb576040517f08c379a00000000000000000000000000000000000000000000000000000000081526004016108e290612d56565b60405180910390fd5b5b80806108f790612da5565b91505061085d565b50600460003373ffffffffffffffffffffffffffffffffffffffff1673ffffffffffffffffffffffffffffffffffffffff1681526020019081526020016000206040518060c00160405280428152602001600081526020018573ffffffffffffffffffffffffffffffffffffffff168152602001868152602001600115158152602001600015158152509080600181540180825580915050600190039060005260206000209060050201600090919091909150600082015181600001556020820151816001015560408201518160020160006101000a81548173ffffffffffffffffffffffffffffffffffffffff021916908373ffffffffffffffffffffffffffffffffffffffff1602179055506060820151816003015560808201518160040160006101000a81548160ff02191690831515021790555060a08201518160040160016101000a81548160ff021916908315150217905550505050505050565b60606000600560003373ffffffffffffffffffffffffffffffffffffffff1673ffffffffffffffffffffffffffffffffffffffff16815260200190815260200160002080549050905060008167ffffffffffffffff811115610ac457610ac3612778565b5b604051908082528060200260200182016040528015610afd57816020015b610aea611f82565b815260200190600190039081610ae25790505b5090506000805b83811015610c1f576000600560003373ffffffffffffffffffffffffffffffffffffffff1673ffffffffffffffffffffffffffffffffffffffff1681526020019081526020016000208281548110610b5f57610b5e612cb5565b5b906000526020600020015490503373ffffffffffffffffffffffffffffffffffffffff166002600083815260200190815260200160002060030160009054906101000a900473ffffffffffffffffffffffffffffffffffffffff1673ffffffffffffffffffffffffffffffffffffffff1603610c0b57610bde8161183b565b848481518110610bf157610bf0612cb5565b5b60200260200101819052508280610c0790612da5565b9350505b508080610c1790612da5565b915050610b04565b5081935050505090565b60606000600460003373ffffffffffffffffffffffffffffffffffffffff1673ffffffffffffffffffffffffffffffffffffffff168152602001908152602001600020805480602002602001604051908101604052809291908181526020016000905b82821015610d6857838290600052602060002090600502016040518060c001604052908160008201548152602001600182015481526020016002820160009054906101000a900473ffffffffffffffffffffffffffffffffffffffff1673ffffffffffffffffffffffffffffffffffffffff1673ffffffffffffffffffffffffffffffffffffffff168152602001600382015481526020016004820160009054906101000a900460ff161515151581526020016004820160019054906101000a900460ff16151515158152505081526020019060010190610c8c565b5050505090508091505090565b600060606002600084815260200190815260200160002060030160009054906101000a900473ffffffffffffffffffffffffffffffffffffffff16915060026000848152602001908152602001600020600401805480602002602001604051908101604052809291908181526020018280548015610e4857602002820191906000526020600020905b8160009054906101000a900473ffffffffffffffffffffffffffffffffffffffff1673ffffffffffffffffffffffffffffffffffffffff1681526020019060010190808311610dfe575b50505050509050915091565b60008054906101000a900473ffffffffffffffffffffffffffffffffffffffff1673ffffffffffffffffffffffffffffffffffffffff163373ffffffffffffffffffffffffffffffffffffffff1614610ee2576040517f08c379a0000000000000000000000000000000000000000000000000000000008152600401610ed990612e5f565b60405180910390fd5b6001600360008373ffffffffffffffffffffffffffffffffffffffff1673ffffffffffffffffffffffffffffffffffffffff16815260200190815260200160002060006101000a81548160ff02191690831515021790555050565b6000600360003373ffffffffffffffffffffffffffffffffffffffff1673ffffffffffffffffffffffffffffffffffffffff16815260200190815260200160002060009054906101000a900460ff16610fcb576040517f08c379a0000000000000000000000000000000000000000000000000000000008152600401610fc290612b71565b60405180910390fd5b600060026000858152602001908152602001600020905083816000015414611028576040517f08c379a000000000000000000000000000000000000000000000000000000000815260040161101f90612ecb565b60405180910390fd5b600115158160010160009054906101000a900460ff16151514611080576040517f08c379a000000000000000000000000000000000000000000000000000000000815260040161107790612f5d565b60405180910390fd5b6000600460008573ffffffffffffffffffffffffffffffffffffffff1673ffffffffffffffffffffffffffffffffffffffff168152602001908152602001600020805480602002602001604051908101604052809291908181526020016000905b828210156111bd57838290600052602060002090600502016040518060c001604052908160008201548152602001600182015481526020016002820160009054906101000a900473ffffffffffffffffffffffffffffffffffffffff1673ffffffffffffffffffffffffffffffffffffffff1673ffffffffffffffffffffffffffffffffffffffff168152602001600382015481526020016004820160009054906101000a900460ff161515151581526020016004820160019054906101000a900460ff161515151581525050815260200190600101906110e1565b50505050905060005b815181101561148b57858282815181106111e3576111e2612cb5565b5b60200260200101516060015114801561121e57506001151582828151811061120e5761120d612cb5565b5b6020026020010151608001511515145b801561124c57506000151582828151811061123c5761123b612cb5565b5b602002602001015160a001511515145b15611478576001600460008773ffffffffffffffffffffffffffffffffffffffff1673ffffffffffffffffffffffffffffffffffffffff16815260200190815260200160002082815481106112a4576112a3612cb5565b5b906000526020600020906005020160040160016101000a81548160ff02191690831515021790555042600460008773ffffffffffffffffffffffffffffffffffffffff1673ffffffffffffffffffffffffffffffffffffffff168152602001908152602001600020828154811061131e5761131d612cb5565b5b906000526020600020906005020160010181905550826004018360030160009054906101000a900473ffffffffffffffffffffffffffffffffffffffff169080600181540180825580915050600190039060005260206000200160009091909190916101000a81548173ffffffffffffffffffffffffffffffffffffffff021916908373ffffffffffffffffffffffffffffffffffffffff1602179055508181815181106113cf576113ce612cb5565b5b6020026020010151604001518360030160006101000a81548173ffffffffffffffffffffffffffffffffffffffff021916908373ffffffffffffffffffffffffffffffffffffffff160217905550857f95a86ff9580f7df077cb15f95dac46778559065f03f97c11b5c3000491da9a3d6002600089815260200190815260200160002060040187604051611464929190613069565b60405180910390a260019350505050611493565b808061148390612da5565b9150506111c6565b506000925050505b92915050565b60006002600084815260200190815260200160002060000154036114f2576040517f08c379a00000000000000000000000000000000000000000000000000000000081526004016114e9906130e5565b60405180910390fd5b6002600083815260200190815260200160002060030160009054906101000a900473ffffffffffffffffffffffffffffffffffffffff1673ffffffffffffffffffffffffffffffffffffffff163373ffffffffffffffffffffffffffffffffffffffff1614611596576040517f08c379a000000000000000000000000000000000000000000000000000000000815260040161158d90613151565b60405180910390fd5b806002600084815260200190815260200160002060020190816115b9919061337d565b505050565b6060600360003373ffffffffffffffffffffffffffffffffffffffff1673ffffffffffffffffffffffffffffffffffffffff16815260200190815260200160002060009054906101000a900460ff1661164c576040517f08c379a000000000000000000000000000000000000000000000000000000000815260040161164390612b71565b60405180910390fd5b600060018054905067ffffffffffffffff81111561166d5761166c612778565b5b6040519080825280602002602001820160405280156116a657816020015b611693611f82565b81526020019060019003908161168b5790505b50905060005b600180549050811015611711576116e0600182815481106116d0576116cf612cb5565b5b906000526020600020015461183b565b8282815181106116f3576116f2612cb5565b5b6020026020010181905250808061170990612da5565b9150506116ac565b508091505090565b6005602052816000526040600020818154811061173557600080fd5b90600052602060002001600091509150505481565b60026020528060005260406000206000915090508060000154908060010160009054906101000a900460ff1690806002018054611786906131a0565b80601f01602080910402602001604051908101604052809291908181526020018280546117b2906131a0565b80156117ff5780601f106117d4576101008083540402835291602001916117ff565b820191906000526020600020905b8154815290600101906020018083116117e257829003601f168201915b5050505050908060030160009054906101000a900473ffffffffffffffffffffffffffffffffffffffff16908060050154908060060154905086565b611843611f82565b600060026000848152602001908152602001600020600001540361189c576040517f08c379a0000000000000000000000000000000000000000000000000000000008152600401611893906130e5565b60405180910390fd5b6040518060e001604052808381526020016002600085815260200190815260200160002060010160009054906101000a900460ff16151581526020016002600085815260200190815260200160002060020180546118f9906131a0565b80601f0160208091040260200160405190810160405280929190818152602001828054611925906131a0565b80156119725780601f1061194757610100808354040283529160200191611972565b820191906000526020600020905b81548152906001019060200180831161195557829003601f168201915b505050505081526020016002600085815260200190815260200160002060030160009054906101000a900473ffffffffffffffffffffffffffffffffffffffff1673ffffffffffffffffffffffffffffffffffffffff16815260200160026000858152602001908152602001600020600401805480602002602001604051908101604052809291908181526020018280548015611a6457602002820191906000526020600020905b8160009054906101000a900473ffffffffffffffffffffffffffffffffffffffff1673ffffffffffffffffffffffffffffffffffffffff1681526020019060010190808311611a1a575b505050505081526020016002600085815260200190815260200160002060050154815260200160026000858152602001908152602001600020600601548152509050919050565b60006402540be4003342604051602001611ac69291906134b8565b6040516020818303038152906040528051906020012060001c611ae99190613513565b90506000600260008381526020019081526020016000206000015414611b44576040517f08c379a0000000000000000000000000000000000000000000000000000000008152600401611b3b90613590565b60405180910390fd5b6040518060e001604052808281526020016000151581526020018381526020013373ffffffffffffffffffffffffffffffffffffffff168152602001600067ffffffffffffffff811115611b9b57611b9a612778565b5b604051908082528060200260200182016040528015611bc95781602001602082028036833780820191505090505b5081526020014281526020016000815250600260008381526020019081526020016000206000820151816000015560208201518160010160006101000a81548160ff0219169083151502179055506040820151816002019081611c2c919061337d565b5060608201518160030160006101000a81548173ffffffffffffffffffffffffffffffffffffffff021916908373ffffffffffffffffffffffffffffffffffffffff1602179055506080820151816004019080519060200190611c90929190611fd7565b5060a0820151816005015560c08201518160060155905050600560003373ffffffffffffffffffffffffffffffffffffffff1673ffffffffffffffffffffffffffffffffffffffff1681526020019081526020016000208190806001815401808255809150506001900390600052602060002001600090919091909150556001819080600181540180825580915050600190039060005260206000200160009091909190915055807f9057270c8b8ada5482b02b2e8c27f21fcc080f96b61e960d87ca6a101bffb64233604051611d6791906135b0565b60405180910390a25050565b60008054906101000a900473ffffffffffffffffffffffffffffffffffffffff1673ffffffffffffffffffffffffffffffffffffffff163373ffffffffffffffffffffffffffffffffffffffff1614611e01576040517f08c379a0000000000000000000000000000000000000000000000000000000008152600401611df890613617565b60405180910390fd5b6000600260008381526020019081526020016000206000015403611e5a576040517f08c379a0000000000000000000000000000000000000000000000000000000008152600401611e51906130e5565b60405180910390fd5b600260008281526020019081526020016000206000808201600090556001820160006101000a81549060ff0219169055600282016000611e9a9190612061565b6003820160006101000a81549073ffffffffffffffffffffffffffffffffffffffff0219169055600482016000611ed191906120a1565b60058201600090556006820160009055505060005b600180549050811015611f56576001808080549050611f059190613637565b81548110611f1657611f15612cb5565b5b906000526020600020015460018281548110611f3557611f34612cb5565b5b90600052602060002001819055508080611f4e90612da5565b915050611ee6565b506001805480611f6957611f6861366b565b5b6001900381819060005260206000200160009055905550565b6040518060e001604052806000815260200160001515815260200160608152602001600073ffffffffffffffffffffffffffffffffffffffff1681526020016060815260200160008152602001600081525090565b828054828255906000526020600020908101928215612050579160200282015b8281111561204f5782518260006101000a81548173ffffffffffffffffffffffffffffffffffffffff021916908373ffffffffffffffffffffffffffffffffffffffff16021790555091602001919060010190611ff7565b5b50905061205d91906120c2565b5090565b50805461206d906131a0565b6000825580601f1061207f575061209e565b601f01602090049060005260206000209081019061209d91906120c2565b5b50565b50805460008255906000526020600020908101906120bf91906120c2565b50565b5b808211156120db5760008160009055506001016120c3565b5090565b6000819050919050565b6120f2816120df565b82525050565b600060208201905061210d60008301846120e9565b92915050565b6000604051905090565b600080fd5b600080fd5b600073ffffffffffffffffffffffffffffffffffffffff82169050919050565b600061215282612127565b9050919050565b61216281612147565b811461216d57600080fd5b50565b60008135905061217f81612159565b92915050565b60006020828403121561219b5761219a61211d565b5b60006121a984828501612170565b91505092915050565b600081519050919050565b600082825260208201905092915050565b6000819050602082019050919050565b6121e7816120df565b82525050565b6121f681612147565b82525050565b60008115159050919050565b612211816121fc565b82525050565b60c08201600082015161222d60008501826121de565b50602082015161224060208501826121de565b50604082015161225360408501826121ed565b50606082015161226660608501826121de565b5060808201516122796080850182612208565b5060a082015161228c60a0850182612208565b50505050565b600061229e8383612217565b60c08301905092915050565b6000602082019050919050565b60006122c2826121b2565b6122cc81856121bd565b93506122d7836121ce565b8060005b838110156123085781516122ef8882612292565b97506122fa836122aa565b9250506001810190506122db565b5085935050505092915050565b6000602082019050818103600083015261232f81846122b7565b905092915050565b612340816120df565b811461234b57600080fd5b50565b60008135905061235d81612337565b92915050565b6000602082840312156123795761237861211d565b5b60006123878482850161234e565b91505092915050565b600080604083850312156123a7576123a661211d565b5b60006123b58582860161234e565b92505060206123c685828601612170565b9150509250929050565b600081519050919050565b600082825260208201905092915050565b6000819050602082019050919050565b600081519050919050565b600082825260208201905092915050565b60005b8381101561243657808201518184015260208101905061241b565b60008484015250505050565b6000601f19601f8301169050919050565b600061245e826123fc565b6124688185612407565b9350612478818560208601612418565b61248181612442565b840191505092915050565b600081519050919050565b600082825260208201905092915050565b6000819050602082019050919050565b60006124c483836121ed565b60208301905092915050565b6000602082019050919050565b60006124e88261248c565b6124f28185612497565b93506124fd836124a8565b8060005b8381101561252e57815161251588826124b8565b9750612520836124d0565b925050600181019050612501565b5085935050505092915050565b600060e08301600083015161255360008601826121de565b5060208301516125666020860182612208565b506040830151848203604086015261257e8282612453565b915050606083015161259360608601826121ed565b50608083015184820360808601526125ab82826124dd565b91505060a08301516125c060a08601826121de565b5060c08301516125d360c08601826121de565b508091505092915050565b60006125ea838361253b565b905092915050565b6000602082019050919050565b600061260a826123d0565b61261481856123db565b935083602082028501612626856123ec565b8060005b85811015612662578484038952815161264385826125de565b945061264e836125f2565b925060208a0199505060018101905061262a565b50829750879550505050505092915050565b6000602082019050818103600083015261268e81846125ff565b905092915050565b61269f81612147565b82525050565b600082825260208201905092915050565b60006126c18261248c565b6126cb81856126a5565b93506126d6836124a8565b8060005b838110156127075781516126ee88826124b8565b97506126f9836124d0565b9250506001810190506126da565b5085935050505092915050565b60006040820190506127296000830185612696565b818103602083015261273b81846126b6565b90509392505050565b61274d816121fc565b82525050565b60006020820190506127686000830184612744565b92915050565b600080fd5b600080fd5b7f4e487b7100000000000000000000000000000000000000000000000000000000600052604160045260246000fd5b6127b082612442565b810181811067ffffffffffffffff821117156127cf576127ce612778565b5b80604052505050565b60006127e2612113565b90506127ee82826127a7565b919050565b600067ffffffffffffffff82111561280e5761280d612778565b5b61281782612442565b9050602081019050919050565b82818337600083830152505050565b6000612846612841846127f3565b6127d8565b90508281526020810184848401111561286257612861612773565b5b61286d848285612824565b509392505050565b600082601f83011261288a5761288961276e565b5b813561289a848260208601612833565b91505092915050565b600080604083850312156128ba576128b961211d565b5b60006128c88582860161234e565b925050602083013567ffffffffffffffff8111156128e9576128e8612122565b5b6128f585828601612875565b9150509250929050565b600080604083850312156129165761291561211d565b5b600061292485828601612170565b92505060206129358582860161234e565b9150509250929050565b600082825260208201905092915050565b600061295b826123fc565b612965818561293f565b9350612975818560208601612418565b61297e81612442565b840191505092915050565b600060c08201905061299e60008301896120e9565b6129ab6020830188612744565b81810360408301526129bd8187612950565b90506129cc6060830186612696565b6129d960808301856120e9565b6129e660a08301846120e9565b979650505050505050565b600060e083016000830151612a0960008601826121de565b506020830151612a1c6020860182612208565b5060408301518482036040860152612a348282612453565b9150506060830151612a4960608601826121ed565b5060808301518482036080860152612a6182826124dd565b91505060a0830151612a7660a08601826121de565b5060c0830151612a8960c08601826121de565b508091505092915050565b60006020820190508181036000830152612aae81846129f1565b905092915050565b600060208284031215612acc57612acb61211d565b5b600082013567ffffffffffffffff811115612aea57612ae9612122565b5b612af684828501612875565b91505092915050565b7f4f6e6c792061646d696e732063616e20706572666f726d20746869732061637460008201527f696f6e0000000000000000000000000000000000000000000000000000000000602082015250565b6000612b5b60238361293f565b9150612b6682612aff565b604082019050919050565b60006020820190508181036000830152612b8a81612b4e565b9050919050565b7f4c616e6420616c726561647920617070726f76656420627920676f7665726e6d60008201527f656e740000000000000000000000000000000000000000000000000000000000602082015250565b6000612bed60238361293f565b9150612bf882612b91565b604082019050919050565b60006020820190508181036000830152612c1c81612be0565b9050919050565b7f4f6e6c79207468652063757272656e74206f776e65722063616e207472616e7360008201527f666572206f776e65727368697000000000000000000000000000000000000000602082015250565b6000612c7f602d8361293f565b9150612c8a82612c23565b604082019050919050565b60006020820190508181036000830152612cae81612c72565b9050919050565b7f4e487b7100000000000000000000000000000000000000000000000000000000600052603260045260246000fd5b7f546865726520697320616c726561647920612070656e64696e67207472616e7360008201527f666572207265717565737420666f722074686973206c616e6400000000000000602082015250565b6000612d4060398361293f565b9150612d4b82612ce4565b604082019050919050565b60006020820190508181036000830152612d6f81612d33565b9050919050565b7f4e487b7100000000000000000000000000000000000000000000000000000000600052601160045260246000fd5b6000612db0826120df565b91507fffffffffffffffffffffffffffffffffffffffffffffffffffffffffffffffff8203612de257612de1612d76565b5b600182019050919050565b7f4f6e6c792074686520636f6e7472616374206f776e65722063616e207065726660008201527f6f726d207468697320616374696f6e0000000000000000000000000000000000602082015250565b6000612e49602f8361293f565b9150612e5482612ded565b604082019050919050565b60006020820190508181036000830152612e7881612e3c565b9050919050565b7f54686973206c616e6420646f65736e2774206578697374000000000000000000600082015250565b6000612eb560178361293f565b9150612ec082612e7f565b602082019050919050565b60006020820190508181036000830152612ee481612ea8565b9050919050565b7f54686973206c616e64206f776e65727368697020686173206e6f74206265656e60008201527f20617070726f7665640000000000000000000000000000000000000000000000602082015250565b6000612f4760298361293f565b9150612f5282612eeb565b604082019050919050565b60006020820190508181036000830152612f7681612f3a565b9050919050565b600081549050919050565b60008190508160005260206000209050919050565b60008160001c9050919050565b600073ffffffffffffffffffffffffffffffffffffffff82169050919050565b6000612fdd612fd883612f9d565b612faa565b9050919050565b6000612ff08254612fca565b9050919050565b6000600182019050919050565b600061300f82612f7d565b61301981856126a5565b935061302483612f88565b8060005b8381101561305c5761303982612fe4565b61304388826124b8565b975061304e83612ff7565b925050600181019050613028565b5085935050505092915050565b600060408201905081810360008301526130838185613004565b90506130926020830184612696565b9392505050565b7f4c616e642077697468207468697320494420646f6573206e6f74206578697374600082015250565b60006130cf60208361293f565b91506130da82613099565b602082019050919050565b600060208201905081810360008301526130fe816130c2565b9050919050565b7f4f6e6c79206c616e64206f776e65722063616e20757064617465206c616e6400600082015250565b600061313b601f8361293f565b915061314682613105565b602082019050919050565b6000602082019050818103600083015261316a8161312e565b9050919050565b7f4e487b7100000000000000000000000000000000000000000000000000000000600052602260045260246000fd5b600060028204905060018216806131b857607f821691505b6020821081036131cb576131ca613171565b5b50919050565b60008190508160005260206000209050919050565b60006020601f8301049050919050565b600082821b905092915050565b6000600883026132337fffffffffffffffffffffffffffffffffffffffffffffffffffffffffffffffff826131f6565b61323d86836131f6565b95508019841693508086168417925050509392505050565b6000819050919050565b600061327a613275613270846120df565b613255565b6120df565b9050919050565b6000819050919050565b6132948361325f565b6132a86132a082613281565b848454613203565b825550505050565b600090565b6132bd6132b0565b6132c881848461328b565b505050565b5b818110156132ec576132e16000826132b5565b6001810190506132ce565b5050565b601f82111561333157613302816131d1565b61330b846131e6565b8101602085101561331a578190505b61332e613326856131e6565b8301826132cd565b50505b505050565b600082821c905092915050565b600061335460001984600802613336565b1980831691505092915050565b600061336d8383613343565b9150826002028217905092915050565b613386826123fc565b67ffffffffffffffff81111561339f5761339e612778565b5b6133a982546131a0565b6133b48282856132f0565b600060209050601f8311600181146133e757600084156133d5578287015190505b6133df8582613361565b865550613447565b601f1984166133f5866131d1565b60005b8281101561341d578489015182556001820191506020850194506020810190506133f8565b8683101561343a5784890151613436601f891682613343565b8355505b6001600288020188555050505b505050505050565b60008160601b9050919050565b60006134678261344f565b9050919050565b60006134798261345c565b9050919050565b61349161348c82612147565b61346e565b82525050565b6000819050919050565b6134b26134ad826120df565b613497565b82525050565b60006134c48285613480565b6014820191506134d482846134a1565b6020820191508190509392505050565b7f4e487b7100000000000000000000000000000000000000000000000000000000600052601260045260246000fd5b600061351e826120df565b9150613529836120df565b925082613539576135386134e4565b5b828206905092915050565b7f4c616e642077697468207468697320494420616c726561647920657869737473600082015250565b600061357a60208361293f565b915061358582613544565b602082019050919050565b600060208201905081810360008301526135a98161356d565b9050919050565b60006020820190506135c56000830184612696565b92915050565b7f4f6e6c79206f776e65722063616e2064656c657465206c616e64000000000000600082015250565b6000613601601a8361293f565b915061360c826135cb565b602082019050919050565b60006020820190508181036000830152613630816135f4565b9050919050565b6000613642826120df565b915061364d836120df565b925082820390508181111561366557613664612d76565b5b92915050565b7f4e487b7100000000000000000000000000000000000000000000000000000000600052603160045260246000fdfea2646970667358221220e355532a3fb9e092eca259006f5a2791f0b32fb44a84966392e2b459a549eb3664736f6c63430008130033",
  "immutableReferences": {},
  "source": "// SPDX-License-Identifier: MIT\n\npragma solidity ^0.8.0;\n\ncontract LandRegistrationSystem {\n    struct Land {\n        uint256 land_id;\n        bool is_govt_approved;\n        string ipfsHash;\n        address current_owner;\n        address[] previous_owners;\n        uint256 created_at;\n        uint256 approved_at;\n    }\n\n    struct TransferRequestTrack {\n        uint256 created_at;\n        uint256 approved_at;\n        address new_owner;\n        uint256 land_id;\n        bool owner_approved;\n        bool govt_approved;\n    }\n\n    address owner;\n    uint256[] landIds;\n    mapping(uint256 => Land) public lands;\n    mapping(address => bool) isAdmin;\n    mapping(address => TransferRequestTrack[]) userTransferRequests;\n    mapping(address => uint256[]) public userLandIds; // Keep track of land IDs owned by each use\n\n    event LandOwnershipTransferred(\n        uint256 indexed landId,\n        address[] previousOwners,\n        address newOwner\n    );\n    event LandCreated(uint256 indexed landId, address newOwner);\n\n    uint256 public totalLands;\n\n    modifier onlyAdmin() {\n        require(isAdmin[msg.sender], \"Only admins can perform this action\");\n        _;\n    }\n\n    modifier onlyOwner() {\n        require(\n            msg.sender == owner,\n            \"Only the contract owner can perform this action\"\n        );\n        _;\n    }\n\n    constructor() {\n        owner = msg.sender;\n    }\n\n    function addAdmin(address _admin) public onlyOwner {\n        isAdmin[_admin] = true;\n    }\n\n    function registerLand(string memory ipfsHash) public {\n        uint256 landId = uint256(\n            keccak256(abi.encodePacked(msg.sender, block.timestamp))\n        ) % 10000000000;\n        require(lands[landId].land_id == 0, \"Land with this ID already exists\");\n\n        lands[landId] = Land({\n            land_id: landId,\n            is_govt_approved: false,\n            ipfsHash: ipfsHash,\n            current_owner: msg.sender,\n            previous_owners: new address[](0),\n            created_at: block.timestamp,\n            approved_at: 0\n        });\n\n        // Add the land ID to the user's list of owned land IDs\n        userLandIds[msg.sender].push(landId);\n        landIds.push(landId);\n\n        emit LandCreated(landId, msg.sender);\n    }\n\n    function getLand(uint256 landId) public view returns (Land memory) {\n        require(lands[landId].land_id != 0, \"Land with this ID does not exist\");\n\n        return\n            Land({\n                land_id: landId,\n                is_govt_approved: lands[landId].is_govt_approved,\n                ipfsHash: lands[landId].ipfsHash,\n                current_owner: lands[landId].current_owner,\n                previous_owners: lands[landId].previous_owners,\n                created_at: lands[landId].created_at,\n                approved_at: lands[landId].approved_at\n            });\n\n        // return data;\n    }\n\n    function updateLand(uint256 landId, string memory newIpfsHash1) public {\n        require(lands[landId].land_id != 0, \"Land with this ID does not exist\");\n        require(\n            msg.sender == lands[landId].current_owner,\n            \"Only land owner can update land\"\n        );\n        lands[landId].ipfsHash = newIpfsHash1;\n    }\n\n    function deleteLand(uint256 landId) public {\n        require(msg.sender == owner, \"Only owner can delete land\");\n        require(lands[landId].land_id != 0, \"Land with this ID does not exist\");\n\n        delete lands[landId];\n\n        for (uint256 i = 0; i < landIds.length; i++) {\n            landIds[i] = landIds[landIds.length - 1];\n        }\n        landIds.pop();\n    }\n\n    function approveLand(uint256 _landId) public onlyAdmin {\n        require(\n            lands[_landId].is_govt_approved == false,\n            \"Land already approved by government\"\n        );\n\n        lands[_landId].is_govt_approved = true;\n        lands[_landId].approved_at = block.timestamp;\n    }\n\n    function createTransferRequest(uint256 landId, address newOwner) public {\n        Land storage land = lands[landId];\n        require(\n            land.current_owner == msg.sender,\n            \"Only the current owner can transfer ownership\"\n        );\n\n        TransferRequestTrack[] memory userTransfers = userTransferRequests[\n            msg.sender\n        ];\n        for (uint256 i = 0; i < userTransfers.length; i++) {\n            if (userTransfers[i].land_id == landId) {\n                require(\n                    userTransfers[i].land_id != landId,\n                    \"There is already a pending transfer request for this land\"\n                );\n            }\n        }\n\n        userTransferRequests[msg.sender].push(\n            TransferRequestTrack({\n                land_id: landId,\n                new_owner: newOwner,\n                owner_approved: true,\n                govt_approved: false,\n                approved_at: 0,\n                created_at: block.timestamp\n            })\n        );\n    }\n\n    function approveTransferRequest(\n        uint256 landId,\n        address currentOwner\n    ) public onlyAdmin returns (bool) {\n        Land storage land = lands[landId];\n        require(land.land_id == landId, \"This land doesn't exist\");\n        require(\n            land.is_govt_approved == true,\n            \"This land ownership has not been approved\"\n        );\n\n        TransferRequestTrack[] memory userTransfers = userTransferRequests[\n            currentOwner\n        ];\n        for (uint256 i = 0; i < userTransfers.length; i++) {\n            if (\n                userTransfers[i].land_id == landId &&\n                userTransfers[i].owner_approved == true &&\n                userTransfers[i].govt_approved == false\n            ) {\n                userTransferRequests[currentOwner][i].govt_approved = true;\n                userTransferRequests[currentOwner][i].approved_at = block\n                    .timestamp;\n                land.previous_owners.push(land.current_owner);\n                land.current_owner = userTransfers[i].new_owner;\n                emit LandOwnershipTransferred(\n                    landId,\n                    lands[landId].previous_owners,\n                    currentOwner\n                );\n\n                return true;\n            }\n        }\n\n        return false;\n    }\n\n    function getLandOwners(\n        uint256 landId\n    )\n        public\n        view\n        returns (address currentOwner, address[] memory previousOwners)\n    {\n        currentOwner = lands[landId].current_owner;\n        previousOwners = lands[landId].previous_owners;\n    }\n\n    function getOwnedLands() public view returns (Land[] memory) {\n        uint256 landCount = userLandIds[msg.sender].length;\n        Land[] memory ownedLands = new Land[](landCount);\n        uint256 index = 0;\n        for (uint256 i = 0; i < landCount; i++) {\n            uint256 landId = userLandIds[msg.sender][i];\n            if (lands[landId].current_owner == msg.sender) {\n                ownedLands[index] = getLand(landId);\n                index++;\n            }\n        }\n\n        return ownedLands;\n    }\n\n    function getAllLands() public view onlyAdmin returns (Land[] memory) {\n        Land[] memory result = new Land[](landIds.length);\n        for (uint256 i; i < landIds.length; i++) {\n            result[i] = getLand(landIds[i]);\n        }\n\n        return result;\n    }\n\n    function getTransferredLands()\n        public\n        view\n        returns (TransferRequestTrack[] memory)\n    {\n        TransferRequestTrack[] memory response = userTransferRequests[\n            msg.sender\n        ];\n\n        return response;\n    }\n\n    function getAddressTransferredLands(\n        address req\n    ) public view onlyAdmin returns (TransferRequestTrack[] memory) {\n        TransferRequestTrack[] memory response = userTransferRequests[req];\n\n        return response;\n    }\n}\n",
  "sourcePath": "/Users/olayiwola/Documents/dev/verifiland/contracts/LandRegistrationSystem.sol",
  "compiler": {
    "name": "solc",
    "version": "0.8.19+commit.7dd6d404.Emscripten.clang"
  },
  "schemaVersion": "3.4.13",
  "updatedAt": "2023-03-26T20:38:27.909Z",
  "networkType": "ethereum",
  "devdoc": {
    "kind": "dev",
    "methods": {},
    "version": 1
  },
  "userdoc": {
    "kind": "user",
    "methods": {},
    "version": 1
  }
}