{
  "contractName": "LandRegistrationSystem",
  "abi": [
    {
      "inputs": [],
      "stateMutability": "nonpayable",
      "type": "constructor"
    },
    {
      "anonymous": false,
      "inputs": [
        {
          "indexed": true,
          "internalType": "uint256",
          "name": "landId",
          "type": "uint256"
        },
        {
          "indexed": false,
          "internalType": "address",
          "name": "newOwner",
          "type": "address"
        }
      ],
      "name": "LandCreated",
      "type": "event"
    },
    {
      "anonymous": false,
      "inputs": [
        {
          "indexed": true,
          "internalType": "uint256",
          "name": "landId",
          "type": "uint256"
        },
        {
          "indexed": false,
          "internalType": "address[]",
          "name": "previousOwners",
          "type": "address[]"
        },
        {
          "indexed": false,
          "internalType": "address",
          "name": "newOwner",
          "type": "address"
        }
      ],
      "name": "LandOwnershipTransferred",
      "type": "event"
    },
    {
      "inputs": [
        {
          "internalType": "address",
          "name": "",
          "type": "address"
        }
      ],
      "name": "isAdmin",
      "outputs": [
        {
          "internalType": "bool",
          "name": "",
          "type": "bool"
        }
      ],
      "stateMutability": "view",
      "type": "function",
      "constant": true
    },
    {
      "inputs": [
        {
          "internalType": "uint256",
          "name": "",
          "type": "uint256"
        }
      ],
      "name": "lands",
      "outputs": [
        {
          "internalType": "uint256",
          "name": "land_id",
          "type": "uint256"
        },
        {
          "internalType": "bool",
          "name": "is_govt_approved",
          "type": "bool"
        },
        {
          "internalType": "string",
          "name": "ipfsHash",
          "type": "string"
        },
        {
          "internalType": "address",
          "name": "current_owner",
          "type": "address"
        }
      ],
      "stateMutability": "view",
      "type": "function",
      "constant": true
    },
    {
      "inputs": [],
      "name": "owner",
      "outputs": [
        {
          "internalType": "address",
          "name": "",
          "type": "address"
        }
      ],
      "stateMutability": "view",
      "type": "function",
      "constant": true
    },
    {
      "inputs": [],
      "name": "totalLands",
      "outputs": [
        {
          "internalType": "uint256",
          "name": "",
          "type": "uint256"
        }
      ],
      "stateMutability": "view",
      "type": "function",
      "constant": true
    },
    {
      "inputs": [
        {
          "internalType": "uint256",
          "name": "",
          "type": "uint256"
        },
        {
          "internalType": "address",
          "name": "",
          "type": "address"
        }
      ],
      "name": "transferApprovals",
      "outputs": [
        {
          "internalType": "bool",
          "name": "",
          "type": "bool"
        }
      ],
      "stateMutability": "view",
      "type": "function",
      "constant": true
    },
    {
      "inputs": [
        {
          "internalType": "uint256",
          "name": "",
          "type": "uint256"
        }
      ],
      "name": "transferRequests",
      "outputs": [
        {
          "internalType": "address",
          "name": "",
          "type": "address"
        }
      ],
      "stateMutability": "view",
      "type": "function",
      "constant": true
    },
    {
      "inputs": [
        {
          "internalType": "address",
          "name": "",
          "type": "address"
        },
        {
          "internalType": "uint256",
          "name": "",
          "type": "uint256"
        }
      ],
      "name": "userLandIds",
      "outputs": [
        {
          "internalType": "uint256",
          "name": "",
          "type": "uint256"
        }
      ],
      "stateMutability": "view",
      "type": "function",
      "constant": true
    },
    {
      "inputs": [
        {
          "internalType": "string",
          "name": "ipfsHash",
          "type": "string"
        }
      ],
      "name": "registerLand",
      "outputs": [],
      "stateMutability": "nonpayable",
      "type": "function"
    },
    {
      "inputs": [
        {
          "internalType": "uint256",
          "name": "landId",
          "type": "uint256"
        }
      ],
      "name": "getLand",
      "outputs": [
        {
          "components": [
            {
              "internalType": "uint256",
              "name": "land_id",
              "type": "uint256"
            },
            {
              "internalType": "bool",
              "name": "is_govt_approved",
              "type": "bool"
            },
            {
              "internalType": "string",
              "name": "ipfsHash",
              "type": "string"
            },
            {
              "internalType": "address",
              "name": "current_owner",
              "type": "address"
            },
            {
              "internalType": "address[]",
              "name": "previous_owners",
              "type": "address[]"
            }
          ],
          "internalType": "struct LandRegistrationSystem.Land",
          "name": "",
          "type": "tuple"
        }
      ],
      "stateMutability": "view",
      "type": "function",
      "constant": true
    },
    {
      "inputs": [
        {
          "internalType": "uint256",
          "name": "landId",
          "type": "uint256"
        },
        {
          "internalType": "bool",
          "name": "newIsGovtApproved",
          "type": "bool"
        },
        {
          "internalType": "string",
          "name": "newIpfsHash1",
          "type": "string"
        }
      ],
      "name": "updateLand",
      "outputs": [],
      "stateMutability": "nonpayable",
      "type": "function"
    },
    {
      "inputs": [
        {
          "internalType": "uint256",
          "name": "landId",
          "type": "uint256"
        }
      ],
      "name": "deleteLand",
      "outputs": [],
      "stateMutability": "nonpayable",
      "type": "function"
    },
    {
      "inputs": [
        {
          "internalType": "uint256",
          "name": "landId",
          "type": "uint256"
        },
        {
          "internalType": "address",
          "name": "newOwner",
          "type": "address"
        }
      ],
      "name": "transferOwnership",
      "outputs": [],
      "stateMutability": "nonpayable",
      "type": "function"
    },
    {
      "inputs": [
        {
          "internalType": "uint256",
          "name": "_landId",
          "type": "uint256"
        }
      ],
      "name": "approveLand",
      "outputs": [],
      "stateMutability": "nonpayable",
      "type": "function"
    },
    {
      "inputs": [
        {
          "internalType": "uint256",
          "name": "landId",
          "type": "uint256"
        },
        {
          "internalType": "address",
          "name": "newOwner",
          "type": "address"
        }
      ],
      "name": "createTransferRequest",
      "outputs": [],
      "stateMutability": "nonpayable",
      "type": "function"
    },
    {
      "inputs": [
        {
          "internalType": "uint256",
          "name": "landId",
          "type": "uint256"
        },
        {
          "internalType": "address",
          "name": "currentOwner",
          "type": "address"
        }
      ],
      "name": "approveTransferRequest",
      "outputs": [],
      "stateMutability": "nonpayable",
      "type": "function"
    },
    {
      "inputs": [
        {
          "internalType": "uint256",
          "name": "landId",
          "type": "uint256"
        }
      ],
      "name": "getLandOwners",
      "outputs": [
        {
          "internalType": "address",
          "name": "currentOwner",
          "type": "address"
        },
        {
          "internalType": "address[]",
          "name": "previousOwners",
          "type": "address[]"
        }
      ],
      "stateMutability": "view",
      "type": "function",
      "constant": true
    },
    {
      "inputs": [],
      "name": "getOwnedLands",
      "outputs": [
        {
          "components": [
            {
              "internalType": "uint256",
              "name": "land_id",
              "type": "uint256"
            },
            {
              "internalType": "bool",
              "name": "is_govt_approved",
              "type": "bool"
            },
            {
              "internalType": "string",
              "name": "ipfsHash",
              "type": "string"
            },
            {
              "internalType": "address",
              "name": "current_owner",
              "type": "address"
            },
            {
              "internalType": "address[]",
              "name": "previous_owners",
              "type": "address[]"
            }
          ],
          "internalType": "struct LandRegistrationSystem.Land[]",
          "name": "",
          "type": "tuple[]"
        }
      ],
      "stateMutability": "view",
      "type": "function",
      "constant": true
    }
  ],
  "bytecode": "0x608060405234801561001057600080fd5b50336000806101000a81548173ffffffffffffffffffffffffffffffffffffffff021916908373ffffffffffffffffffffffffffffffffffffffff160217905550612ed9806100606000396000f3fe608060405234801561001057600080fd5b506004361061010b5760003560e01c806366269bfc116100a2578063cd40dc2111610071578063cd40dc21146102b7578063e261f1e5146102e7578063f02dd53f1461031a578063fbed216b1461034a578063fd9b2c8d146103665761010b565b806366269bfc146102305780638da5cb5b14610261578063926eeb301461027f578063b780f1081461029b5761010b565b806338c887b2116100de57806338c887b2146101aa5780634e4dd230146101c65780635a89c745146101e25780635eabce0f146102005761010b565b806303486c40146101105780631d8de0631461014057806324d7806c1461015e57806329507f731461018e575b600080fd5b61012a60048036038101906101259190611abb565b610382565b6040516101379190611b29565b60405180910390f35b6101486103b5565b6040516101559190611b53565b60405180910390f35b61017860048036038101906101739190611b9a565b6103bb565b6040516101859190611be2565b60405180910390f35b6101a860048036038101906101a39190611bfd565b6103db565b005b6101c460048036038101906101bf9190611abb565b6105d4565b005b6101e060048036038101906101db9190611bfd565b6106fb565b005b6101ea610906565b6040516101f79190611ee8565b60405180910390f35b61021a60048036038101906102159190611bfd565b610ad0565b6040516102279190611be2565b60405180910390f35b61024a60048036038101906102459190611abb565b610aff565b604051610258929190611f79565b60405180910390f35b610269610bde565b6040516102769190611b29565b60405180910390f35b61029960048036038101906102949190611bfd565b610c02565b005b6102b560048036038101906102b0919061210a565b61106f565b005b6102d160048036038101906102cc9190612179565b6111c3565b6040516102de9190611b53565b60405180910390f35b61030160048036038101906102fc9190611abb565b6111f4565b6040516103119493929190612203565b60405180910390f35b610334600480360381019061032f9190611abb565b6112d9565b60405161034191906122cc565b60405180910390f35b610364600480360381019061035f91906122ee565b611511565b005b610380600480360381019061037b9190611abb565b6117a7565b005b60036020528060005260406000206000915054906101000a900473ffffffffffffffffffffffffffffffffffffffff1681565b60065481565b60026020528060005260406000206000915054906101000a900460ff1681565b6001600083815260200190815260200160002060030160009054906101000a900473ffffffffffffffffffffffffffffffffffffffff1673ffffffffffffffffffffffffffffffffffffffff163373ffffffffffffffffffffffffffffffffffffffff161461047f576040517f08c379a0000000000000000000000000000000000000000000000000000000008152600401610476906123a9565b60405180910390fd5b600160008381526020019081526020016000206004016001600084815260200190815260200160002060030160009054906101000a900473ffffffffffffffffffffffffffffffffffffffff169080600181540180825580915050600190039060005260206000200160009091909190916101000a81548173ffffffffffffffffffffffffffffffffffffffff021916908373ffffffffffffffffffffffffffffffffffffffff160217905550806001600084815260200190815260200160002060030160006101000a81548173ffffffffffffffffffffffffffffffffffffffff021916908373ffffffffffffffffffffffffffffffffffffffff160217905550817f95a86ff9580f7df077cb15f95dac46778559065f03f97c11b5c3000491da9a3d60016000858152602001908152602001600020600401836040516105c89291906124b5565b60405180910390a25050565b600260003373ffffffffffffffffffffffffffffffffffffffff1673ffffffffffffffffffffffffffffffffffffffff16815260200190815260200160002060009054906101000a900460ff16610660576040517f08c379a000000000000000000000000000000000000000000000000000000000815260040161065790612557565b60405180910390fd5b600015156001600083815260200190815260200160002060010160009054906101000a900460ff161515146106ca576040517f08c379a00000000000000000000000000000000000000000000000000000000081526004016106c1906125e9565b60405180910390fd5b600180600083815260200190815260200160002060010160006101000a81548160ff02191690831515021790555050565b60006001600084815260200190815260200160002090503373ffffffffffffffffffffffffffffffffffffffff168160030160009054906101000a900473ffffffffffffffffffffffffffffffffffffffff1673ffffffffffffffffffffffffffffffffffffffff16146107a4576040517f08c379a000000000000000000000000000000000000000000000000000000000815260040161079b906123a9565b60405180910390fd5b600073ffffffffffffffffffffffffffffffffffffffff166003600085815260200190815260200160002060009054906101000a900473ffffffffffffffffffffffffffffffffffffffff1673ffffffffffffffffffffffffffffffffffffffff1614610846576040517f08c379a000000000000000000000000000000000000000000000000000000000815260040161083d9061267b565b60405180910390fd5b816003600085815260200190815260200160002060006101000a81548173ffffffffffffffffffffffffffffffffffffffff021916908373ffffffffffffffffffffffffffffffffffffffff16021790555060016005600085815260200190815260200160002060003373ffffffffffffffffffffffffffffffffffffffff1673ffffffffffffffffffffffffffffffffffffffff16815260200190815260200160002060006101000a81548160ff021916908315150217905550505050565b60606000600460003373ffffffffffffffffffffffffffffffffffffffff1673ffffffffffffffffffffffffffffffffffffffff16815260200190815260200160002080549050905060008167ffffffffffffffff81111561096b5761096a611fdf565b5b6040519080825280602002602001820160405280156109a457816020015b610991611922565b8152602001906001900390816109895790505b5090506000805b83811015610ac6576000600460003373ffffffffffffffffffffffffffffffffffffffff1673ffffffffffffffffffffffffffffffffffffffff1681526020019081526020016000208281548110610a0657610a0561269b565b5b906000526020600020015490503373ffffffffffffffffffffffffffffffffffffffff166001600083815260200190815260200160002060030160009054906101000a900473ffffffffffffffffffffffffffffffffffffffff1673ffffffffffffffffffffffffffffffffffffffff1603610ab257610a85816112d9565b848481518110610a9857610a9761269b565b5b60200260200101819052508280610aae906126f9565b9350505b508080610abe906126f9565b9150506109ab565b5081935050505090565b60056020528160005260406000206020528060005260406000206000915091509054906101000a900460ff1681565b600060606001600084815260200190815260200160002060030160009054906101000a900473ffffffffffffffffffffffffffffffffffffffff16915060016000848152602001908152602001600020600401805480602002602001604051908101604052809291908181526020018280548015610bd257602002820191906000526020600020905b8160009054906101000a900473ffffffffffffffffffffffffffffffffffffffff1673ffffffffffffffffffffffffffffffffffffffff1681526020019060010190808311610b88575b50505050509050915091565b60008054906101000a900473ffffffffffffffffffffffffffffffffffffffff1681565b600260003373ffffffffffffffffffffffffffffffffffffffff1673ffffffffffffffffffffffffffffffffffffffff16815260200190815260200160002060009054906101000a900460ff16610c8e576040517f08c379a0000000000000000000000000000000000000000000000000000000008152600401610c8590612557565b60405180910390fd5b6000600160008481526020019081526020016000209050600073ffffffffffffffffffffffffffffffffffffffff166003600085815260200190815260200160002060009054906101000a900473ffffffffffffffffffffffffffffffffffffffff1673ffffffffffffffffffffffffffffffffffffffff1603610d47576040517f08c379a0000000000000000000000000000000000000000000000000000000008152600401610d3e906127b3565b60405180910390fd5b600115156005600085815260200190815260200160002060008473ffffffffffffffffffffffffffffffffffffffff1673ffffffffffffffffffffffffffffffffffffffff16815260200190815260200160002060009054906101000a900460ff16151514610deb576040517f08c379a0000000000000000000000000000000000000000000000000000000008152600401610de290612845565b60405180910390fd5b600015156005600085815260200190815260200160002060003373ffffffffffffffffffffffffffffffffffffffff1673ffffffffffffffffffffffffffffffffffffffff16815260200190815260200160002060009054906101000a900460ff16151514610e8f576040517f08c379a0000000000000000000000000000000000000000000000000000000008152600401610e86906128d7565b60405180910390fd5b806004018160030160009054906101000a900473ffffffffffffffffffffffffffffffffffffffff169080600181540180825580915050600190039060005260206000200160009091909190916101000a81548173ffffffffffffffffffffffffffffffffffffffff021916908373ffffffffffffffffffffffffffffffffffffffff1602179055506003600084815260200190815260200160002060009054906101000a900473ffffffffffffffffffffffffffffffffffffffff168160030160006101000a81548173ffffffffffffffffffffffffffffffffffffffff021916908373ffffffffffffffffffffffffffffffffffffffff160217905550827f95a86ff9580f7df077cb15f95dac46778559065f03f97c11b5c3000491da9a3d600160008681526020019081526020016000206004018360030160009054906101000a900473ffffffffffffffffffffffffffffffffffffffff16604051610ff99291906124b5565b60405180910390a260016005600085815260200190815260200160002060003373ffffffffffffffffffffffffffffffffffffffff1673ffffffffffffffffffffffffffffffffffffffff16815260200190815260200160002060006101000a81548160ff021916908315150217905550505050565b60006001600085815260200190815260200160002060000154036110c8576040517f08c379a00000000000000000000000000000000000000000000000000000000081526004016110bf90612943565b60405180910390fd5b6001600084815260200190815260200160002060030160009054906101000a900473ffffffffffffffffffffffffffffffffffffffff1673ffffffffffffffffffffffffffffffffffffffff163373ffffffffffffffffffffffffffffffffffffffff161461116c576040517f08c379a0000000000000000000000000000000000000000000000000000000008152600401611163906129af565b60405180910390fd5b816001600085815260200190815260200160002060010160006101000a81548160ff021916908315150217905550806001600085815260200190815260200160002060020190816111bd9190612bdb565b50505050565b600460205281600052604060002081815481106111df57600080fd5b90600052602060002001600091509150505481565b60016020528060005260406000206000915090508060000154908060010160009054906101000a900460ff1690806002018054611230906129fe565b80601f016020809104026020016040519081016040528092919081815260200182805461125c906129fe565b80156112a95780601f1061127e576101008083540402835291602001916112a9565b820191906000526020600020905b81548152906001019060200180831161128c57829003601f168201915b5050505050908060030160009054906101000a900473ffffffffffffffffffffffffffffffffffffffff16905084565b6112e1611922565b600060016000848152602001908152602001600020600001540361133a576040517f08c379a000000000000000000000000000000000000000000000000000000000815260040161133190612943565b60405180910390fd5b6040518060a001604052808381526020016001600085815260200190815260200160002060010160009054906101000a900460ff1615158152602001600160008581526020019081526020016000206002018054611397906129fe565b80601f01602080910402602001604051908101604052809291908181526020018280546113c3906129fe565b80156114105780601f106113e557610100808354040283529160200191611410565b820191906000526020600020905b8154815290600101906020018083116113f357829003601f168201915b505050505081526020016001600085815260200190815260200160002060030160009054906101000a900473ffffffffffffffffffffffffffffffffffffffff1673ffffffffffffffffffffffffffffffffffffffff1681526020016001600085815260200190815260200160002060040180548060200260200160405190810160405280929190818152602001828054801561150257602002820191906000526020600020905b8160009054906101000a900473ffffffffffffffffffffffffffffffffffffffff1673ffffffffffffffffffffffffffffffffffffffff16815260200190600101908083116114b8575b50505050508152509050919050565b60006402540be400334260405160200161152c929190612d16565b6040516020818303038152906040528051906020012060001c61154f9190612d71565b905060006001600083815260200190815260200160002060000154146115aa576040517f08c379a00000000000000000000000000000000000000000000000000000000081526004016115a190612dee565b60405180910390fd5b6040518060a001604052808281526020016000151581526020018381526020013373ffffffffffffffffffffffffffffffffffffffff168152602001600067ffffffffffffffff81111561160157611600611fdf565b5b60405190808252806020026020018201604052801561162f5781602001602082028036833780820191505090505b50815250600160008381526020019081526020016000206000820151816000015560208201518160010160006101000a81548160ff02191690831515021790555060408201518160020190816116859190612bdb565b5060608201518160030160006101000a81548173ffffffffffffffffffffffffffffffffffffffff021916908373ffffffffffffffffffffffffffffffffffffffff16021790555060808201518160040190805190602001906116e9929190611969565b50905050600460003373ffffffffffffffffffffffffffffffffffffffff1673ffffffffffffffffffffffffffffffffffffffff16815260200190815260200160002081908060018154018082558091505060019003906000526020600020016000909190919091505560066000815480929190611766906126f9565b9190505550807f9057270c8b8ada5482b02b2e8c27f21fcc080f96b61e960d87ca6a101bffb6423360405161179b9190611b29565b60405180910390a25050565b600660008154809291906117ba90612e0e565b919050555060008054906101000a900473ffffffffffffffffffffffffffffffffffffffff1673ffffffffffffffffffffffffffffffffffffffff163373ffffffffffffffffffffffffffffffffffffffff161461184d576040517f08c379a000000000000000000000000000000000000000000000000000000000815260040161184490612e83565b60405180910390fd5b60006001600083815260200190815260200160002060000154036118a6576040517f08c379a000000000000000000000000000000000000000000000000000000000815260040161189d90612943565b60405180910390fd5b600160008281526020019081526020016000206000808201600090556001820160006101000a81549060ff02191690556002820160006118e691906119f3565b6003820160006101000a81549073ffffffffffffffffffffffffffffffffffffffff021916905560048201600061191d9190611a33565b505050565b6040518060a001604052806000815260200160001515815260200160608152602001600073ffffffffffffffffffffffffffffffffffffffff168152602001606081525090565b8280548282559060005260206000209081019282156119e2579160200282015b828111156119e15782518260006101000a81548173ffffffffffffffffffffffffffffffffffffffff021916908373ffffffffffffffffffffffffffffffffffffffff16021790555091602001919060010190611989565b5b5090506119ef9190611a54565b5090565b5080546119ff906129fe565b6000825580601f10611a115750611a30565b601f016020900490600052602060002090810190611a2f9190611a54565b5b50565b5080546000825590600052602060002090810190611a519190611a54565b50565b5b80821115611a6d576000816000905550600101611a55565b5090565b6000604051905090565b600080fd5b600080fd5b6000819050919050565b611a9881611a85565b8114611aa357600080fd5b50565b600081359050611ab581611a8f565b92915050565b600060208284031215611ad157611ad0611a7b565b5b6000611adf84828501611aa6565b91505092915050565b600073ffffffffffffffffffffffffffffffffffffffff82169050919050565b6000611b1382611ae8565b9050919050565b611b2381611b08565b82525050565b6000602082019050611b3e6000830184611b1a565b92915050565b611b4d81611a85565b82525050565b6000602082019050611b686000830184611b44565b92915050565b611b7781611b08565b8114611b8257600080fd5b50565b600081359050611b9481611b6e565b92915050565b600060208284031215611bb057611baf611a7b565b5b6000611bbe84828501611b85565b91505092915050565b60008115159050919050565b611bdc81611bc7565b82525050565b6000602082019050611bf76000830184611bd3565b92915050565b60008060408385031215611c1457611c13611a7b565b5b6000611c2285828601611aa6565b9250506020611c3385828601611b85565b9150509250929050565b600081519050919050565b600082825260208201905092915050565b6000819050602082019050919050565b611c7281611a85565b82525050565b611c8181611bc7565b82525050565b600081519050919050565b600082825260208201905092915050565b60005b83811015611cc1578082015181840152602081019050611ca6565b60008484015250505050565b6000601f19601f8301169050919050565b6000611ce982611c87565b611cf38185611c92565b9350611d03818560208601611ca3565b611d0c81611ccd565b840191505092915050565b611d2081611b08565b82525050565b600081519050919050565b600082825260208201905092915050565b6000819050602082019050919050565b6000611d5e8383611d17565b60208301905092915050565b6000602082019050919050565b6000611d8282611d26565b611d8c8185611d31565b9350611d9783611d42565b8060005b83811015611dc8578151611daf8882611d52565b9750611dba83611d6a565b925050600181019050611d9b565b5085935050505092915050565b600060a083016000830151611ded6000860182611c69565b506020830151611e006020860182611c78565b5060408301518482036040860152611e188282611cde565b9150506060830151611e2d6060860182611d17565b5060808301518482036080860152611e458282611d77565b9150508091505092915050565b6000611e5e8383611dd5565b905092915050565b6000602082019050919050565b6000611e7e82611c3d565b611e888185611c48565b935083602082028501611e9a85611c59565b8060005b85811015611ed65784840389528151611eb78582611e52565b9450611ec283611e66565b925060208a01995050600181019050611e9e565b50829750879550505050505092915050565b60006020820190508181036000830152611f028184611e73565b905092915050565b600082825260208201905092915050565b6000611f2682611d26565b611f308185611f0a565b9350611f3b83611d42565b8060005b83811015611f6c578151611f538882611d52565b9750611f5e83611d6a565b925050600181019050611f3f565b5085935050505092915050565b6000604082019050611f8e6000830185611b1a565b8181036020830152611fa08184611f1b565b90509392505050565b611fb281611bc7565b8114611fbd57600080fd5b50565b600081359050611fcf81611fa9565b92915050565b600080fd5b600080fd5b7f4e487b7100000000000000000000000000000000000000000000000000000000600052604160045260246000fd5b61201782611ccd565b810181811067ffffffffffffffff8211171561203657612035611fdf565b5b80604052505050565b6000612049611a71565b9050612055828261200e565b919050565b600067ffffffffffffffff82111561207557612074611fdf565b5b61207e82611ccd565b9050602081019050919050565b82818337600083830152505050565b60006120ad6120a88461205a565b61203f565b9050828152602081018484840111156120c9576120c8611fda565b5b6120d484828561208b565b509392505050565b600082601f8301126120f1576120f0611fd5565b5b813561210184826020860161209a565b91505092915050565b60008060006060848603121561212357612122611a7b565b5b600061213186828701611aa6565b935050602061214286828701611fc0565b925050604084013567ffffffffffffffff81111561216357612162611a80565b5b61216f868287016120dc565b9150509250925092565b600080604083850312156121905761218f611a7b565b5b600061219e85828601611b85565b92505060206121af85828601611aa6565b9150509250929050565b600082825260208201905092915050565b60006121d582611c87565b6121df81856121b9565b93506121ef818560208601611ca3565b6121f881611ccd565b840191505092915050565b60006080820190506122186000830187611b44565b6122256020830186611bd3565b818103604083015261223781856121ca565b90506122466060830184611b1a565b95945050505050565b600060a0830160008301516122676000860182611c69565b50602083015161227a6020860182611c78565b50604083015184820360408601526122928282611cde565b91505060608301516122a76060860182611d17565b50608083015184820360808601526122bf8282611d77565b9150508091505092915050565b600060208201905081810360008301526122e6818461224f565b905092915050565b60006020828403121561230457612303611a7b565b5b600082013567ffffffffffffffff81111561232257612321611a80565b5b61232e848285016120dc565b91505092915050565b7f4f6e6c79207468652063757272656e74206f776e65722063616e207472616e7360008201527f666572206f776e65727368697000000000000000000000000000000000000000602082015250565b6000612393602d836121b9565b915061239e82612337565b604082019050919050565b600060208201905081810360008301526123c281612386565b9050919050565b600081549050919050565b60008190508160005260206000209050919050565b60008160001c9050919050565b600073ffffffffffffffffffffffffffffffffffffffff82169050919050565b6000612429612424836123e9565b6123f6565b9050919050565b600061243c8254612416565b9050919050565b6000600182019050919050565b600061245b826123c9565b6124658185611f0a565b9350612470836123d4565b8060005b838110156124a85761248582612430565b61248f8882611d52565b975061249a83612443565b925050600181019050612474565b5085935050505092915050565b600060408201905081810360008301526124cf8185612450565b90506124de6020830184611b1a565b9392505050565b7f4f6e6c792061646d696e732063616e20706572666f726d20746869732061637460008201527f696f6e0000000000000000000000000000000000000000000000000000000000602082015250565b60006125416023836121b9565b915061254c826124e5565b604082019050919050565b6000602082019050818103600083015261257081612534565b9050919050565b7f4c616e6420616c726561647920617070726f76656420627920676f7665726e6d60008201527f656e740000000000000000000000000000000000000000000000000000000000602082015250565b60006125d36023836121b9565b91506125de82612577565b604082019050919050565b60006020820190508181036000830152612602816125c6565b9050919050565b7f546865726520697320616c726561647920612070656e64696e67207472616e7360008201527f666572207265717565737420666f722074686973206c616e6400000000000000602082015250565b60006126656039836121b9565b915061267082612609565b604082019050919050565b6000602082019050818103600083015261269481612658565b9050919050565b7f4e487b7100000000000000000000000000000000000000000000000000000000600052603260045260246000fd5b7f4e487b7100000000000000000000000000000000000000000000000000000000600052601160045260246000fd5b600061270482611a85565b91507fffffffffffffffffffffffffffffffffffffffffffffffffffffffffffffffff8203612736576127356126ca565b5b600182019050919050565b7f5468657265206973206e6f2070656e64696e67207472616e736665722072657160008201527f7565737420666f722074686973206c616e640000000000000000000000000000602082015250565b600061279d6032836121b9565b91506127a882612741565b604082019050919050565b600060208201905081810360008301526127cc81612790565b9050919050565b7f43757272656e74206f776e657220686173206e6f7420617070726f766564207460008201527f686973207472616e736665722072657175657374000000000000000000000000602082015250565b600061282f6034836121b9565b915061283a826127d3565b604082019050919050565b6000602082019050818103600083015261285e81612822565b9050919050565b7f54686973207472616e7366657220726571756573742068617320616c7265616460008201527f79206265656e20617070726f76656420627920616e2061646d696e2075736572602082015250565b60006128c16040836121b9565b91506128cc82612865565b604082019050919050565b600060208201905081810360008301526128f0816128b4565b9050919050565b7f4c616e642077697468207468697320494420646f6573206e6f74206578697374600082015250565b600061292d6020836121b9565b9150612938826128f7565b602082019050919050565b6000602082019050818103600083015261295c81612920565b9050919050565b7f4f6e6c79206c616e64206f776e65722063616e20757064617465206c616e6400600082015250565b6000612999601f836121b9565b91506129a482612963565b602082019050919050565b600060208201905081810360008301526129c88161298c565b9050919050565b7f4e487b7100000000000000000000000000000000000000000000000000000000600052602260045260246000fd5b60006002820490506001821680612a1657607f821691505b602082108103612a2957612a286129cf565b5b50919050565b60008190508160005260206000209050919050565b60006020601f8301049050919050565b600082821b905092915050565b600060088302612a917fffffffffffffffffffffffffffffffffffffffffffffffffffffffffffffffff82612a54565b612a9b8683612a54565b95508019841693508086168417925050509392505050565b6000819050919050565b6000612ad8612ad3612ace84611a85565b612ab3565b611a85565b9050919050565b6000819050919050565b612af283612abd565b612b06612afe82612adf565b848454612a61565b825550505050565b600090565b612b1b612b0e565b612b26818484612ae9565b505050565b5b81811015612b4a57612b3f600082612b13565b600181019050612b2c565b5050565b601f821115612b8f57612b6081612a2f565b612b6984612a44565b81016020851015612b78578190505b612b8c612b8485612a44565b830182612b2b565b50505b505050565b600082821c905092915050565b6000612bb260001984600802612b94565b1980831691505092915050565b6000612bcb8383612ba1565b9150826002028217905092915050565b612be482611c87565b67ffffffffffffffff811115612bfd57612bfc611fdf565b5b612c0782546129fe565b612c12828285612b4e565b600060209050601f831160018114612c455760008415612c33578287015190505b612c3d8582612bbf565b865550612ca5565b601f198416612c5386612a2f565b60005b82811015612c7b57848901518255600182019150602085019450602081019050612c56565b86831015612c985784890151612c94601f891682612ba1565b8355505b6001600288020188555050505b505050505050565b60008160601b9050919050565b6000612cc582612cad565b9050919050565b6000612cd782612cba565b9050919050565b612cef612cea82611b08565b612ccc565b82525050565b6000819050919050565b612d10612d0b82611a85565b612cf5565b82525050565b6000612d228285612cde565b601482019150612d328284612cff565b6020820191508190509392505050565b7f4e487b7100000000000000000000000000000000000000000000000000000000600052601260045260246000fd5b6000612d7c82611a85565b9150612d8783611a85565b925082612d9757612d96612d42565b5b828206905092915050565b7f4c616e642077697468207468697320494420616c726561647920657869737473600082015250565b6000612dd86020836121b9565b9150612de382612da2565b602082019050919050565b60006020820190508181036000830152612e0781612dcb565b9050919050565b6000612e1982611a85565b915060008203612e2c57612e2b6126ca565b5b600182039050919050565b7f4f6e6c79206f776e65722063616e2064656c657465206c616e64000000000000600082015250565b6000612e6d601a836121b9565b9150612e7882612e37565b602082019050919050565b60006020820190508181036000830152612e9c81612e60565b905091905056fea26469706673582212202de02973452cffd4b254aa64f09145989c49fafaee30420e5ae79f707008090364736f6c63430008130033",
  "immutableReferences": {},
  "source": "// SPDX-License-Identifier: MIT\n\npragma solidity ^0.8.0;\n\ncontract LandRegistrationSystem {\n    struct Land {\n        uint256 land_id;\n        bool is_govt_approved;\n        string ipfsHash;\n        address current_owner;\n        address[] previous_owners;\n    }\n\n    address public owner;\n    mapping(uint256 => Land) public lands;\n    mapping(address => bool) public isAdmin;\n    mapping(uint256 => address) public transferRequests;\n    mapping(address => uint256[]) public userLandIds; // Keep track of land IDs owned by each use\n    mapping(uint256 => mapping(address => bool)) public transferApprovals;\n\n    event LandOwnershipTransferred(\n        uint256 indexed landId,\n        address[] previousOwners,\n        address newOwner\n    );\n    event LandCreated(uint256 indexed landId, address newOwner);\n\n    uint256 public totalLands;\n\n    modifier onlyAdmin() {\n        require(isAdmin[msg.sender], \"Only admins can perform this action\");\n        _;\n    }\n\n    constructor() {\n        owner = msg.sender;\n    }\n\n    function registerLand(string memory ipfsHash) public {\n        uint256 landId = uint256(\n            keccak256(abi.encodePacked(msg.sender, block.timestamp))\n        ) % 10000000000;\n        require(lands[landId].land_id == 0, \"Land with this ID already exists\");\n\n        lands[landId] = Land({\n            land_id: landId,\n            is_govt_approved: false,\n            ipfsHash: ipfsHash,\n            current_owner: msg.sender,\n            previous_owners: new address[](0)\n        });\n\n        // Add the land ID to the user's list of owned land IDs\n        userLandIds[msg.sender].push(landId);\n\n        totalLands++;\n\n        emit LandCreated(landId, msg.sender);\n    }\n\n    function getLand(uint256 landId) public view returns (Land memory) {\n        require(lands[landId].land_id != 0, \"Land with this ID does not exist\");\n\n        return\n            Land({\n                land_id: landId,\n                is_govt_approved: lands[landId].is_govt_approved,\n                ipfsHash: lands[landId].ipfsHash,\n                current_owner: lands[landId].current_owner,\n                previous_owners: lands[landId].previous_owners\n            });\n\n        // return data;\n    }\n\n    function updateLand(\n        uint256 landId,\n        bool newIsGovtApproved,\n        string memory newIpfsHash1\n    ) public {\n        require(lands[landId].land_id != 0, \"Land with this ID does not exist\");\n        require(\n            msg.sender == lands[landId].current_owner,\n            \"Only land owner can update land\"\n        );\n        lands[landId].is_govt_approved = newIsGovtApproved;\n        lands[landId].ipfsHash = newIpfsHash1;\n    }\n\n    function deleteLand(uint256 landId) public {\n        totalLands--;\n        require(msg.sender == owner, \"Only owner can delete land\");\n        require(lands[landId].land_id != 0, \"Land with this ID does not exist\");\n\n        delete lands[landId];\n    }\n\n    function transferOwnership(uint256 landId, address newOwner) public {\n        require(\n            msg.sender == lands[landId].current_owner,\n            \"Only the current owner can transfer ownership\"\n        );\n\n        lands[landId].previous_owners.push(lands[landId].current_owner);\n        lands[landId].current_owner = newOwner;\n\n        emit LandOwnershipTransferred(\n            landId,\n            lands[landId].previous_owners,\n            newOwner\n        );\n    }\n\n    function approveLand(uint256 _landId) public onlyAdmin {\n        require(\n            lands[_landId].is_govt_approved == false,\n            \"Land already approved by government\"\n        );\n\n        lands[_landId].is_govt_approved = true;\n    }\n\n    function createTransferRequest(uint256 landId, address newOwner) public {\n        Land storage land = lands[landId];\n        require(\n            land.current_owner == msg.sender,\n            \"Only the current owner can transfer ownership\"\n        );\n        require(\n            transferRequests[landId] == address(0),\n            \"There is already a pending transfer request for this land\"\n        );\n        transferRequests[landId] = newOwner;\n        transferApprovals[landId][msg.sender] = true;\n    }\n\n    function approveTransferRequest(\n        uint256 landId,\n        address currentOwner\n    ) public onlyAdmin {\n        Land storage land = lands[landId];\n        require(\n            transferRequests[landId] != address(0),\n            \"There is no pending transfer request for this land\"\n        );\n        require(\n            transferApprovals[landId][currentOwner] == true,\n            \"Current owner has not approved this transfer request\"\n        );\n        require(\n            transferApprovals[landId][msg.sender] == false,\n            \"This transfer request has already been approved by an admin user\"\n        );\n        land.previous_owners.push(land.current_owner);\n        land.current_owner = transferRequests[landId];\n        emit LandOwnershipTransferred(\n            landId,\n            lands[landId].previous_owners,\n            land.current_owner\n        );\n        transferApprovals[landId][msg.sender] = true;\n    }\n\n    function getLandOwners(\n        uint256 landId\n    )\n        public\n        view\n        returns (address currentOwner, address[] memory previousOwners)\n    {\n        currentOwner = lands[landId].current_owner;\n        previousOwners = lands[landId].previous_owners;\n    }\n\n    function getOwnedLands() public view returns (Land[] memory) {\n        uint256 landCount = userLandIds[msg.sender].length;\n        Land[] memory ownedLands = new Land[](landCount);\n        uint256 index = 0;\n        for (uint256 i = 0; i < landCount; i++) {\n            uint256 landId = userLandIds[msg.sender][i];\n            if (lands[landId].current_owner == msg.sender) {\n                ownedLands[index] = getLand(landId);\n                index++;\n            }\n        }\n\n        return ownedLands;\n    }\n}\n",
  "sourcePath": "/Users/olayiwola/Documents/dev/verifiland/contracts/LandRegistrationSystem.sol",
  "compiler": {
    "name": "solc",
    "version": "0.8.19+commit.7dd6d404.Emscripten.clang"
  },
  "schemaVersion": "3.4.13",
  "updatedAt": "2023-03-25T09:09:42.016Z",
  "networkType": "ethereum",
  "devdoc": {
    "kind": "dev",
    "methods": {},
    "version": 1
  },
  "userdoc": {
    "kind": "user",
    "methods": {},
    "version": 1
  }
}