{
  "contractName": "LandRegistrationSystem",
  "abi": [
    {
      "inputs": [],
      "stateMutability": "nonpayable",
      "type": "constructor"
    },
    {
      "anonymous": false,
      "inputs": [
        {
          "indexed": true,
          "internalType": "uint256",
          "name": "landId",
          "type": "uint256"
        },
        {
          "indexed": false,
          "internalType": "address",
          "name": "newOwner",
          "type": "address"
        }
      ],
      "name": "LandCreated",
      "type": "event"
    },
    {
      "anonymous": false,
      "inputs": [
        {
          "indexed": true,
          "internalType": "uint256",
          "name": "landId",
          "type": "uint256"
        },
        {
          "indexed": false,
          "internalType": "address[]",
          "name": "previousOwners",
          "type": "address[]"
        },
        {
          "indexed": false,
          "internalType": "address",
          "name": "newOwner",
          "type": "address"
        }
      ],
      "name": "LandOwnershipTransferred",
      "type": "event"
    },
    {
      "inputs": [
        {
          "internalType": "uint256",
          "name": "",
          "type": "uint256"
        }
      ],
      "name": "lands",
      "outputs": [
        {
          "internalType": "uint256",
          "name": "land_id",
          "type": "uint256"
        },
        {
          "internalType": "bool",
          "name": "is_govt_approved",
          "type": "bool"
        },
        {
          "internalType": "string",
          "name": "ipfsHash",
          "type": "string"
        },
        {
          "internalType": "address",
          "name": "current_owner",
          "type": "address"
        },
        {
          "internalType": "uint256",
          "name": "created_at",
          "type": "uint256"
        },
        {
          "internalType": "uint256",
          "name": "approved_at",
          "type": "uint256"
        }
      ],
      "stateMutability": "view",
      "type": "function"
    },
    {
      "inputs": [],
      "name": "totalLands",
      "outputs": [
        {
          "internalType": "uint256",
          "name": "",
          "type": "uint256"
        }
      ],
      "stateMutability": "view",
      "type": "function"
    },
    {
      "inputs": [
        {
          "internalType": "address",
          "name": "",
          "type": "address"
        },
        {
          "internalType": "uint256",
          "name": "",
          "type": "uint256"
        }
      ],
      "name": "userLandIds",
      "outputs": [
        {
          "internalType": "uint256",
          "name": "",
          "type": "uint256"
        }
      ],
      "stateMutability": "view",
      "type": "function"
    },
    {
      "inputs": [
        {
          "internalType": "address",
          "name": "_admin",
          "type": "address"
        }
      ],
      "name": "addAdmin",
      "outputs": [],
      "stateMutability": "nonpayable",
      "type": "function"
    },
    {
      "inputs": [
        {
          "internalType": "string",
          "name": "ipfsHash",
          "type": "string"
        }
      ],
      "name": "registerLand",
      "outputs": [],
      "stateMutability": "nonpayable",
      "type": "function"
    },
    {
      "inputs": [
        {
          "internalType": "uint256",
          "name": "landId",
          "type": "uint256"
        }
      ],
      "name": "getLand",
      "outputs": [
        {
          "components": [
            {
              "internalType": "uint256",
              "name": "land_id",
              "type": "uint256"
            },
            {
              "internalType": "bool",
              "name": "is_govt_approved",
              "type": "bool"
            },
            {
              "internalType": "string",
              "name": "ipfsHash",
              "type": "string"
            },
            {
              "internalType": "address",
              "name": "current_owner",
              "type": "address"
            },
            {
              "internalType": "address[]",
              "name": "previous_owners",
              "type": "address[]"
            },
            {
              "internalType": "uint256",
              "name": "created_at",
              "type": "uint256"
            },
            {
              "internalType": "uint256",
              "name": "approved_at",
              "type": "uint256"
            }
          ],
          "internalType": "struct LandRegistrationSystem.Land",
          "name": "",
          "type": "tuple"
        }
      ],
      "stateMutability": "view",
      "type": "function"
    },
    {
      "inputs": [
        {
          "internalType": "uint256",
          "name": "landId",
          "type": "uint256"
        },
        {
          "internalType": "string",
          "name": "newIpfsHash1",
          "type": "string"
        }
      ],
      "name": "updateLand",
      "outputs": [],
      "stateMutability": "nonpayable",
      "type": "function"
    },
    {
      "inputs": [
        {
          "internalType": "uint256",
          "name": "landId",
          "type": "uint256"
        }
      ],
      "name": "deleteLand",
      "outputs": [],
      "stateMutability": "nonpayable",
      "type": "function"
    },
    {
      "inputs": [
        {
          "internalType": "uint256",
          "name": "_landId",
          "type": "uint256"
        }
      ],
      "name": "approveLand",
      "outputs": [],
      "stateMutability": "nonpayable",
      "type": "function"
    },
    {
      "inputs": [
        {
          "internalType": "uint256",
          "name": "landId",
          "type": "uint256"
        },
        {
          "internalType": "address",
          "name": "newOwner",
          "type": "address"
        }
      ],
      "name": "createTransferRequest",
      "outputs": [],
      "stateMutability": "nonpayable",
      "type": "function"
    },
    {
      "inputs": [
        {
          "internalType": "uint256",
          "name": "landId",
          "type": "uint256"
        },
        {
          "internalType": "address",
          "name": "currentOwner",
          "type": "address"
        }
      ],
      "name": "approveTransferRequest",
      "outputs": [
        {
          "internalType": "bool",
          "name": "",
          "type": "bool"
        }
      ],
      "stateMutability": "nonpayable",
      "type": "function"
    },
    {
      "inputs": [
        {
          "internalType": "uint256",
          "name": "landId",
          "type": "uint256"
        }
      ],
      "name": "getLandOwners",
      "outputs": [
        {
          "internalType": "address",
          "name": "currentOwner",
          "type": "address"
        },
        {
          "internalType": "address[]",
          "name": "previousOwners",
          "type": "address[]"
        }
      ],
      "stateMutability": "view",
      "type": "function"
    },
    {
      "inputs": [],
      "name": "getOwnedLands",
      "outputs": [
        {
          "components": [
            {
              "internalType": "uint256",
              "name": "land_id",
              "type": "uint256"
            },
            {
              "internalType": "bool",
              "name": "is_govt_approved",
              "type": "bool"
            },
            {
              "internalType": "string",
              "name": "ipfsHash",
              "type": "string"
            },
            {
              "internalType": "address",
              "name": "current_owner",
              "type": "address"
            },
            {
              "internalType": "address[]",
              "name": "previous_owners",
              "type": "address[]"
            },
            {
              "internalType": "uint256",
              "name": "created_at",
              "type": "uint256"
            },
            {
              "internalType": "uint256",
              "name": "approved_at",
              "type": "uint256"
            }
          ],
          "internalType": "struct LandRegistrationSystem.Land[]",
          "name": "",
          "type": "tuple[]"
        }
      ],
      "stateMutability": "view",
      "type": "function"
    },
    {
      "inputs": [],
      "name": "getAllLands",
      "outputs": [
        {
          "components": [
            {
              "internalType": "uint256",
              "name": "land_id",
              "type": "uint256"
            },
            {
              "internalType": "bool",
              "name": "is_govt_approved",
              "type": "bool"
            },
            {
              "internalType": "string",
              "name": "ipfsHash",
              "type": "string"
            },
            {
              "internalType": "address",
              "name": "current_owner",
              "type": "address"
            },
            {
              "internalType": "address[]",
              "name": "previous_owners",
              "type": "address[]"
            },
            {
              "internalType": "uint256",
              "name": "created_at",
              "type": "uint256"
            },
            {
              "internalType": "uint256",
              "name": "approved_at",
              "type": "uint256"
            }
          ],
          "internalType": "struct LandRegistrationSystem.Land[]",
          "name": "",
          "type": "tuple[]"
        }
      ],
      "stateMutability": "view",
      "type": "function"
    },
    {
      "inputs": [],
      "name": "getTransferredLands",
      "outputs": [
        {
          "components": [
            {
              "internalType": "uint256",
              "name": "created_at",
              "type": "uint256"
            },
            {
              "internalType": "uint256",
              "name": "approved_at",
              "type": "uint256"
            },
            {
              "internalType": "address",
              "name": "new_owner",
              "type": "address"
            },
            {
              "internalType": "uint256",
              "name": "land_id",
              "type": "uint256"
            },
            {
              "internalType": "bool",
              "name": "owner_approved",
              "type": "bool"
            },
            {
              "internalType": "bool",
              "name": "govt_approved",
              "type": "bool"
            }
          ],
          "internalType": "struct LandRegistrationSystem.TransferRequestTrack[]",
          "name": "",
          "type": "tuple[]"
        }
      ],
      "stateMutability": "view",
      "type": "function"
    },
    {
      "inputs": [
        {
          "internalType": "address",
          "name": "req",
          "type": "address"
        }
      ],
      "name": "getAddressTransferredLands",
      "outputs": [
        {
          "components": [
            {
              "internalType": "uint256",
              "name": "created_at",
              "type": "uint256"
            },
            {
              "internalType": "uint256",
              "name": "approved_at",
              "type": "uint256"
            },
            {
              "internalType": "address",
              "name": "new_owner",
              "type": "address"
            },
            {
              "internalType": "uint256",
              "name": "land_id",
              "type": "uint256"
            },
            {
              "internalType": "bool",
              "name": "owner_approved",
              "type": "bool"
            },
            {
              "internalType": "bool",
              "name": "govt_approved",
              "type": "bool"
            }
          ],
          "internalType": "struct LandRegistrationSystem.TransferRequestTrack[]",
          "name": "",
          "type": "tuple[]"
        }
      ],
      "stateMutability": "view",
      "type": "function"
    }
  ],
  "bytecode": "0x6080604052348015600e575f80fd5b50335f806101000a81548173ffffffffffffffffffffffffffffffffffffffff021916908373ffffffffffffffffffffffffffffffffffffffff16021790555061377e8061005b5f395ff3fe608060405234801561000f575f80fd5b50600436106100fe575f3560e01c8063926eeb3011610095578063e261f1e511610064578063e261f1e5146102ab578063f02dd53f146102e0578063fbed216b14610310578063fd9b2c8d1461032c576100fe565b8063926eeb3014610211578063a18f7d9814610241578063b7b6e5431461025d578063cd40dc211461027b576100fe565b80635a89c745116100d15780635a89c745146101885780635d3d5a17146101a657806366269bfc146101c457806370480275146101f5576100fe565b80631d8de063146101025780632eab1dbf1461012057806338c887b2146101505780634e4dd2301461016c575b5f80fd5b61010a610348565b6040516101179190612276565b60405180910390f35b61013a600480360381019061013591906122fa565b61034e565b604051610147919061247e565b60405180910390f35b61016a600480360381019061016591906124c8565b61051c565b005b610186600480360381019061018191906124f3565b610653565b005b610190610a25565b60405161019d91906127a4565b60405180910390f35b6101ae610bdc565b6040516101bb919061247e565b60405180910390f35b6101de60048036038101906101d991906124c8565b610d1f565b6040516101ec92919061283f565b60405180910390f35b61020f600480360381019061020a91906122fa565b610df5565b005b61022b600480360381019061022691906124f3565b610eda565b604051610238919061287c565b60405180910390f35b61025b600480360381019061025691906129c1565b6114b8565b005b6102656115d4565b60405161027291906127a4565b60405180910390f35b61029560048036038101906102909190612a1b565b611722565b6040516102a29190612276565b60405180910390f35b6102c560048036038101906102c091906124c8565b61174d565b6040516102d796959493929190612aa1565b60405180910390f35b6102fa60048036038101906102f591906124c8565b611836565b6040516103079190612ba7565b60405180910390f35b61032a60048036038101906103259190612bc7565b611a8f565b005b610346600480360381019061034191906124c8565b611d40565b005b60065481565b606060035f3373ffffffffffffffffffffffffffffffffffffffff1673ffffffffffffffffffffffffffffffffffffffff1681526020019081526020015f205f9054906101000a900460ff166103d9576040517f08c379a00000000000000000000000000000000000000000000000000000000081526004016103d090612c7e565b60405180910390fd5b5f60045f8473ffffffffffffffffffffffffffffffffffffffff1673ffffffffffffffffffffffffffffffffffffffff1681526020019081526020015f20805480602002602001604051908101604052809291908181526020015f905b8282101561050d578382905f5260205f2090600502016040518060c00160405290815f820154815260200160018201548152602001600282015f9054906101000a900473ffffffffffffffffffffffffffffffffffffffff1673ffffffffffffffffffffffffffffffffffffffff1673ffffffffffffffffffffffffffffffffffffffff16815260200160038201548152602001600482015f9054906101000a900460ff161515151581526020016004820160019054906101000a900460ff16151515158152505081526020019060010190610436565b50505050905080915050919050565b60035f3373ffffffffffffffffffffffffffffffffffffffff1673ffffffffffffffffffffffffffffffffffffffff1681526020019081526020015f205f9054906101000a900460ff166105a5576040517f08c379a000000000000000000000000000000000000000000000000000000000815260040161059c90612c7e565b60405180910390fd5b5f151560025f8381526020019081526020015f206001015f9054906101000a900460ff1615151461060b576040517f08c379a000000000000000000000000000000000000000000000000000000000815260040161060290612d0c565b60405180910390fd5b600160025f8381526020019081526020015f206001015f6101000a81548160ff0219169083151502179055504260025f8381526020019081526020015f206006018190555050565b5f60025f8481526020019081526020015f2090503373ffffffffffffffffffffffffffffffffffffffff16816003015f9054906101000a900473ffffffffffffffffffffffffffffffffffffffff1673ffffffffffffffffffffffffffffffffffffffff16146106f8576040517f08c379a00000000000000000000000000000000000000000000000000000000081526004016106ef90612d9a565b60405180910390fd5b5f60045f3373ffffffffffffffffffffffffffffffffffffffff1673ffffffffffffffffffffffffffffffffffffffff1681526020019081526020015f20805480602002602001604051908101604052809291908181526020015f905b8282101561082c578382905f5260205f2090600502016040518060c00160405290815f820154815260200160018201548152602001600282015f9054906101000a900473ffffffffffffffffffffffffffffffffffffffff1673ffffffffffffffffffffffffffffffffffffffff1673ffffffffffffffffffffffffffffffffffffffff16815260200160038201548152602001600482015f9054906101000a900460ff161515151581526020016004820160019054906101000a900460ff16151515158152505081526020019060010190610755565b5050505090505f5b81518110156108d0578482828151811061085157610850612db8565b5b602002602001015160600151036108c3578482828151811061087657610875612db8565b5b602002602001015160600151036108c2576040517f08c379a00000000000000000000000000000000000000000000000000000000081526004016108b990612e55565b60405180910390fd5b5b8080600101915050610834565b5060045f3373ffffffffffffffffffffffffffffffffffffffff1673ffffffffffffffffffffffffffffffffffffffff1681526020019081526020015f206040518060c001604052804281526020015f81526020018573ffffffffffffffffffffffffffffffffffffffff1681526020018681526020016001151581526020015f1515815250908060018154018082558091505060019003905f5260205f2090600502015f909190919091505f820151815f0155602082015181600101556040820151816002015f6101000a81548173ffffffffffffffffffffffffffffffffffffffff021916908373ffffffffffffffffffffffffffffffffffffffff160217905550606082015181600301556080820151816004015f6101000a81548160ff02191690831515021790555060a08201518160040160016101000a81548160ff021916908315150217905550505050505050565b60605f60055f3373ffffffffffffffffffffffffffffffffffffffff1673ffffffffffffffffffffffffffffffffffffffff1681526020019081526020015f208054905090505f8167ffffffffffffffff811115610a8657610a8561289d565b5b604051908082528060200260200182016040528015610abf57816020015b610aac612111565b815260200190600190039081610aa45790505b5090505f805b83811015610bd2575f60055f3373ffffffffffffffffffffffffffffffffffffffff1673ffffffffffffffffffffffffffffffffffffffff1681526020019081526020015f208281548110610b1d57610b1c612db8565b5b905f5260205f20015490503373ffffffffffffffffffffffffffffffffffffffff1660025f8381526020019081526020015f206003015f9054906101000a900473ffffffffffffffffffffffffffffffffffffffff1673ffffffffffffffffffffffffffffffffffffffff1603610bc457610b9781611836565b848481518110610baa57610ba9612db8565b5b60200260200101819052508280610bc090612ea0565b9350505b508080600101915050610ac5565b5081935050505090565b60605f60045f3373ffffffffffffffffffffffffffffffffffffffff1673ffffffffffffffffffffffffffffffffffffffff1681526020019081526020015f20805480602002602001604051908101604052809291908181526020015f905b82821015610d12578382905f5260205f2090600502016040518060c00160405290815f820154815260200160018201548152602001600282015f9054906101000a900473ffffffffffffffffffffffffffffffffffffffff1673ffffffffffffffffffffffffffffffffffffffff1673ffffffffffffffffffffffffffffffffffffffff16815260200160038201548152602001600482015f9054906101000a900460ff161515151581526020016004820160019054906101000a900460ff16151515158152505081526020019060010190610c3b565b5050505090508091505090565b5f606060025f8481526020019081526020015f206003015f9054906101000a900473ffffffffffffffffffffffffffffffffffffffff16915060025f8481526020019081526020015f20600401805480602002602001604051908101604052809291908181526020018280548015610de957602002820191905f5260205f20905b815f9054906101000a900473ffffffffffffffffffffffffffffffffffffffff1673ffffffffffffffffffffffffffffffffffffffff1681526020019060010190808311610da0575b50505050509050915091565b5f8054906101000a900473ffffffffffffffffffffffffffffffffffffffff1673ffffffffffffffffffffffffffffffffffffffff163373ffffffffffffffffffffffffffffffffffffffff1614610e82576040517f08c379a0000000000000000000000000000000000000000000000000000000008152600401610e7990612f57565b60405180910390fd5b600160035f8373ffffffffffffffffffffffffffffffffffffffff1673ffffffffffffffffffffffffffffffffffffffff1681526020019081526020015f205f6101000a81548160ff02191690831515021790555050565b5f60035f3373ffffffffffffffffffffffffffffffffffffffff1673ffffffffffffffffffffffffffffffffffffffff1681526020019081526020015f205f9054906101000a900460ff16610f64576040517f08c379a0000000000000000000000000000000000000000000000000000000008152600401610f5b90612c7e565b60405180910390fd5b5f60025f8581526020019081526020015f20905083815f015414610fbd576040517f08c379a0000000000000000000000000000000000000000000000000000000008152600401610fb490612fbf565b60405180910390fd5b60011515816001015f9054906101000a900460ff16151514611014576040517f08c379a000000000000000000000000000000000000000000000000000000000815260040161100b9061304d565b60405180910390fd5b5f60045f8573ffffffffffffffffffffffffffffffffffffffff1673ffffffffffffffffffffffffffffffffffffffff1681526020019081526020015f20805480602002602001604051908101604052809291908181526020015f905b82821015611148578382905f5260205f2090600502016040518060c00160405290815f820154815260200160018201548152602001600282015f9054906101000a900473ffffffffffffffffffffffffffffffffffffffff1673ffffffffffffffffffffffffffffffffffffffff1673ffffffffffffffffffffffffffffffffffffffff16815260200160038201548152602001600482015f9054906101000a900460ff161515151581526020016004820160019054906101000a900460ff16151515158152505081526020019060010190611071565b5050505090505f5b81518110156114ab578582828151811061116d5761116c612db8565b5b6020026020010151606001511480156111a857506001151582828151811061119857611197612db8565b5b6020026020010151608001511515145b80156111d557505f15158282815181106111c5576111c4612db8565b5b602002602001015160a001511515145b1561149e57600160045f8773ffffffffffffffffffffffffffffffffffffffff1673ffffffffffffffffffffffffffffffffffffffff1681526020019081526020015f20828154811061122b5761122a612db8565b5b905f5260205f20906005020160040160016101000a81548160ff0219169083151502179055504260045f8773ffffffffffffffffffffffffffffffffffffffff1673ffffffffffffffffffffffffffffffffffffffff1681526020019081526020015f2082815481106112a1576112a0612db8565b5b905f5260205f2090600502016001018190555082600401836003015f9054906101000a900473ffffffffffffffffffffffffffffffffffffffff16908060018154018082558091505060019003905f5260205f20015f9091909190916101000a81548173ffffffffffffffffffffffffffffffffffffffff021916908373ffffffffffffffffffffffffffffffffffffffff16021790555061136686846003015f9054906101000a900473ffffffffffffffffffffffffffffffffffffffff16611f32565b81818151811061137957611378612db8565b5b602002602001015160400151836003015f6101000a81548173ffffffffffffffffffffffffffffffffffffffff021916908373ffffffffffffffffffffffffffffffffffffffff16021790555060055f8383815181106113dc576113db612db8565b5b60200260200101516040015173ffffffffffffffffffffffffffffffffffffffff1673ffffffffffffffffffffffffffffffffffffffff1681526020019081526020015f2086908060018154018082558091505060019003905f5260205f20015f9091909190915055857f95a86ff9580f7df077cb15f95dac46778559065f03f97c11b5c3000491da9a3d60025f8981526020019081526020015f206004018760405161148a92919061314b565b60405180910390a2600193505050506114b2565b8080600101915050611150565b505f925050505b92915050565b5f60025f8481526020019081526020015f205f01540361150d576040517f08c379a0000000000000000000000000000000000000000000000000000000008152600401611504906131c3565b60405180910390fd5b60025f8381526020019081526020015f206003015f9054906101000a900473ffffffffffffffffffffffffffffffffffffffff1673ffffffffffffffffffffffffffffffffffffffff163373ffffffffffffffffffffffffffffffffffffffff16146115ae576040517f08c379a00000000000000000000000000000000000000000000000000000000081526004016115a59061322b565b60405180910390fd5b8060025f8481526020019081526020015f2060020190816115cf9190613443565b505050565b606060035f3373ffffffffffffffffffffffffffffffffffffffff1673ffffffffffffffffffffffffffffffffffffffff1681526020019081526020015f205f9054906101000a900460ff1661165f576040517f08c379a000000000000000000000000000000000000000000000000000000000815260040161165690612c7e565b60405180910390fd5b5f60018054905067ffffffffffffffff81111561167f5761167e61289d565b5b6040519080825280602002602001820160405280156116b857816020015b6116a5612111565b81526020019060019003908161169d5790505b5090505f5b60018054905081101561171a576116ef600182815481106116e1576116e0612db8565b5b905f5260205f200154611836565b82828151811061170257611701612db8565b5b602002602001018190525080806001019150506116bd565b508091505090565b6005602052815f5260405f20818154811061173b575f80fd5b905f5260205f20015f91509150505481565b6002602052805f5260405f205f91509050805f015490806001015f9054906101000a900460ff169080600201805461178490613276565b80601f01602080910402602001604051908101604052809291908181526020018280546117b090613276565b80156117fb5780601f106117d2576101008083540402835291602001916117fb565b820191905f5260205f20905b8154815290600101906020018083116117de57829003601f168201915b505050505090806003015f9054906101000a900473ffffffffffffffffffffffffffffffffffffffff16908060050154908060060154905086565b61183e612111565b5f60025f8481526020019081526020015f205f015403611893576040517f08c379a000000000000000000000000000000000000000000000000000000000815260040161188a906131c3565b60405180910390fd5b6040518060e0016040528083815260200160025f8581526020019081526020015f206001015f9054906101000a900460ff161515815260200160025f8581526020019081526020015f2060020180546118eb90613276565b80601f016020809104026020016040519081016040528092919081815260200182805461191790613276565b80156119625780601f1061193957610100808354040283529160200191611962565b820191905f5260205f20905b81548152906001019060200180831161194557829003601f168201915b5050505050815260200160025f8581526020019081526020015f206003015f9054906101000a900473ffffffffffffffffffffffffffffffffffffffff1673ffffffffffffffffffffffffffffffffffffffff16815260200160025f8581526020019081526020015f20600401805480602002602001604051908101604052809291908181526020018280548015611a4c57602002820191905f5260205f20905b815f9054906101000a900473ffffffffffffffffffffffffffffffffffffffff1673ffffffffffffffffffffffffffffffffffffffff1681526020019060010190808311611a03575b5050505050815260200160025f8581526020019081526020015f2060050154815260200160025f8581526020019081526020015f20600601548152509050919050565b5f6402540be4003342604051602001611aa9929190613577565b604051602081830303815290604052805190602001205f1c611acb91906135cf565b90505f60025f8381526020019081526020015f205f015414611b22576040517f08c379a0000000000000000000000000000000000000000000000000000000008152600401611b1990613649565b60405180910390fd5b6040518060e001604052808281526020015f151581526020018381526020013373ffffffffffffffffffffffffffffffffffffffff1681526020015f67ffffffffffffffff811115611b7757611b7661289d565b5b604051908082528060200260200182016040528015611ba55781602001602082028036833780820191505090505b5081526020014281526020015f81525060025f8381526020019081526020015f205f820151815f01556020820151816001015f6101000a81548160ff0219169083151502179055506040820151816002019081611c029190613443565b506060820151816003015f6101000a81548173ffffffffffffffffffffffffffffffffffffffff021916908373ffffffffffffffffffffffffffffffffffffffff1602179055506080820151816004019080519060200190611c65929190612161565b5060a0820151816005015560c0820151816006015590505060055f3373ffffffffffffffffffffffffffffffffffffffff1673ffffffffffffffffffffffffffffffffffffffff1681526020019081526020015f2081908060018154018082558091505060019003905f5260205f20015f9091909190915055600181908060018154018082558091505060019003905f5260205f20015f9091909190915055807f9057270c8b8ada5482b02b2e8c27f21fcc080f96b61e960d87ca6a101bffb64233604051611d349190613667565b60405180910390a25050565b5f8054906101000a900473ffffffffffffffffffffffffffffffffffffffff1673ffffffffffffffffffffffffffffffffffffffff163373ffffffffffffffffffffffffffffffffffffffff1614611dcd576040517f08c379a0000000000000000000000000000000000000000000000000000000008152600401611dc4906136ca565b60405180910390fd5b5f60025f8381526020019081526020015f205f015403611e22576040517f08c379a0000000000000000000000000000000000000000000000000000000008152600401611e19906131c3565b60405180910390fd5b60025f8281526020019081526020015f205f8082015f9055600182015f6101000a81549060ff0219169055600282015f611e5c91906121e8565b600382015f6101000a81549073ffffffffffffffffffffffffffffffffffffffff0219169055600482015f611e919190612225565b600582015f9055600682015f905550505f5b600180549050811015611f09576001808080549050611ec291906136e8565b81548110611ed357611ed2612db8565b5b905f5260205f20015460018281548110611ef057611eef612db8565b5b905f5260205f2001819055508080600101915050611ea3565b506001805480611f1c57611f1b61371b565b5b600190038181905f5260205f20015f9055905550565b5f60055f3373ffffffffffffffffffffffffffffffffffffffff1673ffffffffffffffffffffffffffffffffffffffff1681526020019081526020015f208054905090505f5b8181101561210b578360055f8573ffffffffffffffffffffffffffffffffffffffff1673ffffffffffffffffffffffffffffffffffffffff1681526020019081526020015f208281548110611fd057611fcf612db8565b5b905f5260205f200154036120fe5760055f8473ffffffffffffffffffffffffffffffffffffffff1673ffffffffffffffffffffffffffffffffffffffff1681526020019081526020015f2060018361202891906136e8565b8154811061203957612038612db8565b5b905f5260205f20015460055f8573ffffffffffffffffffffffffffffffffffffffff1673ffffffffffffffffffffffffffffffffffffffff1681526020019081526020015f20828154811061209157612090612db8565b5b905f5260205f20018190555060055f8473ffffffffffffffffffffffffffffffffffffffff1673ffffffffffffffffffffffffffffffffffffffff1681526020019081526020015f208054806120ea576120e961371b565b5b600190038181905f5260205f20015f905590555b8080600101915050611f78565b50505050565b6040518060e001604052805f81526020015f15158152602001606081526020015f73ffffffffffffffffffffffffffffffffffffffff168152602001606081526020015f81526020015f81525090565b828054828255905f5260205f209081019282156121d7579160200282015b828111156121d6578251825f6101000a81548173ffffffffffffffffffffffffffffffffffffffff021916908373ffffffffffffffffffffffffffffffffffffffff1602179055509160200191906001019061217f565b5b5090506121e49190612243565b5090565b5080546121f490613276565b5f825580601f106122055750612222565b601f0160209004905f5260205f20908101906122219190612243565b5b50565b5080545f8255905f5260205f20908101906122409190612243565b50565b5b8082111561225a575f815f905550600101612244565b5090565b5f819050919050565b6122708161225e565b82525050565b5f6020820190506122895f830184612267565b92915050565b5f604051905090565b5f80fd5b5f80fd5b5f73ffffffffffffffffffffffffffffffffffffffff82169050919050565b5f6122c9826122a0565b9050919050565b6122d9816122bf565b81146122e3575f80fd5b50565b5f813590506122f4816122d0565b92915050565b5f6020828403121561230f5761230e612298565b5b5f61231c848285016122e6565b91505092915050565b5f81519050919050565b5f82825260208201905092915050565b5f819050602082019050919050565b6123578161225e565b82525050565b612366816122bf565b82525050565b5f8115159050919050565b6123808161236c565b82525050565b60c082015f82015161239a5f85018261234e565b5060208201516123ad602085018261234e565b5060408201516123c0604085018261235d565b5060608201516123d3606085018261234e565b5060808201516123e66080850182612377565b5060a08201516123f960a0850182612377565b50505050565b5f61240a8383612386565b60c08301905092915050565b5f602082019050919050565b5f61242c82612325565b612436818561232f565b93506124418361233f565b805f5b8381101561247157815161245888826123ff565b975061246383612416565b925050600181019050612444565b5085935050505092915050565b5f6020820190508181035f8301526124968184612422565b905092915050565b6124a78161225e565b81146124b1575f80fd5b50565b5f813590506124c28161249e565b92915050565b5f602082840312156124dd576124dc612298565b5b5f6124ea848285016124b4565b91505092915050565b5f806040838503121561250957612508612298565b5b5f612516858286016124b4565b9250506020612527858286016122e6565b9150509250929050565b5f81519050919050565b5f82825260208201905092915050565b5f819050602082019050919050565b5f81519050919050565b5f82825260208201905092915050565b8281835e5f83830152505050565b5f601f19601f8301169050919050565b5f61259c8261255a565b6125a68185612564565b93506125b6818560208601612574565b6125bf81612582565b840191505092915050565b5f81519050919050565b5f82825260208201905092915050565b5f819050602082019050919050565b5f6125fe838361235d565b60208301905092915050565b5f602082019050919050565b5f612620826125ca565b61262a81856125d4565b9350612635836125e4565b805f5b8381101561266557815161264c88826125f3565b97506126578361260a565b925050600181019050612638565b5085935050505092915050565b5f60e083015f8301516126875f86018261234e565b50602083015161269a6020860182612377565b50604083015184820360408601526126b28282612592565b91505060608301516126c7606086018261235d565b50608083015184820360808601526126df8282612616565b91505060a08301516126f460a086018261234e565b5060c083015161270760c086018261234e565b508091505092915050565b5f61271d8383612672565b905092915050565b5f602082019050919050565b5f61273b82612531565b612745818561253b565b9350836020820285016127578561254b565b805f5b8581101561279257848403895281516127738582612712565b945061277e83612725565b925060208a0199505060018101905061275a565b50829750879550505050505092915050565b5f6020820190508181035f8301526127bc8184612731565b905092915050565b6127cd816122bf565b82525050565b5f82825260208201905092915050565b5f6127ed826125ca565b6127f781856127d3565b9350612802836125e4565b805f5b8381101561283257815161281988826125f3565b97506128248361260a565b925050600181019050612805565b5085935050505092915050565b5f6040820190506128525f8301856127c4565b818103602083015261286481846127e3565b90509392505050565b6128768161236c565b82525050565b5f60208201905061288f5f83018461286d565b92915050565b5f80fd5b5f80fd5b7f4e487b71000000000000000000000000000000000000000000000000000000005f52604160045260245ffd5b6128d382612582565b810181811067ffffffffffffffff821117156128f2576128f161289d565b5b80604052505050565b5f61290461228f565b905061291082826128ca565b919050565b5f67ffffffffffffffff82111561292f5761292e61289d565b5b61293882612582565b9050602081019050919050565b828183375f83830152505050565b5f61296561296084612915565b6128fb565b90508281526020810184848401111561298157612980612899565b5b61298c848285612945565b509392505050565b5f82601f8301126129a8576129a7612895565b5b81356129b8848260208601612953565b91505092915050565b5f80604083850312156129d7576129d6612298565b5b5f6129e4858286016124b4565b925050602083013567ffffffffffffffff811115612a0557612a0461229c565b5b612a1185828601612994565b9150509250929050565b5f8060408385031215612a3157612a30612298565b5b5f612a3e858286016122e6565b9250506020612a4f858286016124b4565b9150509250929050565b5f82825260208201905092915050565b5f612a738261255a565b612a7d8185612a59565b9350612a8d818560208601612574565b612a9681612582565b840191505092915050565b5f60c082019050612ab45f830189612267565b612ac1602083018861286d565b8181036040830152612ad38187612a69565b9050612ae260608301866127c4565b612aef6080830185612267565b612afc60a0830184612267565b979650505050505050565b5f60e083015f830151612b1c5f86018261234e565b506020830151612b2f6020860182612377565b5060408301518482036040860152612b478282612592565b9150506060830151612b5c606086018261235d565b5060808301518482036080860152612b748282612616565b91505060a0830151612b8960a086018261234e565b5060c0830151612b9c60c086018261234e565b508091505092915050565b5f6020820190508181035f830152612bbf8184612b07565b905092915050565b5f60208284031215612bdc57612bdb612298565b5b5f82013567ffffffffffffffff811115612bf957612bf861229c565b5b612c0584828501612994565b91505092915050565b7f4f6e6c792061646d696e732063616e20706572666f726d2074686973206163745f8201527f696f6e0000000000000000000000000000000000000000000000000000000000602082015250565b5f612c68602383612a59565b9150612c7382612c0e565b604082019050919050565b5f6020820190508181035f830152612c9581612c5c565b9050919050565b7f4c616e6420616c726561647920617070726f76656420627920676f7665726e6d5f8201527f656e740000000000000000000000000000000000000000000000000000000000602082015250565b5f612cf6602383612a59565b9150612d0182612c9c565b604082019050919050565b5f6020820190508181035f830152612d2381612cea565b9050919050565b7f4f6e6c79207468652063757272656e74206f776e65722063616e207472616e735f8201527f666572206f776e65727368697000000000000000000000000000000000000000602082015250565b5f612d84602d83612a59565b9150612d8f82612d2a565b604082019050919050565b5f6020820190508181035f830152612db181612d78565b9050919050565b7f4e487b71000000000000000000000000000000000000000000000000000000005f52603260045260245ffd5b7f546865726520697320616c726561647920612070656e64696e67207472616e735f8201527f666572207265717565737420666f722074686973206c616e6400000000000000602082015250565b5f612e3f603983612a59565b9150612e4a82612de5565b604082019050919050565b5f6020820190508181035f830152612e6c81612e33565b9050919050565b7f4e487b71000000000000000000000000000000000000000000000000000000005f52601160045260245ffd5b5f612eaa8261225e565b91507fffffffffffffffffffffffffffffffffffffffffffffffffffffffffffffffff8203612edc57612edb612e73565b5b600182019050919050565b7f4f6e6c792074686520636f6e7472616374206f776e65722063616e20706572665f8201527f6f726d207468697320616374696f6e0000000000000000000000000000000000602082015250565b5f612f41602f83612a59565b9150612f4c82612ee7565b604082019050919050565b5f6020820190508181035f830152612f6e81612f35565b9050919050565b7f54686973206c616e6420646f65736e27742065786973740000000000000000005f82015250565b5f612fa9601783612a59565b9150612fb482612f75565b602082019050919050565b5f6020820190508181035f830152612fd681612f9d565b9050919050565b7f54686973206c616e64206f776e65727368697020686173206e6f74206265656e5f8201527f20617070726f7665640000000000000000000000000000000000000000000000602082015250565b5f613037602983612a59565b915061304282612fdd565b604082019050919050565b5f6020820190508181035f8301526130648161302b565b9050919050565b5f81549050919050565b5f819050815f5260205f209050919050565b5f815f1c9050919050565b5f73ffffffffffffffffffffffffffffffffffffffff82169050919050565b5f6130c36130be83613087565b613092565b9050919050565b5f6130d582546130b1565b9050919050565b5f600182019050919050565b5f6130f28261306b565b6130fc81856127d3565b935061310783613075565b805f5b8381101561313e5761311b826130ca565b61312588826125f3565b9750613130836130dc565b92505060018101905061310a565b5085935050505092915050565b5f6040820190508181035f83015261316381856130e8565b905061317260208301846127c4565b9392505050565b7f4c616e642077697468207468697320494420646f6573206e6f742065786973745f82015250565b5f6131ad602083612a59565b91506131b882613179565b602082019050919050565b5f6020820190508181035f8301526131da816131a1565b9050919050565b7f4f6e6c79206c616e64206f776e65722063616e20757064617465206c616e64005f82015250565b5f613215601f83612a59565b9150613220826131e1565b602082019050919050565b5f6020820190508181035f83015261324281613209565b9050919050565b7f4e487b71000000000000000000000000000000000000000000000000000000005f52602260045260245ffd5b5f600282049050600182168061328d57607f821691505b6020821081036132a05761329f613249565b5b50919050565b5f819050815f5260205f209050919050565b5f6020601f8301049050919050565b5f82821b905092915050565b5f600883026133027fffffffffffffffffffffffffffffffffffffffffffffffffffffffffffffffff826132c7565b61330c86836132c7565b95508019841693508086168417925050509392505050565b5f819050919050565b5f61334761334261333d8461225e565b613324565b61225e565b9050919050565b5f819050919050565b6133608361332d565b61337461336c8261334e565b8484546132d3565b825550505050565b5f90565b61338861337c565b613393818484613357565b505050565b5b818110156133b6576133ab5f82613380565b600181019050613399565b5050565b601f8211156133fb576133cc816132a6565b6133d5846132b8565b810160208510156133e4578190505b6133f86133f0856132b8565b830182613398565b50505b505050565b5f82821c905092915050565b5f61341b5f1984600802613400565b1980831691505092915050565b5f613433838361340c565b9150826002028217905092915050565b61344c8261255a565b67ffffffffffffffff8111156134655761346461289d565b5b61346f8254613276565b61347a8282856133ba565b5f60209050601f8311600181146134ab575f8415613499578287015190505b6134a38582613428565b86555061350a565b601f1984166134b9866132a6565b5f5b828110156134e0578489015182556001820191506020850194506020810190506134bb565b868310156134fd57848901516134f9601f89168261340c565b8355505b6001600288020188555050505b505050505050565b5f8160601b9050919050565b5f61352882613512565b9050919050565b5f6135398261351e565b9050919050565b61355161354c826122bf565b61352f565b82525050565b5f819050919050565b61357161356c8261225e565b613557565b82525050565b5f6135828285613540565b6014820191506135928284613560565b6020820191508190509392505050565b7f4e487b71000000000000000000000000000000000000000000000000000000005f52601260045260245ffd5b5f6135d98261225e565b91506135e48361225e565b9250826135f4576135f36135a2565b5b828206905092915050565b7f4c616e642077697468207468697320494420616c7265616479206578697374735f82015250565b5f613633602083612a59565b915061363e826135ff565b602082019050919050565b5f6020820190508181035f83015261366081613627565b9050919050565b5f60208201905061367a5f8301846127c4565b92915050565b7f4f6e6c79206f776e65722063616e2064656c657465206c616e640000000000005f82015250565b5f6136b4601a83612a59565b91506136bf82613680565b602082019050919050565b5f6020820190508181035f8301526136e1816136a8565b9050919050565b5f6136f28261225e565b91506136fd8361225e565b925082820390508181111561371557613714612e73565b5b92915050565b7f4e487b71000000000000000000000000000000000000000000000000000000005f52603160045260245ffdfea26469706673582212209309863621bcab4af5883c4c9e33bacd4ac0c68d55d4fb58b8053be343177ee364736f6c63430008190033",
  "immutableReferences": {},
  "source": "// SPDX-License-Identifier: MIT\n\npragma solidity ^0.8.17;\n\ncontract LandRegistrationSystem {\n    struct Land {\n        uint256 land_id;\n        bool is_govt_approved;\n        string ipfsHash;\n        address current_owner;\n        address[] previous_owners;\n        uint256 created_at;\n        uint256 approved_at;\n    }\n\n    struct TransferRequestTrack {\n        uint256 created_at;\n        uint256 approved_at;\n        address new_owner;\n        uint256 land_id;\n        bool owner_approved;\n        bool govt_approved;\n    }\n\n    address owner;\n    uint256[] landIds;\n    mapping(uint256 => Land) public lands;\n    mapping(address => bool) isAdmin;\n    mapping(address => TransferRequestTrack[]) userTransferRequests;\n    mapping(address => uint256[]) public userLandIds; // Keep track of land IDs owned by each use\n\n    event LandOwnershipTransferred(\n        uint256 indexed landId,\n        address[] previousOwners,\n        address newOwner\n    );\n    event LandCreated(uint256 indexed landId, address newOwner);\n\n    uint256 public totalLands;\n\n    modifier onlyAdmin() {\n        require(isAdmin[msg.sender], \"Only admins can perform this action\");\n        _;\n    }\n\n    modifier onlyOwner() {\n        require(\n            msg.sender == owner,\n            \"Only the contract owner can perform this action\"\n        );\n        _;\n    }\n\n    constructor() {\n        owner = msg.sender;\n    }\n\n    function addAdmin(address _admin) public onlyOwner {\n        isAdmin[_admin] = true;\n    }\n\n    function registerLand(string memory ipfsHash) public {\n        uint256 landId = uint256(\n            keccak256(abi.encodePacked(msg.sender, block.timestamp))\n        ) % 10000000000;\n        require(lands[landId].land_id == 0, \"Land with this ID already exists\");\n\n        lands[landId] = Land({\n            land_id: landId,\n            is_govt_approved: false,\n            ipfsHash: ipfsHash,\n            current_owner: msg.sender,\n            previous_owners: new address[](0),\n            created_at: block.timestamp,\n            approved_at: 0\n        });\n\n        // Add the land ID to the user's list of owned land IDs\n        userLandIds[msg.sender].push(landId);\n        landIds.push(landId);\n\n        emit LandCreated(landId, msg.sender);\n    }\n\n    function getLand(uint256 landId) public view returns (Land memory) {\n        require(lands[landId].land_id != 0, \"Land with this ID does not exist\");\n\n        return\n            Land({\n                land_id: landId,\n                is_govt_approved: lands[landId].is_govt_approved,\n                ipfsHash: lands[landId].ipfsHash,\n                current_owner: lands[landId].current_owner,\n                previous_owners: lands[landId].previous_owners,\n                created_at: lands[landId].created_at,\n                approved_at: lands[landId].approved_at\n            });\n    }\n\n    function updateLand(uint256 landId, string memory newIpfsHash1) public {\n        require(lands[landId].land_id != 0, \"Land with this ID does not exist\");\n        require(\n            msg.sender == lands[landId].current_owner,\n            \"Only land owner can update land\"\n        );\n        lands[landId].ipfsHash = newIpfsHash1;\n    }\n\n    function deleteLand(uint256 landId) public {\n        require(msg.sender == owner, \"Only owner can delete land\");\n        require(lands[landId].land_id != 0, \"Land with this ID does not exist\");\n\n        delete lands[landId];\n\n        for (uint256 i = 0; i < landIds.length; i++) {\n            landIds[i] = landIds[landIds.length - 1];\n        }\n        landIds.pop();\n    }\n\n    function approveLand(uint256 _landId) public onlyAdmin {\n        require(\n            lands[_landId].is_govt_approved == false,\n            \"Land already approved by government\"\n        );\n\n        lands[_landId].is_govt_approved = true;\n        lands[_landId].approved_at = block.timestamp;\n    }\n\n    function createTransferRequest(uint256 landId, address newOwner) public {\n        Land storage land = lands[landId];\n        require(\n            land.current_owner == msg.sender,\n            \"Only the current owner can transfer ownership\"\n        );\n\n        TransferRequestTrack[] memory userTransfers = userTransferRequests[\n            msg.sender\n        ];\n        for (uint256 i = 0; i < userTransfers.length; i++) {\n            if (userTransfers[i].land_id == landId) {\n                require(\n                    userTransfers[i].land_id != landId,\n                    \"There is already a pending transfer request for this land\"\n                );\n            }\n        }\n\n        userTransferRequests[msg.sender].push(\n            TransferRequestTrack({\n                land_id: landId,\n                new_owner: newOwner,\n                owner_approved: true,\n                govt_approved: false,\n                approved_at: 0,\n                created_at: block.timestamp\n            })\n        );\n    }\n\n    function approveTransferRequest(\n        uint256 landId,\n        address currentOwner\n    ) public onlyAdmin returns (bool) {\n        Land storage land = lands[landId];\n        require(land.land_id == landId, \"This land doesn't exist\");\n        require(\n            land.is_govt_approved == true,\n            \"This land ownership has not been approved\"\n        );\n\n        TransferRequestTrack[] memory userTransfers = userTransferRequests[\n            currentOwner\n        ];\n        for (uint256 i = 0; i < userTransfers.length; i++) {\n            if (\n                userTransfers[i].land_id == landId &&\n                userTransfers[i].owner_approved == true &&\n                userTransfers[i].govt_approved == false\n            ) {\n                userTransferRequests[currentOwner][i].govt_approved = true;\n                userTransferRequests[currentOwner][i].approved_at = block\n                    .timestamp;\n                land.previous_owners.push(land.current_owner);\n                _detachLandFromAddress(landId, land.current_owner);\n                land.current_owner = userTransfers[i].new_owner;\n                userLandIds[userTransfers[i].new_owner].push(landId);\n                emit LandOwnershipTransferred(\n                    landId,\n                    lands[landId].previous_owners,\n                    currentOwner\n                );\n\n                return true;\n            }\n        }\n\n        return false;\n    }\n\n    function getLandOwners(\n        uint256 landId\n    )\n        public\n        view\n        returns (address currentOwner, address[] memory previousOwners)\n    {\n        currentOwner = lands[landId].current_owner;\n        previousOwners = lands[landId].previous_owners;\n    }\n\n    function getOwnedLands() public view returns (Land[] memory) {\n        uint256 landCount = userLandIds[msg.sender].length;\n        Land[] memory ownedLands = new Land[](landCount);\n        uint256 index = 0;\n        for (uint256 i = 0; i < landCount; i++) {\n            uint256 landId = userLandIds[msg.sender][i];\n            if (lands[landId].current_owner == msg.sender) {\n                ownedLands[index] = getLand(landId);\n                index++;\n            }\n        }\n\n        return ownedLands;\n    }\n\n    function getAllLands() public view onlyAdmin returns (Land[] memory) {\n        Land[] memory result = new Land[](landIds.length);\n        for (uint256 i; i < landIds.length; i++) {\n            result[i] = getLand(landIds[i]);\n        }\n\n        return result;\n    }\n\n    function getTransferredLands()\n        public\n        view\n        returns (TransferRequestTrack[] memory)\n    {\n        TransferRequestTrack[] memory response = userTransferRequests[\n            msg.sender\n        ];\n\n        return response;\n    }\n\n    function getAddressTransferredLands(\n        address req\n    ) public view onlyAdmin returns (TransferRequestTrack[] memory) {\n        TransferRequestTrack[] memory response = userTransferRequests[req];\n\n        return response;\n    }\n\n    function _detachLandFromAddress(\n        uint256 landId,\n        address pastOwner\n    ) internal {\n        uint256 landCount = userLandIds[msg.sender].length;\n        for (uint256 i = 0; i < landCount; i++) {\n            if (userLandIds[pastOwner][i] == landId) {\n                userLandIds[pastOwner][i] = userLandIds[pastOwner][\n                    landCount - 1\n                ];\n                userLandIds[pastOwner].pop();\n            }\n        }\n    }\n}\n",
  "sourcePath": "/home/habib/blockchain/solidity/client-work/githubLandRegistryProjects/verifiland/contracts/LandRegistrationSystem.sol",
  "compiler": {
    "name": "solc",
    "version": "0.8.25+commit.b61c2a91.Emscripten.clang"
  },
  "schemaVersion": "3.4.16",
  "updatedAt": "2024-04-26T05:46:54.496Z",
  "devdoc": {
    "kind": "dev",
    "methods": {},
    "version": 1
  },
  "userdoc": {
    "kind": "user",
    "methods": {},
    "version": 1
  }
}